:020000040800F2
:1000000098E4012075020008811300081D0B000808
:100010007D130008650900087F1B00080000000030
:100020000000000000000000000000005D16000855
:10003000D90900080000000011140008A9170008E1
:100040008F0200088F0200088F0200088F0200084C
:100050008F0200088F0200088F0200088F0200083C
:100060008F0200088F0200088F0200088F0200082C
:100070008F0200088F0200088F0200088F0200081C
:100080008F0200088F0200088F0200088F0200080C
:100090008F0200088F0200088F0200088F020008FC
:1000A0008F0200088F0200088F0200088F020008EC
:1000B000151800088F0200088F0200088F02000840
:1000C0008F0200088F0200088F0200088F020008CC
:1000D0008F0200088F020008611900088F020008D3
:1000E0008F0200088F0200088F0200088F020008AC
:1000F0008F0200088F0200088F0200088F0200089C
:100100008F0200088F0200088F0200088F0200088B
:100110008F0200088F0200088F0200088F0200087B
:100120008F0200088F0200088F0200088F0200086B
:100130008F02000800000000000000008F0200088D
:100140008F0200088F0200088F0200088F0200084B
:100150008F0200088F0200088F0200088F0200083B
:100160008F0200088F0200088F0200088F0200082B
:100170008F0200088F0200088F02000800000000B4
:10018000000000008F0200080000000000000000D6
:100190008F02000800000000000000008F0200082D
:1001A0000000000000000000000000008F020008B6
:1001B0008F0200088F0200088F0200088F020008DB
:1001C0008F02000800F002F800F044F80AA090E85E
:1001D000000C82448344AAF10107DA4501D100F002
:1001E00039F8AFF2090EBAE80F0013F0010F18BF8B
:1001F000FB1A43F001031847E8850700088607004B
:10020000103A24BF78C878C1FAD8520724BF30C842
:1002100030C144BF04680C60704700000023002414
:1002200000250026103A28BF78C1FBD8520728BF06
:1002300030C148BF0B607047752900F041817329B8
:1002400000F04282002070471FB554F01BF91FBD1B
:1002500010B510BD00F06AFA1146FFF7F5FF44F043
:1002600085FA00F088FA03B4FFF7F2FF03BC01F04F
:100270003BFE00000948804709480047FEE7FEE7CB
:10028000FEE7FEE7FEE7FEE7FEE7FEE7FEE7FEE746
:1002900004480549054A064B70470000AD170008A1
:1002A000C50100089884012098E4012098A4012049
:1002B00098A40120704753EA020C00F069802DE9F0
:1002C000F04B4FF00006002B1FBFB3FA83F503FA83
:1002D00005F424FA05F65E4012BF1643B2FA82F521
:1002E00002FA05F4C5F120051EBF22FA05FC44EA16
:1002F0000C04203556EA044C4FEA144418BF641C21
:100300004FF000084FF00009904271EB030C39D315
:10031000002919BFB1FA81F701FA07F6B0FA80F7A0
:1003200000FA07F6C7F120071EBF20FA07FC46EACD
:100330000C062037B6FBF4FCA7EB0507103F07F0CF
:100340001F0BCBF120060CFA0BFB2CFA06F644BF70
:10035000B3460026202FA4BF5E464FF0000B5BEA99
:10036000060C08BF4FF0010B19EB0B09ABFB027C2D
:1003700048EB0608C01B06FB02CC0BFB03CC71EB61
:100380000C01C1E70B46024641464846BDE8F08BEA
:1003900013B54FF000004FF00001AFF30080BDE84F
:1003A0001C40704710B54C1084EA530404D54042F9
:1003B000C1F1000138BF491E1B4204D55242C3F1AE
:1003C000000338BF5B1EFFF776FF14F0804F04D0A8
:1003D0004042C1F1000138BF491E14F0004F04D063
:1003E0005242C3F1000338BF5B1E10BD0FB4044975
:1003F00010B503AA029800F06BF910BC5DF814FB6D
:10040000280000202DE9F0410E460446002020621D
:100410002046E168884730B3252805D0D4E901217A
:100420009047206A401CF2E7E16820460027884791
:10043000050018D0A5F14100192802D820354FF445
:1004400000673246294620462760FFF7F5FE40B197
:10045000012804D0F61D26F007060836D8E7361D19
:10046000D6E72846DAE7206ABDE8F08170B50C4689
:100470000546012A05D02878800600D5EA690023C0
:1004800002E0012305E05B1C934202D2E05C0028FD
:10049000F9D1A869E618C01AA861286A1844286228
:1004A0002846AFF3008004E0D5E9012114F8010BE0
:1004B0009047B442F8D32846AFF3008070BD0000E7
:1004C0002DE9F0410646002410687529314616A52D
:1004D00010D0AFF30080002802DA404213A507E0F5
:1004E00031688A0701D512A502E0490704D511A594
:1004F000012401E0AFF3008000210A2206F1240765
:1005000009E0B0FBF2FCB0FBF2F302FB1C00303060
:1005100078541846491C0028F3D123462A46304611
:10052000BDE8F04100F065B8000000002D000000BB
:100530002B0000002000000010B5203AC0F00B8016
:10054000B1E81850203AA0E81850B1E81850A0E8D7
:100550001850BFF4F5AF5FEA027C24BFB1E8185031
:10056000A0E8185044BF18C918C0BDE810405FEAA1
:10057000827C24BF51F8043B40F8043B08BF70471D
:10058000D20728BF31F8023B48BF11F8012B28BF22
:1005900020F8023B48BF00F8012B70474FF00002E3
:1005A00000B5134694469646203922BFA0E80C5069
:1005B000A0E80C50B1F12001BFF4F7AF090728BF44
:1005C000A0E80C5048BF0CC05DF804EB890028BFC0
:1005D00040F8042B08BF704748BF20F8022B11F0E9
:1005E000804F18BF00F8012B704770477047704765
:1005F00070472DE9F0470D4699469246044600F1B2
:1006000024080168880604D5E06921F01001216002
:1006100000E00120A84201DD471B00E00027A1699E
:100620007A1902EB0900081AA0612078C00602D4EA
:100630002046AFF30080002608E0D4E901211AF833
:1006400006009047206A401C761C20624E45F4DB71
:100650002078C0060AD52046AFF3008006E0D4E932
:10066000012130209047206A401C2062381EA7F1EB
:100670000107F4DC07E0D4E9012118F805009047F0
:10068000206A401C2062281EA5F10105F3DC2046EB
:10069000AFF300802078000602D50220BDE8F08785
:1006A0000120FBE710B5436913B1AFF3008001E00F
:1006B000FFF7DCFE012010BD127800F124010A7062
:1006C00000224A700122EDE711684FF0FF32E9E79E
:1006D000074B70B50D467B4400F011F804462846E0
:1006E00000F020F810B14FF0FF3070BD204670BD13
:1006F000530C010001694A1C02610878704700B57B
:100700008FB0CDE901310021059105497944CDE94A
:10071000031011466846FFF775FE0FB000BD0000DC
:10072000E5FFFFFF007B00F080007047754600F09A
:100730002BF8AE4605006946534620F00700854673
:1007400018B020B5FFF7A4FDBDE820404FF000062B
:100750004FF000074FF000084FF0000B21F00701A9
:10076000AC46ACE8C009ACE8C009ACE8C009ACE8EC
:10077000C0098D46704710B50446AFF3008020468F
:10078000BDE81040FFF76FBD004870473884012076
:1007900021B1826842F00102826003E0826822F0A7
:1007A00001028260704710B50121080200F062FE6C
:1007B00000214FF4807000F05DFE10BD0146C86C52
:1007C00080B270470246002013680B400BB1012035
:1007D00000E000207047000030B5024600200023F2
:1007E0005068104C20400D790C6844EA05242043E1
:1007F000506090680C4C2040D1E903542C438D6824
:100800002C434D7944EA450420439060D06A20F49B
:1008100070000C7D641EE4B2234340EA0350D062B2
:1008200030BD0000FFFEFFFCFDF7FFC0F0B5044641
:100830000D4600200021092D11DDE068A5F10A0612
:1008400006EB4607072606FA07F18843A5F10A06D4
:1008500006EB460603FA06F10843E0600CE0206967
:1008600005EB4507072606FA07F1884305EB450621
:1008700003FA06F108432061072A0FDA606B561E5F
:1008800006EB86071F2606FA07F18843561E06EB7D
:10089000860605FA06F10843606322E00D2A0FDAA6
:1008A000206BD61F06EB86071F2606FA07F1884342
:1008B000D61F06EB860605FA06F10843206310E012
:1008C000E06AA2F10D0606EB86071F2606FA07F17D
:1008D0008843A2F10D0606EB860605FA06F10843E9
:1008E000E062F0BD816841F08041816070470000A6
:1008F00000B589B00121080200F0ACFD01210846D5
:1009000000F088FD03208DF8080000208DF80A0013
:1009100003208DF8090000208DF80B0012200190B3
:1009200001A90E4800F059F8FFF73DFF4FF0807025
:10093000039000208DF810008DF8110005900790AD
:1009400001208DF8200003A90548FFF745FF01218C
:100950000348FFF71DFF09B000BD00000000024082
:100960000020014000BFFEE700F00101154A1160C0
:10097000401000F00101144AC2F89C12401000F02F
:100980000101104A121D1160401000F001010F4AD0
:10099000C2F88C12401000F001010D4A11604010A5
:1009A00000F00101094AC2F89012401000F0010164
:1009B000C2F8A812401000F00101064AC2F8A012C5
:1009C00070470000A40240420000414200804042C3
:1009D00094824042000040427047F0B50A46002130
:1009E0000023002400BF3DE0012505FA01F315684E
:1009F00005EA03049C4234D105684F000326BE403B
:100A0000B543056015794E00B5400668354305606D
:100A10001579012D02D01579022D16D185684F0068
:100A20000326BE40B543856055794E00B5408668C3
:100A300035438560456801268E40B543456045686D
:100A400096798E40B6B235434560C5684F0003269F
:100A5000BE40B543C560D5794E00B540C668354344
:100A6000C560491C1029BFD3F0BDF0B50023002498
:100A70004D07ED0E02FA05F3CE1000F1200555F8F2
:100A800026504E07F70E0F26BE40B543CF1000F19B
:100A9000200646F82750CE1000F1200555F82650C4
:100AA00045EA0304CE1000F1200545F82640F0BDCC
:100AB0000A048261704781617047000010B50446E6
:100AC00001231A4621460848FFF7B0FE0648FFF703
:100AD00009FF00BF02210448FFF774FE0028F9D087
:100AE0000148FFF76BFE10BD002001402DE9F041E9
:100AF00007460C460025002608E03846FFF7DEFFD3
:100B0000054405200AF0D8FD701CC6B2A642F4DBED
:100B1000B5FBF4F080B2BDE8F081000002A0FFF761
:100B200065FC00BFFEE70000686172646661756C79
:100B3000743F000010B504460E4884712C200D4906
:100B400008813C2048812A2088812B20C88134B923
:100B50004FF4A07008804FF4F070488006E04FF426
:100B6000F070044908804FF4A0704880022000F023
:100B700037FA10BDDC0100202DE9F04104460025C4
:100B80001848008B1749498B00FB01F6154A518A1A
:100B9000108A00F0D5FA00F077FB002012490860B7
:100BA000271204F0FF0800BF15E0F8B2FFF7DCFEE3
:100BB00000200E49086001200D49C1F8840208F0A8
:100BC000FF00FFF7D1FE0020084908600120084916
:100BD000C1F884026D1CB542E7D3012002490860C8
:100BE000BDE8F081DC010020808240428402404266
:100BF000000040420EB50121072000F00BFC01204F
:100C00008DF8080000208DF80A0003208DF80900F7
:100C100000208DF80B0040F21370019001A9964856
:100C2000FFF7DBFE40F23940019001A99348FFF73E
:100C3000D4FE8220019001A99148FFF7CEFE132136
:100C40008D48FFF738FF4FF480618C48FFF730FF85
:100C500002218B48FFF72FFF00F0A0F932200AF0A5
:100C60002BFDD32000F0D4FA32200AF025FD00F04D
:100C70000BF98449888000F007F98249888000F0E8
:100C800003F980498880084680884FF6FF7101EAA1
:100C900000207C49888000F0F7F87A498988084369
:100CA00078498880042000F0B3FA00F0EDF8009055
:100CB00000F0EAF8009000F0E7F8009000F0E4F8A7
:100CC00000900C2000F0A4FA00F0DEF8009000F094
:100CD000DBF800903A2000F09BFA552000F0B8FABB
:100CE0000C2000F095FA00F0CFF8009000F0CCF85E
:100CF00000906448808849F28641884200D00EBD49
:100D0000F22000F085FA182000F0A2FAA32000F0EB
:100D10009FFA122000F09CFA022000F099FAB2200B
:100D200000F096FA122000F093FAFF2000F090FAFB
:100D3000102000F08DFA002000F08AFAF82000F070
:100D400067FA212000F084FA042000F081FAF920EB
:100D500000F05EFA002000F07BFA082000F078FA3C
:100D6000362000F055FA082000F072FAB42000F0A6
:100D70004FFA002000F06CFAC12000F049FA41203F
:100D800000F066FAC52000F043FA002000F060FA97
:100D9000532000F05DFAE02000F03AFA0F2000F056
:100DA00057FA1B2000F054FA182000F051FA0B20DB
:100DB00000F04EFA0E2000F04BFA092000F048FA3D
:100DC000472000F045FA942000F042FA352000F068
:100DD0003FFA0A2000F03CFA132000F039FA05200F
:100DE00000F036FA082000F033FA032000F030FA61
:100DF000002000F02DFAE12000F00AFA0F2000F0A8
:100E000027FA3A2000F024FA372000F021FA0B20CC
:100E100000F01EFA0C2000F01BFA052000F018FA72
:100E20004A2000F015FA242000F012FA392000F0D0
:100E30000FFA072000F00CFA102000F009FA042045
:100E400000F006FA272000F003FA252000F000FA4F
:100E5000002000F0FDF9112000F0DAF978200AF006
:100E60002BFC292000F0D4F90120FFF763FE0020BD
:100E7000FFF782FE00BF42E700000240000402408C
:100E800000080240DC01002010B50024374800684B
:100E900020F47C1035490860354800683549084021
:100EA000334908603448006820F440403249086003
:100EB0000020324908603249C1F8800201200AF05E
:100EC00021FC00BF2E48D0F82002C0012D49D1F8E6
:100ED000281240EA81102B49D1F8101240EA411043
:100EE0002849D1F8141240EA01102649D1F80C1211
:100EF00040EAC1002249D1F8281240EA8100224983
:100F0000D1F81C1240EA4100204909680843C0B2E8
:100F1000044601201D495C3108601A49C1F880026D
:100F2000124800681A4908401049086008460068DD
:100F3000184908430D4908600D4800680D490840EC
:100F40000B490860084600681349084308490860CF
:100F50000948006820F440400749086008460068D6
:100F600040F480400860204610BD000000000240B0
:100F7000000402403FF0CFFF000802408082404260
:100F800000004042008040420000414224024042B2
:100F9000F3FCC0FF040115004005100010B500204F
:100FA0000C49086001200C49C1F884020AF084FB56
:100FB00000200A4908600A200AF07EFB0120064949
:100FC000C1F8840278200AF077FB0120014908600B
:100FD00010BD000080824042000041428402414234
:100FE0002DE9F04105460024002754488079012866
:100FF00018D1082D15D2DFE805F00406080A0C0EFA
:10100000101206250DE007250BE0042509E0052553
:1010100007E0012505E0002503E0032501E00225A6
:1010200000BF00BF082D1CD2DFE805F00406090C44
:101030000F12151800BF14E044F0800411E044F0D2
:1010400040040EE044F0C0040BE044F0200408E04B
:1010500044F0600405E044F0A00402E044F0E00441
:1010600000BF00BF3548808849F28641884202D1DE
:10107000362744F00804F8B200F0CAF8E0B200F0F5
:10108000E7F804F0200068B12C4800882B49498813
:10109000884214DA2948068840882849088008468A
:1010A00046800CE02548008824494988884206DDAE
:1010B000224806884088214908800846468000204A
:1010C0001E4908824882084600888882084640886F
:1010D000C882084600880883084640884883087B01
:1010E00000F096F8002000F0B3F8002000F0B0F80F
:1010F00012490988491EC1F3072000F0A9F80F49D9
:101100000978491EC8B200F0A3F80C49887B00F0AA
:101110007FF8002000F09CF8002000F099F80749C3
:101120004988491EC1F3072000F092F803498978E5
:10113000491EC8B200F08CF8BDE8F081DC01002047
:1011400070B504460D461349087B00F061F8201283
:1011500000F07EF8E0B200F07BF80E49898A0812B0
:1011600000F076F80B49087D00F072F80949887B99
:1011700000F04EF8281200F06BF8E8B200F068F8C2
:101180000449C98A081200F063F80249887D00F01A
:101190005FF870BDDC0100202DE9F04104460D46EA
:1011A00016461F46301B401C18490883781B401CFC
:1011B00048830846048245828682C782087B00F005
:1011C00027F8201200F044F8E0B200F041F80F498F
:1011D000898A081200F03CF80C49087D00F038F8C4
:1011E0000A49887B00F014F8281200F031F8E8B2C0
:1011F00000F02EF80549898A081200F029F8034901
:10120000087D00F025F8BDE8F0810000DC01002039
:1012100010B5044600200A4908602046FFF7A4FBE9
:1012200000200849C1F890020749086001200860C1
:1012300005490C3108600549C1F8800210BD000065
:10124000808240420000404284024042008040428E
:1012500010B504460020084908602046FFF784FBCB
:1012600000200649C1F884020120054908600549AB
:10127000C1F8800210BD0000808240420000404260
:10128000840240420080404210B50249087AFFF7CC
:10129000BFFF10BDDC0100202DE9F047074688465E
:1012A00091469A46089D2A4800682A4908402849DC
:1012B000086008460068284908432549086027480F
:1012C0000068274908402549086008460068254904
:1012D0000843224908602448006820F4404022491D
:1012E00008600846006840F48040086053464A465B
:1012F00041463846FFF750FF1C48008B1B49498B7D
:1013000000FB01F6FFF7C0FF002019490860002428
:1013100015E0611C685CFFF727FB00201549086099
:1013200001201549C1F88402285DFFF71DFB00204C
:101330001049086001201049C1F88402A41CB4EBD4
:10134000460FE6D301200A490860BDE8F087000097
:1013500000000240F3FCC0FF04011500000402403D
:101360003FF0CFFF4005100000080240DC010020E4
:1013700080824042840240420000404200BFFEE7BB
:101380007047000070B5002100230F22C4781CB301
:10139000174C246804F4E064C4F5E064C4F3072146
:1013A000C1F10404E3B20A4144789C40E1B284787C
:1013B000144021430C07210E0E4C0578615504782A
:1013C00004F01F050124AC4005786D11AD0005F156
:1013D000E025C5F8004109E0047804F01F05012468
:1013E000AC40054D0678761145F8264070BD0000EA
:1013F0000CED00E000E400E080E100E00249014380
:10140000024A1160704700000000FA050CED00E090
:101410007047000029B1064A12680243044B1A6063
:1014200004E0034A12688243014B1A6070470000CF
:101430003038024029B1064A12680243044B1A6050
:1014400004E0034A12688243014B1A6070470000AF
:101450004038024029B1064A12680243044B1A6020
:1014600004E0034A12688243014B1A60704700008F
:101470004438024029B1064A12680243044B1A60FC
:1014800004E0034A12688243014B1A60704700006F
:10149000243802402DE9F0410021002300240226D7
:1014A000002502220227DFF8A4C1DCF800C00CF0FE
:1014B0000C0131B1042909D008290CD00C297CD1A8
:1014C00048E0DFF88CC1C0F800C089E0DFF884C1D3
:1014D000C0F800C084E0DFF874C1ACF1040CDCF8A3
:1014E00000C0CCF38055DFF864C1ACF1040CDCF82B
:1014F00000C00CF03F0275B1DFF858C1BCFBF2FC34
:10150000DFF84881A8F10408D8F80080C8F38818EB
:101510000CFB08F40DE0DFF838C1BCFBF2FCDFF88F
:101520002C81A8F10408D8F80080C8F388180CFBB7
:1015300008F4DFF818C1ACF1040CDCF800C0CCF3FF
:10154000014C0CF1010C4FEA4C06B4FBF6FCC0F860
:1015500000C045E0DFF8F4C0ACF1040CDCF800C0DA
:10156000CCF38055DFF8E4C0ACF1040CDCF800C02B
:101570000CF03F0275B1DFF8DCC0BCFBF2FCDFF819
:10158000CC80A8F10408D8F80080C8F388180CFBB8
:1015900008F40DE0DFF8B8C0BCFBF2FCDFF8AC806B
:1015A000A8F10408D8F80080C8F388180CFB08F4E8
:1015B000DFF898C0ACF1040C00E00CE0DCF800C0EF
:1015C000CCF3027C0CF1010C4FEA4C07B4FBF7FCA6
:1015D000C0F800C004E0DFF878C0C0F800C000BF69
:1015E00000BFDFF868C0DCF800C00CF0F0010909AA
:1015F000DFF864C01CF80130D0F800C02CFA03FCFE
:10160000C0F804C0DFF844C0DCF800C00CF4E051BE
:10161000890ADFF844C01CF80130D0F804C02CFA65
:1016200003FCC0F808C0DFF824C0DCF800C00CF4EC
:101630006041490BDFF820C01CF80130D0F804C02D
:101640002CFA03FCC0F80CC0BDE8F0810838024059
:101650000024F40000127A001400002070470000FB
:101660000CB50020019000904148006840F48030A3
:101670003F49086000BF3E48006800F40030009019
:101680000198401C0190009818B90198B0F5A04F3E
:10169000F1D13748006800F4003010B1012000900B
:1016A00001E0002000900098012860D130484030CF
:1016B000006840F080502E49403108602D48006895
:1016C00040F440402B490860294808300068284908
:1016D000083108600846006840F400400860084689
:1016E000006840F4A05008602348091F0860081FE4
:1016F000006840F08070091F086000BF1C48006847
:1017000000F000700028F9D01A48006840F48030DA
:101710001849086000BF1748406800F4803000286E
:10172000F9D01448006840F400301249086000BF46
:101730001048406800F400300028F9D040F20570ED
:101740000E4908600A480830006820F00300084984
:10175000083108600846006840F00200086000BFD9
:1017600003480830006800F00C000828F8D10CBDD0
:101770000038024000700040085A4077003C0240A8
:10178000042808D14FF0E021096941F004014FF02D
:10179000E022116107E04FF0E021096921F0040126
:1017A0004FF0E022116170477047000010B51548F6
:1017B000006840F47000134908601348006840F066
:1017C00001001149086000200F49083108600E48E7
:1017D00000680E4908400C4908600D48091D086062
:1017E000081F006820F48020091F086000200649B7
:1017F0000C310860FFF734FF4FF000600149803979
:10180000086010BD88ED00E000380240FFFFF6FEE2
:101810001030002410B50121880700F044F830B1E1
:101820000121880700F030F8012041F023FE10BDAF
:101830007FB505460C4601210846FFF7FBFD0295E2
:10184000ADF804400020ADF80C00ADF8060001A989
:101850004FF0804000F042F801221146900700F05E
:1018600033F81C208DF8000000208DF801008DF861
:10187000020001208DF803006846FFF783FD012177
:10188000880700F004F87FBDCA430282704721B187
:10189000028842F00102028004E002884FF6FE73E3
:1018A0001A400280704730B5024600200023002411
:1018B000158A05EA0103958905EA010413B10CB103
:1018C000012000E0002030BD1AB183890B438381E1
:1018D00002E083898B4383817047000000220288E5
:1018E000184B98420ED0184B98420BD0B0F1804F55
:1018F00008D0164B984205D0154B984202D0154B94
:10190000984204D14FF68F731A404B881A43124BFA
:10191000984207D0114B984204D04FF6FF431A402B
:101920000B891A4302804B68C3620B880385054B01
:10193000984202D0044B984201D18B7A038601234E
:101940008382704700000140000401400004004011
:1019500000080040000C004000100040001400404F
:1019600010B540F225511D4800F04AF810B31B484D
:1019700000F000F9C4B21A48008800F40040C8B969
:101980001748008800F4804060B10A2C03D0002082
:101990001349088020E01248008840F400401049B4
:1019A000088019E00D2C06D10D48008840F48040D5
:1019B0000B49088010E00A480088C0F30D0009496F
:1019C0000C5407480088401C0549088008460088D8
:1019D000C72801DD0020088010BD00000044004041
:1019E0002C0000201401002021B1828942F4005211
:1019F000828104E082894DF6FF731A40828170472C
:101A000070B50246002400230025002040F66A1627
:101A1000B14200D100BFC1F3421501F01F030126FE
:101A200006FA03F3012D02D19689334006E0022D18
:101A300002D1168A334001E0968A33400C12012607
:101A400006FA04F41688344013B10CB1012000E00A
:101A5000002070BDF0B503460024002600250020BC
:101A600040F66A17B94200D100BF1846C1F34214CC
:101A700001F01F06012707FA06F5012C01D10C30F1
:101A800004E0022C01D1103000E014301AB10768D4
:101A90002F43076002E00768AF430760F0BD000016
:101AA0002DE9FF4705460E460024A14600BFA0468B
:101AB000B08900B100BF2C8A24F44054F08804435C
:101AC0002C82AC8941F20C608443B0883189084390
:101AD000718908430443AC81AC8A24F44074B08912
:101AE0000443AC826846FFF7D5FC2048854202D00B
:101AF0001F48854202D1DDF80C9001E0DDF8089026
:101B0000A88900F4004040B109EBC90000EB0910BE
:101B100031684900B0FBF1F707E009EBC90000EBC1
:101B2000091031688900B0FBF1F76420B7FBF0F0D1
:101B300004012009642101FB1078A88900F4004009
:101B400040B1322000EBC800B0FBF1F000F007001C
:101B5000044308E0322000EB08106421B0FBF1F0F0
:101B600000F00F0004432C81BDE8FF870010014006
:101B70000014014001468888C0F30800704700BF88
:101B8000FEE770B50446002508E02168481C206087
:101B90000878303805EB850100EB410521680878AD
:101BA00000F033F80028F0D1284670BD2DE9F0414F
:101BB00080460F4614461D4625B92146404621F071
:101BC00001FA054605FB07F6142C03D1680800FB53
:101BD000076617E0072C15DB0A2C13DC072C01D154
:101BE00002200DE0082C01D1042009E0092C01D1CC
:101BF000102005E00A2C02D14FF4807000E0002094
:101C000006EB80063046BDE8F0810146302903DB53
:101C1000392901DC012070470020FCE72DE9FF4F46
:101C200085B08346DDE9158ADDE91349DDE91775DD
:101C3000129E05F00200F8B94FB105F0010030B175
:101C4000B9F1000F02D105F00C0000B17F1E03E0D6
:101C500030222046641C3254544501D2202CF7D344
:101C600003E030222046641C325405F0010018B114
:101C7000BC4201D2202CF4D305F01000B0B305F41F
:101C8000806050B94CB1544501D0BC4205D1641EAE
:101C90001CB1B8F1100F00D1641EB8F1100F09D1BA
:101CA00005F0200030B9202C04D278222046641C94
:101CB000325415E0B8F1100F09D105F0200030B111
:101CC000202C04D258222046641C325408E0B8F17B
:101CD000020F05D1202C03D262222046641C32540C
:101CE000202C03D230222046641C3254202C16D2E1
:101CF000B9F1000F04D02D222046641C32540EE0AE
:101D000005F0040020B12B222046641C325406E06A
:101D100005F0080018B120222046641C3254CDE999
:101D20000275CDE90064584606A90EC900F0A2F874
:101D300009B0BDE8F08F2DE9FF4F8FB08046DDE997
:101D40001FABDDE91D96219D1C9C00270CB925F0D9
:101D5000100505F4806000B1E4B100BFB4FBF6F1FA
:101D600006FB1141C8B20A2802DA00F1300107E08F
:101D700005F0200109B1412100E0612101440A3947
:101D8000CBB239467F1C07AA5354B4FBF6F40CB10E
:101D9000202FE3D307A8CDE904AB8DE88102039699
:101DA0000695404610A90EC9FFF738FF13B0BDE8ED
:101DB000F08F2DE9FF4F8FB0DDE9217BDDF89080BA
:101DC000209EDDE91C454FF00009002184EA010056
:101DD0006940084301D128F0100808F4806028B158
:101DE000002184EA0100694008432DD000BF32463B
:101DF0003B4620462946FEF75EFA02F0FF0ABAF19A
:101E00000A0F02DA0AF1300007E008F0200008B1FA
:101E1000412000E0612050440A38C2B2484609F12E
:101E2000010907A90A5432463B4620462946FEF7D7
:101E300042FA04460D46002184EA01006940084345
:101E400002D0B9F1200FD2D32398CDE9036BCDE9AD
:101E5000050807A91E98CDE9001902900FA80FC820
:101E6000FFF7DCFE13B0BDE8F08F9A4200D2885431
:101E7000704770472DE9FF5F05461446DDE90EA661
:101E8000DDE91087A34607F0020078B907F00100EA
:101E900060B9B14607E02246641C2020039B0199EB
:101EA000A84709F10109C145F5D300BF08E0224662
:101EB000641C711E0E461AF80100039B0199A84785
:101EC000002EF4D107F0020050B105E02246641C58
:101ED0002020039B0199A847A4EB0B004045F5D3B4
:101EE000204604B0BDE8F09F00BF70472DE9FE43D7
:101EF00004460D469046264600BF002E0ED11FA078
:101F000022A125A22C4BCDE9002102904FF4997219
:101F10002AA1032030F06CFB00BFFEE700BF00BF2A
:101F2000002D0ED115A032A11BA2234BCDE900211B
:101F3000029040F2331221A1032030F059FB00BF80
:101F4000FEE700BF06B115B90020BDE8FE8342469A
:101F50002946304601F02AFD07460FB90020F4E774
:101F6000616838691CF058F881462846F16B88474B
:101F7000E1680844E0604846E7E700004E554C4CF5
:101F800020706F696E746572000000006C727520BD
:101F9000213D204E554C4C0041737365727465644D
:101FA0002061742065787072657373696F6E3A2072
:101FB0002573202825732900CF4607082E2E5C4C58
:101FC00056474C5C6C76676C5C7372635C6D6973CE
:101FD000635C63616368655C636C6173735C6C769E
:101FE0005F63616368655F6C72755F72622E630028
:101FF0006B657920213D204E554C4C002DE9FF5F4B
:1020000007460E461546984632462946684619F058
:10201000A5F820B301986968411A0E9800FB017970
:1020200000982968401A8144009840443168A0EB28
:10203000010A684619F07FF8834600240CE01AF87C
:10204000041019F804208818FF2801D9FF2100E0A6
:1020500001460AF80410641C5C45F0D300BFBDE8DB
:10206000FF9F2DE9F04104460E46002774B131462A
:10207000204601F0CBFB0546B5F5803F05D20C2D7F
:1020800001D9284600E00C20074600BF3846BDE8CD
:10209000F0812DE9F04F87B00646D6F804B0B0685D
:1020A000069096F82180D6F80090F0680590D6F852
:1020B00018A0F069049037697069039001A81EF0B8
:1020C0001FF996F8220000287BD10FBBB8F1FD0F55
:1020D0001EDB002518E0002409E009EB44010AEBAF
:1020E0004400008801AA00901DF032FB641C5C458E
:1020F000F3DB484605990EF00DF8814650460499E9
:102100000EF008F882466D1C06988542E3DBC2E0BB
:102110004FBBB8F1FD0F26DA002520E0002411E0C6
:102120000AEB4400008800909DF8010000FB08F0D5
:1021300000128DF8010009EB440101AA00981DF07E
:1021400007FB641C5C45EBDB484605990DF0E2FF9C
:102150008146504604990DF0DDFF82466D1C0698BD
:102160008542DBDB97E06FB3B8F1FD0F2BDB002579
:1021700023E0002412E00AEB4400008800909DF860
:102180000100395D10FB01F000128DF8010009EB30
:10219000440101AA00981DF0DBFA641C5C45EADBEF
:1021A000484605990DF0B6FF8146504604990DF05A
:1021B000B1FF8246039807446D1C06988542D8DB20
:1021C00069E031E0FFE7002F65D0B8F1FD0F62DA7A
:1021D000002525E0002414E00AEB4400008800906C
:1021E0009DF80100395D10FB01F000FB08F00014C0
:1021F0008DF8010009EB440101AA00981DF0A8FA2E
:10220000641C5C45E8DB484605990DF083FF814678
:10221000504604990DF07EFF8246039807446D1CDA
:1022200006988542D6DB36E0002531E000241FE029
:102230000AEB4400008800903FB99DF8010000FBC4
:1022400008F000128DF8010009E09DF80100395DE9
:1022500010FB01F000FB08F000148DF8010096F867
:10226000222009EB440001AB009905F075F9641CCC
:102270005C45DDDB0FB103980744484605990DF036
:1022800049FF8146504604990DF044FF82466D1C7B
:1022900006988542CADB07B0BDE8F08F2DE9F04F04
:1022A0008BB0074678680A90B868099097F821A023
:1022B000D7F800B0F8680890BE69F8690790D7F8B9
:1022C00010807869069097F8220000287ED1B8F136
:1022D000000F26D1BAF1FD0F23DB00251DE04FF0E2
:1022E000000900240BE006EB44035A780BEB89014C
:1022F00016F814001DF0DDFD09F10109641C0A98AF
:102300008442F0DB584608990DF007FF83463046BB
:1023100007990DF002FF06466D1C09988542DEDB29
:10232000E1E0B8F1000F29D1BAF1FD0F26DA00255E
:1023300020E04FF0000900240EE006EB44035B7838
:1023400003FB0AF31A120BEB890116F814001DF0B7
:10235000B0FD09F10109641C0A988442EDDB58467E
:1023600008990DF0DAFE8346304607990DF0D5FE48
:1023700006466D1C09988542DBDBB4E0B8F1000F1E
:102380002FD0BAF1FD0F2CDB002526E04FF000091D
:10239000002410E006EB44035B7818F804C013FB3C
:1023A0000CF31A120BEB890116F814001DF081FDD5
:1023B00009F10109641C0A988442EBDB584608992C
:1023C0000DF0ABFE83463046079900E03CE00DF08F
:1023D000A4FE0646069880446D1C09988542D5DB0C
:1023E00081E0B8F1000F7ED0BAF1FD0F7BDA002555
:1023F00026E04FF00009002412E006EB44035B786E
:1024000018F804C013FB0CF303FB0AF31A140BEBCC
:10241000890116F814001DF04CFD09F10109641C36
:102420000A988442E9DB584608990DF076FE834607
:10243000304607990DF071FE0646069880446D1CE3
:1024400009988542D5DB4EE001A81DF06BFF002501
:1024500045E04FF0000900242EE016F814008DF836
:10246000160016F814008DF8150016F814008DF8F3
:102470001400B8F1000F08D106EB4400407800FBCF
:102480000AF000128DF817000BE006EB44004078CC
:1024900018F8091010FB01F000FB0AF000148DF889
:1024A000170097F822200BEB890001AB059905F086
:1024B000E5F809F10109641C0A988442CDDBB8F102
:1024C000000F01D006988044584608990DF025FE6B
:1024D0008346304607990DF020FE06466D1C09988C
:1024E0008542B6DB00BF0BB0BDE8F08F2DE9F04FA1
:1024F00087B08046D8F804000690D8F80800059008
:1025000098F821B0D8F800000490D8F80C00039097
:10251000D8F81870D8F81C000290D8F810A0D8F895
:1025200014000190D8F82400C11700EB5171C910B4
:10253000A0EBC10998F8220000287DD1BAF1000F64
:102540003BD1BBF1FD0F38DB002632E00025002433
:1025500021E005EB090104980EF0B5FFC0EB002067
:10256000C0B2009007EB44014A7817F8140069469E
:102570001DF0C4FC9DF800007F2805DD05EB090176
:1025800004984AF07DFF04E005EB0901049808F087
:1025900081F96D1C641C06988442DADBDDE90310C6
:1025A0000DF0C1FD0490384602990DF0BCFD0746C0
:1025B000761C05988642C9DB1BE1BAF1000F40D1B9
:1025C000BBF1FD0F3DDA002635E00025002424E0B4
:1025D00005EB090104980EF076FFC0EB0020C0B2B5
:1025E000009007EB4401497801FB0BF10A1217F840
:1025F000140069461DF082FC9DF800007F2805DD6F
:1026000005EB090104984AF03BFF04E005EB0901E2
:10261000049808F03FF96D1C641C06988442D7DBCF
:10262000DDE903100DF07FFD0490384602990DF0AE
:102630007AFD0746761C00E091E005988642C4DBEF
:10264000D7E0BAF1000F42D0BBF1FD0F3FDB00260F
:1026500039E00025002426E005EB090104980EF07E
:1026600032FFC0EB0020C0B2009007EB4401497874
:102670001AF8043011FB03F10A1217F81400694626
:102680001DF03CFC9DF800007F2805DD05EB0901ED
:1026900004984AF0F5FE04E005EB0901049808F0FF
:1026A000F9F86D1C641C06988442D5DBDDE9031043
:1026B0000DF039FD0490384602990DF034FD0746BF
:1026C00001988244761C05988642C2DB91E0BAF1FB
:1026D000000FB5D0BBF1FD0FB2DA00263BE00025BC
:1026E000002428E005EB090104980EF0ECFEC0EB95
:1026F0000020C0B2009007EB440149781AF804307A
:1027000011FB03F101FB0BF10A1417F814006946E1
:102710001DF0F4FB9DF800007F2805DD05EB0901A5
:1027200004984AF0ADFE04E005EB0901049808F0B6
:10273000B1F86D1C641C06988442D3DBDDE90310FC
:102740000DF0F1FC0490384602990DF0ECFC0746C0
:1027500001988244761C05988642C0DB49E0002639
:1027600043E0002500242DE017F814008DF8020046
:1027700017F814008DF8010017F814008DF8000008
:10278000BAF1000F08D107EB4400407800FB0BF0D2
:1027900000128DF803000BE007EB440040781AF8B4
:1027A000041010FB01F000FB0BF000148DF8030087
:1027B00098F8223005EB0901009A049805F068F8B2
:1027C0006D1C641C06988442CEDBBAF1000F01D068
:1027D00001988244DDE903100DF0A5FC0490384611
:1027E00002990DF0A0FC0746761C05988642B8DBDE
:1027F00000BF07B0BDE8F08F2DE9F04F87B0064667
:1028000070680690B068059096F821A0D6F800B0E0
:10281000F0680490B769F0690390D6F81080706989
:10282000029096F8220000287ED1B8F1000F26D140
:10283000BAF1FD0F23DB00251DE04FF00009002455
:102840000BE007EB44035A780BEB090117F814006F
:102850001DF067FB09F10109641C06988442F0DB56
:10286000584604990DF062FC8346384603990DF0F2
:102870005DFC07466D1C05988542DEDBD2E0B8F1B1
:10288000000F29D1BAF1FD0F26DA002520E04FF024
:10289000000900240EE007EB44035B7803FB0AF316
:1028A0001A120BEB090117F814001DF03AFB09F19D
:1028B0000109641C06988442EDDB584604990DF02A
:1028C00035FC8346384603990DF030FC07466D1CF5
:1028D00005988542DBDBA5E0B8F1000F2FD0BAF1F7
:1028E000FD0F2CDB002526E04FF00009002410E04E
:1028F00007EB44035B7818F804C013FB0CF31A12BF
:102900000BEB090117F814001DF00BFB09F101098D
:10291000641C06988442EBDB584604990DF006FCD3
:1029200083463846039900E03CE00DF0FFFB074684
:10293000029880446D1C05988542D5DB72E0B8F1A1
:10294000000F6FD0BAF1FD0F6CDA002526E04FF0D2
:102950000009002412E007EB44035B7818F804C078
:1029600013FB0CF303FB0AF31A140BEB090117F822
:1029700014001DF0D6FA09F10109641C069884427E
:10298000E9DB584604990DF0D1FB8346384603999C
:102990000DF0CCFB0746029880446D1C05988542DB
:1029A000D5DB3FE0002539E04FF00009002422E0AC
:1029B00017F814008DF8060017F814008DF80500BC
:1029C00017F814008DF80400B8F1000F02D18DF84B
:1029D00007A006E018F8090000FB0AF000128DF8C5
:1029E000070096F822200BEB0900019904F0E8FF9C
:1029F00009F10109641C06988442D9DBB8F1000F83
:102A000001D002988044584604990DF08FFB83460C
:102A1000384603990DF08AFB07466D1C05988542E0
:102A2000C2DB00BF07B0BDE8F08F00002DE9F14F19
:102A30008AB00A98406809900A98806808900A98B5
:102A400090F8210007900A9806680A98C0680690D6
:102A50000A98D0F818A00A98C06905900A98D0F88A
:102A600010B00A98406904900A9890F82200002853
:102A70007ED1BBF1000F28D10798FD2825DB4FF050
:102A800000091EE0002400270CE00AEB47035A78F7
:102A900036F814101AF817001DF084F926F81400FF
:102AA000641C7F1C09988442EFDB304606990DF0C8
:102AB00040FB0646504605990DF03BFB824609F166
:102AC000010908988145DDDB04E2BBF1000F2BD141
:102AD0000798FD2828DA4FF0000921E0002400279C
:102AE0000FE00AEB47035B78079D6B431A1236F839
:102AF00014101AF817001DF055F926F81400641C7C
:102B00007F1C09988442ECDB304606990DF011FBDE
:102B10000646504605990DF00CFB824609F1010965
:102B200008988145DADBD5E1BBF1000F31D0079879
:102B3000FD282EDB4FF0000927E00024002711E0DC
:102B40000AEB47035B781BF8045013FB05F31A12DA
:102B500036F814101AF817001DF024F926F814009E
:102B6000641C7F1C09988442EADB3046069900E029
:102B700044E00DF0DEFA0646504605990DF0D9FA0C
:102B800082460498834409F1010908988145D4DB01
:102B9000A0E1BBF1000F97D00798FD2894DA4FF021
:102BA000000927E00024002713E00AEB47035B78C5
:102BB0001BF8045013FB05F3079D6B431A1436F8FA
:102BC00014101AF817001DF0EDF826F81400641C14
:102BD0007F1C09988442E8DB304606990DF0A9FA7B
:102BE0000646504605990DF0A4FA8246049883449F
:102BF00009F1010908988145D4DB6BE100200390BD
:102C0000814662E135460024002749E11AF81700A1
:102C10004FEAE0081AF81700801002900A9890F81E
:102C20002200012806D002283DD0032878D00428AD
:102C30006FD198E035F8140008EBD0201F2804DA93
:102C400035F8140008EBD02000E01F204FF6FF718C
:102C500001EAC020039035F81400C0F34511029832
:102C600008443F2806DA35F81400C0F345110298ED
:102C7000084400E03F20039901EB401080B203902C
:102C800015F8140000F01F0040441F2805DA15F85D
:102C9000140000F01F00404400E01F200399084486
:102CA00080B20390B7E035F81400C8EBD0200028BC
:102CB00004DD35F81400C8EBD02000E000204FF60A
:102CC000FF7101EAC020039035F81400C0F34511EC
:102CD0000298081A002806DD35F81400C0F34511E3
:102CE0000298081A00E00020039901EB401080B21E
:102CF000039015F8140000F01F00A0EB0800002856
:102D000008DD15F8140000F01F00A0EB080002E039
:102D100006E070E000200399084480B203907AE056
:102D200035F81400C00A00FB08F040114FF6FF719F
:102D300001EAC020039035F81400C0F34510029951
:102D400048438111039800EB411080B2039015F8BD
:102D5000140000F01F0000FB08F0039901EB601065
:102D600080B2039057E035F81400C8EBD02000285B
:102D700004DD35F81400C8EBD02003E035F814006A
:102D8000A8EBD0204FF6FF7101EAC020039035F880
:102D90001400C0F345110298081A002806DD35F822
:102DA0001400C0F345110298081A05E035F8140024
:102DB000C0F345110298401A039901EB401080B20C
:102DC000039015F8140000F01F00A0EB0800002885
:102DD00006DD15F8140000F01F00A0EB080005E068
:102DE00015F8140000F01F00A8EB00000399084438
:102DF00080B203900FE00A9890F8220036A13E4B73
:102E00004FF42972CDE900103CA102202FF0F0FB15
:102E10000BB0BDE8F08F00BFBBF1000F0DD10798DC
:102E2000FD280ADB0AEB4700427836F814100398B5
:102E30001CF068FC26F8140030E0BBF1000F10D144
:102E40000798FD280DDA0AEB47004078079B5843A6
:102E5000021236F8141003981CF054FC26F81400E3
:102E60001CE00798FD2809DB1BF8042036F8141035
:102E700003981CF047FC26F814000FE01BF8040030
:102E8000079B58430AEB47035B785843021436F814
:102E9000141003981CF036FC26F81400641C3F1D27
:102EA00009988442FFF6B2AE304606990DF041F91A
:102EB0000646504605990DF03CF98246BBF1000FDD
:102EC00001D00498834409F1010908988145FFF66F
:102ED00099AE00BF00BF9BE74E6F74207375707092
:102EE0006F7274656420626C656E64206D6F6465DA
:102EF0003A20256400000000515705082E2E5C4C36
:102F000056474C5C6C76676C5C7372635C64726190
:102F1000775C73775C626C656E645C6C765F647220
:102F200061775F73775F626C656E645F746F5F7209
:102F300067623536352E63002DE9F14F8AB00A9865
:102F4000406809900A98806808900A9890F82100D3
:102F500007900A9806680A98C06806900A98D0F800
:102F600018A00A98C06905900A98D0F810B00A987D
:102F7000406904900A9890F82200002871D1BBF1B2
:102F8000000F2FD10798FD282CDB4FF0000925E01A
:102F90000024002713E036F814001DF06AFA80467A
:102FA0000AEB47014A781AF8170041461CF02CFF3B
:102FB00005461DF05EFA26F81400641C7F1C099873
:102FC0008442E8DB304606990DF0B6F806465046D6
:102FD00005990DF0B1F8824609F10109089881457B
:102FE000D6DB28E2BBF1000F32D10798FD282FDA9B
:102FF0004FF0000928E00024002716E036F81400FE
:103000001DF037FA80460AEB47014978079B594380
:103010000A121AF8170041461CF0F6FE05461DF08C
:1030200028FA26F81400641C7F1C09988442E5DB0A
:10303000304606990DF080F80646504605990DF089
:103040007BF8824609F1010908988145D3DBF2E15A
:10305000BBF1000F37D00798FD2834DB4FF0000993
:103060002DE06CE00024002718E036F814001DF075
:1030700000FA80460AEB470149781BF8043011FB3F
:1030800003F10A121AF8170041461CF0BDFE05466E
:103090001DF0EFF926F81400641C7F1C0998844287
:1030A000E3DB304606990DF047F806465046059991
:1030B0000DF042F882460498834409F1010908980A
:1030C0008145CFDBB7E1BBF1000F8AD00798FD281F
:1030D00087DA4FF000092EE0002400271AE036F8C6
:1030E00014001DF0C6F980460AEB470149781BF829
:1030F000043011FB03F1079B59430A141AF8170017
:1031000041461CF081FE05461DF0B3F926F8140077
:10311000641C7F1C09988442E1DB304606990DF05F
:103120000BF80646504605990DF006F882460498BD
:10313000834409F1010908988145CDDB7BE100203A
:103140000390814672E135463046099926F0D7FC56
:103150000024002755E11AF817004FEAE0081AF892
:103160001700801002900A9890F82200012806D0DB
:1031700002283DD0032878D004286FD198E035F894
:10318000140008EBD0201F2804DA35F8140008EBEF
:10319000D02000E01F204FF6FF7101EAC02003900D
:1031A00035F81400C0F34511029808443F2806DAA8
:1031B00035F81400C0F345110298084400E03F20A0
:1031C000039901EB401080B2039015F8140000F051
:1031D0001F0040441F2805DA15F8140000F01F00F6
:1031E000404400E01F200399084480B20390B7E0F8
:1031F00035F81400C8EBD020002804DD35F81400A1
:10320000C8EBD02000E000204FF6FF7101EAC0209B
:10321000039035F81400C0F345110298081A0028ED
:1032200006DD35F81400C0F345110298081A00E0D5
:103230000020039901EB401080B2039015F81400B0
:1032400000F01F00A0EB0800002808DD15F81400AE
:1032500000F01F00A0EB080002E006E070E0002094
:103260000399084480B203907AE035F81400C00A4C
:1032700000FB08F040114FF6FF7101EAC0200390F7
:1032800035F81400C0F345100299484381110398A2
:1032900000EB411080B2039015F8140000F01F00FD
:1032A00000FB08F0039901EB601080B2039057E037
:1032B00035F81400C8EBD020002804DD35F81400E0
:1032C000C8EBD02003E035F81400A8EBD0204FF66F
:1032D000FF7101EAC020039035F81400C0F34511D6
:1032E0000298081A002806DD35F81400C0F34511CD
:1032F0000298081A05E035F81400C0F34511029849
:10330000401A039901EB401080B2039015F81400A5
:1033100000F01F00A0EB0800002806DD15F81400DF
:1033200000F01F00A0EB080005E015F8140000F005
:103330001F00A8EB00000399084480B203900FE03F
:103340000A9890F822003DA1444B4FF42A72CDE92F
:103350000010434902202FF04BF90BB0BDE8F08F6D
:1033600000BFBBF1000F10D10798FD280DDB0AEB61
:103370004700427836F8141003981CF0C3F9019006
:103380001DF077F826F8140039E0BBF1000F13D1D7
:103390000798FD2810DA0AEB47004078079B58434E
:1033A000021236F8141003981CF0ACF901901DF0CD
:1033B00060F826F8140022E00798FD280CDB1BF8C3
:1033C000042036F8141003981CF09CF901901DF0AD
:1033D00050F826F8140012E01BF80400079B58432D
:1033E0000AEB47035B785843021436F8141003982D
:1033F0001CF088F901901DF03CF826F81400641CBC
:103400003F1D09988442FFF6A6AE304606990CF09F
:1034100093FE0646504605990CF08EFE8246BBF19F
:10342000000F01D00498834409F1010908988145EF
:10343000FFF689AE00BF00BF8FE700004E6F74201B
:10344000737570706F7274656420626C656E642051
:103450006D6F64653A20256400000000225805085D
:103460006C7D07082DE9F34F87B00646706806901B
:10347000B068059096F821B0D6F800A0F0680490E6
:10348000B769F0690390D6F810807069029096F8D9
:10349000220000287ED1B8F1000F23D1BBF1FD0F2F
:1034A00020DB00251AE04FF0000900240BE007EBB9
:1034B00044035A780AEB090117F814001CF0D6FCF3
:1034C00008988144641C06988442F0DB0498824486
:1034D000384603990CF033FE07466D1C059885426B
:1034E000E1DBCBE0B8F1000F26D1BBF1FD0F23DA11
:1034F00000251DE04FF0000900240EE007EB440317
:103500005B7803FB0BF31A120AEB090117F814009E
:103510001CF0ACFC08988144641C06988442EDDBE6
:1035200004988244384603990CF009FE07466D1C46
:1035300005988542DEDBA1E0B8F1000F2BD0BBF18E
:10354000FD0F28DB002521E04FF00009002410E0EA
:1035500007EB44035B7818F804C013FB0CF31A1252
:103560000AEB090117F814001CF080FC089881444C
:10357000641C06988442EBDB049882443846039925
:103580000CF0DDFD0746029880446D1C05988542CD
:10359000DADB73E02FE0B8F1000F6FD0BBF1FD0F65
:1035A0006CDA002523E04FF00009002412E007EB5D
:1035B00044035B7818F804C013FB0CF303FB0BF314
:1035C0001A140AEB090117F814001CF04FFC0898B4
:1035D0008144641C06988442E9DB0498824438469E
:1035E00003990CF0ACFD0746029880446D1C0598C9
:1035F0008542D8DB42E000253DE04FF00009002481
:1036000029E017F814008DF804008DF805008DF8F6
:103610000600B8F1000F08D107EB4400407800FB2A
:103620000BF000128DF807000BE007EB4400407828
:1036300018F8091010FB01F000FB0BF000148DF8D6
:10364000070096F822200AEB0900019904F030FAED
:1036500008988144641C06988442D2DBB8F1000FBC
:1036600001D00298804404988244384603990CF0B3
:1036700066FD07466D1C05988542BEDB09B0BDE8B6
:10368000F08F00007CB505460C4600BF601E204050
:1036900000280CD008A018A11E4B4FF4F672CDE9FB
:1036A00000101DA103202EF0A3FF00BFFEE700BF06
:1036B000601E2840281A7CBD30203D3D2028616CCA
:1036C00069676E20262028616C69676E202D203185
:1036D000292920262620226D75737420616C696764
:1036E0006E20746F206120706F776572206F662086
:1036F00074776F2200000000417373657274656413
:103700002061742065787072657373696F6E3A20FA
:1037100025730000204807082E2E5C4C56474C5C51
:103720006C76676C5C7372635C7374646C69625C06
:103730006275696C74696E5C6C765F746C73662E0E
:10374000630000007CB505460C46601E2844611EDF
:1037500020EA010600BF601E204000280CD008A00F
:1037600017A11E4B4FF4FA72CDE900101CA10320E3
:103770002EF03EFF00BFFEE700BF30467CBD0000DC
:1037800030203D3D2028616C69676E20262028612D
:103790006C69676E202D2031292920262620226D74
:1037A00075737420616C69676E20746F206120707E
:1037B0006F776572206F662074776F2200000000BB
:1037C00041737365727465642061742065787072EA
:1037D000657373696F6E3A20257300002B480708E4
:1037E0002E2E5C4C56474C5C6C76676C5C73726337
:1037F0005C7374646C69625C6275696C74696E5C3C
:103800006C765F746C73662E630000007CB50546B1
:103810000C4600BF601E204000280CD009A019A152
:103820001F4B4FF4F372CDE900101EA103202EF0C0
:10383000DFFE00BFFEE700BF601E2844611E884314
:103840007CBD000030203D3D2028616C69676E2002
:10385000262028616C69676E202D203129292026B9
:103860002620226D75737420616C69676E20746FF9
:10387000206120706F776572206F662074776F22E9
:1038800000000000417373657274656420617420E8
:1038900065787072657373696F6E3A2025730000E6
:1038A000174807082E2E5C4C56474C5C6C76676CAC
:1038B0005C7372635C7374646C69625C6275696C7E
:1038C00074696E5C6C765F746C73662E63000000C6
:1038D0003EB540202EF006FF044600BF002C0DD15F
:1038E00011A015A117A21F4BCDE900210290C02203
:1038F0001DA103202EF07CFE00BFFEE700BF4CB9E7
:1039000026A0184BC22218A1009003202EF070FEB2
:1039100000203EBD40252A46002120462FF076FAA1
:1039200000BF2046F5E700004F7574206F66206DDC
:10393000656D6F727900000072657320213D204E25
:10394000554C4C004173736572746564206174203A
:1039500065787072657373696F6E3A2025732028DD
:10396000257329009B4607082E2E5C4C56474C5C5D
:103970006C76676C5C7372635C6D6973635C6361C6
:103980006368655C636C6173735C6C765F636163D1
:1039900068655F6C72755F72622E63006D616C6C3E
:1039A0006F63206661696C65640000002DE9F04377
:1039B00085B004460D46904600BF002C0DD131A0C5
:1039C00034A137A23E4BCDE90021029098223DA1BF
:1039D00003202EF00DFE00BFFEE700BF00BF002D4C
:1039E0000DD128A044A12EA2354BCDE90021029093
:1039F000992234A103202EF0FBFD00BFFEE700BF9B
:103A000004B11DB9002005B0BDE8F083294604F1DA
:103A1000240038F0EFFF0490049800B92FE00498D8
:103A20000669304661681AF0F7FA074629463046BB
:103A300062682FF07FF804F130002EF0D4FC039080
:103A4000039800B913E0042204A903982FF072F838
:103A5000204604990EF0C0FC8146042203A92FF0F1
:103A600069F82146384662681AF0CEFB07E004F197
:103A70002400049938F072FE0020049000BF0498DE
:103A8000C1E700004E554C4C20706F696E74657232
:103A9000000000006C727520213D204E554C4C00FA
:103AA0004173736572746564206174206578707207
:103AB000657373696F6E3A2025732028257329007A
:103AC0008C4607082E2E5C4C56474C5C6C76676C17
:103AD0005C7372635C6D6973635C63616368655C8E
:103AE000636C6173735C6C765F63616368655F6C64
:103AF00072755F72622E63006B657920213D204EE6
:103B0000554C4C002DE9FE4F80460E4644460120A0
:103B1000E063002500270BE056F8270033A13BF0B7
:103B200063FB08B16D1C02E0E06B401CE0637F1C8E
:103B300056F8270020B156F8270000780028EBD16E
:103B4000A06BA84201D1BDE8FE8F206B20B1206B95
:103B500028F008FF00202063606B20B1606B28F024
:103B600001FF0020606328012EF0BCFD206300BF30
:103B7000206B00280ED11EA021A128A22F4BCDE939
:103B80000021029040F21A322DA103202EF030FDC8
:103B900000BFFEE700BF68002EF0A4FD606300BF19
:103BA000606B00280ED112A033A11CA2234BCDE9DB
:103BB000002102904FF4477221A103202EF018FD3E
:103BC00000BFFEE700BF206B08B1606B00B90025A5
:103BD0004FEA450AD4F834905246002148462FF067
:103BE00015F900BFA56300BFADE700000A000000A3
:103BF0004F7574206F66206D656D6F7279000000DF
:103C000062746E6D2D3E627574746F6E5F61726565
:103C1000617320213D204E554C4C0000417373656B
:103C2000727465642061742065787072657373695D
:103C30006F6E3A20257320282573290055520708F6
:103C40002E2E5C4C56474C5C6C76676C5C737263D2
:103C50005C776964676574735C627574746F6E6DAC
:103C600061747269785C6C765F627574746F6E6D86
:103C700061747269782E630062746E6D2D3E637498
:103C8000726C5F6269747320213D204E554C4C006C
:103C90002DE9FE4F074688469146F87A00F00F005E
:103CA00006280BD2DFE800F00A080304050600BF6F
:103CB00000BF00BF454603E04D4601E0402500BF80
:103CC00000BF05EB4500C01C20F003000C30E91CD0
:103CD00021F0030100EB010A50462EF003FD0446DB
:103CE00000BF002C0DD112A015A119A2204BCDE9C7
:103CF0000021029070221FA103202EF079FC00BF4A
:103D0000FEE700BF14B90020BDE8FE8F264634460A
:103D100006F10C00306005EB4500C01C20F00301EB
:103D200006F10C0008447060A5602046ECE7000036
:103D30004F7574206F66206D656D6F72790000009D
:103D40006974656D20213D204E554C4C00000000EB
:103D50004173736572746564206174206578707254
:103D6000657373696F6E3A202573202825732900C7
:103D7000925405082E2E5C4C56474C5C6C76676C52
:103D80005C7372635C647261775C73775C6C765FA2
:103D9000647261775F73775F677261642E6300009E
:103DA0007CB505460C4605F11401204617F057FA7C
:103DB00008B901207CBD00208DF8000001946A46FE
:103DC0001A21284637F00EF89DF8000008B90020A7
:103DD000F0E70120EEE7000010B5044694F85C001F
:103DE000C0F3400038B9606C28B1606C401C10B161
:103DF000606C401E6064606CD0B9E06B20B194F8D8
:103E00005C00C0F3400098B1214621482EF0A6FB8B
:103E100000F040F8206910B12046216988476069A8
:103E200010B1204661698847204628F09BFD2EE0AE
:103E3000002194F85C0020F0080084F85C00D4E9CC
:103E40000C20904202DDD4E90C20811A206C081A63
:103E50006063E06BD0B194F85C20C2F3400212B909
:103E6000A26B5242626394F85C205208D24394F8E9
:103E70005C3062F3410384F85C30606AE26A62623B
:103E8000E062206BE26B2263E06300BF00BF10BD05
:103E9000DC82002010B501201C4981F8A80001F146
:103EA000B0002EF06DFAB8B91848D0F8AC0028B1BF
:103EB0001649D1F8AC003FF0D7FC10BD134890F87C
:103EC000AA0040B10022124910461DF070FC0021EA
:103ED0000E4880F8AA10F0E70C48D0F8AC0028B1E2
:103EE0000A49D1F8AC003FF05BFDE6E7074890F8DF
:103EF000AA0040B90022064910461DF0DFF9012151
:103F0000024880F8AA1000BFD7E700002C820020EA
:103F1000D14000082DE9F04781466C4890F8A9008F
:103F200008B9012100E00021684880F8A910B030EC
:103F30002EF026FA0446C4E0206D3FF080FA0746D2
:103F400094F85C0000F0010040B3606D3FF077FA38
:103F50000546A06D401C20B1A06DA84201D80120EB
:103F600000E000200646C6B1A16D681A94F85C1006
:103F700021F0010184F85C10616B014461635349D5
:103F800091F8A91009B9012100E0002194F85C2002
:103F900061F3820284F85C2000BF02E0606B384469
:103FA00060633FF055FA20650020484981F8A80079
:103FB00094F85C0000F00100002871D194F85C00D6
:103FC000C0F38001414890F8A900814268D03F4881
:103FD00090F8A91014F85C0F61F38200207014F8B7
:103FE0005C09C0F3C00030BB606B002823DB94F891
:103FF0005C00C0F3001060B9A06950B12046A1690F
:1040000088470546606A28446062E06A2844E062A6
:1040100000BF204643F066F9E06810B12046E16831
:10402000884794F85C0020F00800083084F85C00B1
:10403000204642F0F9FE606B002831DBD4F8348072
:10404000D4E90C10884201DD206B6063666B20466A
:10405000216A88470546A16AA94210D0A562606816
:1040600018B12946D4E900029047184890F8A800F2
:1040700028B9A06818B129462046A268904713487D
:1040800090F8A80058B9606BB04201D1C4F83480F0
:10409000D4E90C10884202DB2046FFF79DFE00BFEA
:1040A0000A4890F8A80028B10848B0302EF068F906
:1040B000044605E021460548B0302EF079F9044663
:1040C00000BF002C7FF438AFBDE8F0872C820020C1
:1040D00010B504460020FFF71DFF10BD2DE9F04F7D
:1040E000A7B00546EC6920682690002213A8E96E67
:1040F00029F0CCFE0E900E98012802D11E980028BF
:1041000012D10E98012802D113A829F001FE6CA04B
:10411000774B40F2C63277A1009002202EF068FA69
:10412000012027B0BDE8F08F1E980088C0F307205B
:104130000E2813D01E980088C0F3072006280DD043
:1041400013A829F0E5FD76A0694B40F2CD3269A1B4
:10415000009002202EF04CFA0120E2E71E9E3089EA
:104160001FFA80FB05F15C000FC80AAF0FC70121E1
:104170007068C1EB10400090B08880B2431E0022EE
:1041800011460FA817F099F90020034609220FA93C
:1041900000900AA816F026FDD4E90713D4E9050219
:1041A000CDE90C13CDE90A020AAA0FA906A816F058
:1041B000D5FF20B913A829F0ABFD0020B1E70020FE
:1041C00002900390049005902068808880B2401E81
:1041D00004900798401E0B99401A059002A9206888
:1041E0001DF0A4FF0998401C0B99401A0390206809
:1041F00040680121C1EB1040059002A920681DF024
:1042000095FF0020039002900698401E0A99401ADC
:10421000049002A920681DF089FF0898401C0A99A3
:10422000401A02902068808880B2401E049002A943
:1042300020681DF07BFF0B9B0798C21A0A9B06980B
:10424000C11A26981EF026FC0746DDF840C0079BE1
:10425000A3EB0C02DDF83CC0069BA3EB0C011E98FF
:104260001EF018FC804606A816F052FF019006A822
:1042700016F061FF81464FF0000A18E000200DE0C3
:1042800018F80010032202EB8002BA5C11FB02F165
:104290000912032202EB8002B954401C4845EFDBAF
:1042A0002168098989B20F44D8440AF1010A0198AA
:1042B0008245E3DB13A829F02BFD012031E7000044
:1042C000436F756C64206F70656E20746865206D37
:1042D00061736B2E20546865206D61736B20697368
:1042E000206E6F74206170706C6965642E00000030
:1042F000F75405082E2E5C4C56474C5C6C76676C68
:104300005C7372635C647261775C73775C6C765F1C
:10431000647261775F73775F696D672E6300000079
:10432000546865206D61736B20696D6167652069F4
:1043300073206E6F742041382F4C3820666F726D79
:1043400061742E20546865206D61736B2069732041
:104350006E6F74206170706C6965642E00000000DF
:1043600070B504460D46606818B129466068FFF7CD
:10437000F7FF206818B1294620462268904770BD93
:1043800070B505460C4626682068006858B120685C
:10439000006AC0F3005030B12068006820602146F8
:1043A0002846FFF7EDFF266021462846FFF7D8FF95
:1043B00070BD70B504460D462946204616F046FAF3
:1043C00070BD70B504460D462946204616F01EFB0A
:1043D00070BD2DE9F04F89B00646D6F804B0B0683C
:1043E000089096F82190D6F800A0F0680790D6F8CB
:1043F0001880F069069037697069059003A81BF072
:104400007FFF96F8220000287DD15FBBB9F1FD0F38
:1044100028DB002522E0002413E008EB840000687C
:1044200001901BF050F98DF8080008EB8400C0786B
:104430008DF809000AEB440103AA02981BF088F9E1
:10444000641C5C45E9DB504607990BF063FE82462D
:10445000404606990BF05EFE80466D1C089885422A
:10446000D9DBDCE077BBB9F1FD0F2CDA002525E0C4
:10447000002416E008EB8400006801901BF023F98B
:104480008DF8080008EB8400C07800FB09F00012EA
:104490008DF809000AEB440103AA02981BF058F9B1
:1044A000641C5C45E6DB504607990BF033FE824600
:1044B000404606990BF02EFE80466D1C08988542FA
:1044C000D6DBACE0FFE79FB3B9F1FD0F31DB002590
:1044D0002AE0002419E008EB8400006801901BF03A
:1044E000F2F88DF8080008EB8400C078395D10FB05
:1044F00001F000128DF809000AEB440103AA0298AA
:104500001BF026F900E04AE0641C5C45E3DB504602
:1045100007990BF0FFFD8246404606990BF0FAFD25
:104520008046059807446D1C08988542D1DB76E0EB
:10453000FFE7002F73D0B9F1FD0F70DA00252AE0F4
:10454000002419E008EB8400006801901BF0BBF820
:104550008DF8080008EB8400C078395D10FB01F08D
:1045600000FB09F000148DF809000AEB440103AACE
:1045700002981BF0EDF8641C5C45E3DB504607999C
:104580000BF0C8FD8246404606990BF0C3FD8046FD
:10459000059807446D1C08988542D1DB3FE0002553
:1045A0003AE0002428E008EB8400006801901BF04A
:1045B0008AF88DF8080008EB8400C0788DF80900AF
:1045C0003FB99DF8090000FB09F000128DF80900C1
:1045D00009E09DF80900395D10FB01F000FB09F0CE
:1045E00000148DF8090096F822200AEB440003AB72
:1045F000029902F0B1FF641C5C45D4DB0FB1059851
:104600000744504607990BF085FD824640460699BF
:104610000BF080FD80466D1C08988542C1DB09B017
:10462000BDE8F08F2DE9F04F8DB00646D6F804B006
:10463000B0680C9096F82190D6F80080F0680B9046
:10464000D6F818A0F0690A9037697069099004A833
:104650001BF068FE96F8220000287DD14FBBB9F10F
:10466000FD0F26DB002520E0002411E008EB84008C
:10467000006802900AEB8400006804AA0190029985
:104680001BF03CFA039008EB840003990160641C62
:104690005C45EBDB40460B990BF03FFD80465046F6
:1046A0000A990BF03AFD82466D1C0C988542DBDBC3
:1046B000DBE08FBBB9F1FD0F2FDA002528E00024E5
:1046C00019E00AEB8400006808909DF8230000FBC5
:1046D00009F000128DF8230008EB8400006804AA9A
:1046E0000146029008981BF009FA039008EB840039
:1046F00003990160641C5C45E3DB40460B990BF0B9
:104700000CFD804650460A990BF007FD82466D1C51
:104710000C988542D3DBA8E0FFE7B7B3B9F1FD0FF2
:1047200034DB00252DE000241CE00AEB8400006847
:1047300008909DF82300395D10FB01F000128DF800
:10474000230008EB8400006804AA01460290089840
:104750001BF0D4F9039000E050E008EB84000399CB
:104760000160641C5C45E0DB40460B990BF0D5FC16
:10477000804650460A990BF0D0FC824609980744BF
:104780006D1C0C988542CEDB6FE0FFE7002F6CD0EC
:10479000B9F1FD0F69DA00252CE000241BE00AEBDB
:1047A0008400006808909DF8230000FB09F0395D43
:1047B000484300148DF8230008EB8400006804AA25
:1047C0000146029008981BF099F9039008EB8400C9
:1047D00003990160641C5C45E1DB40460B990BF0DA
:1047E0009CFC804650460A990BF097FC824609983B
:1047F00007446D1C0C988542CFDB36E0002531E084
:1048000000241FE00AEB8400006808903FB99DF87F
:10481000230000FB09F000128DF8230009E09DF849
:104820002300395D10FB01F000FB09F000148DF846
:10483000230096F8222008EB840004AB089902F0CC
:104840001DFF641C5C45DDDB0FB109980744404641
:104850000B990BF062FC804650460A990BF05DFC08
:1048600082466D1C0C988542CADB0DB0BDE8F08F06
:104870002DE9F04F8DB00746D7F804B0B8680C901A
:1048800097F821903D68F8680B90D7F818A0F86960
:104890000A90D7F810807869099004A81BF055FD9C
:1048A00097F82200002873D1B8F1000F72D1B9F146
:1048B000FD0F6FDB002667E0002458E00AEB840060
:1048C000006808909DF82300FD2807DBFF208DF885
:1048D000230005EB84000899016047E09DF8230060
:1048E000022843DD05EB840080789DF82210884281
:1048F00013D105EB840040789DF8211088420CD13B
:1049000015F824009DF82010884206D105EB84009C
:10491000C0789DF82310884228D09DF822009DF889
:10492000231010FB01F000128DF822009DF82100E9
:104930009DF8231010FB01F000128DF821009DF866
:1049400020009DF8231010FB01F000128DF82000CC
:1049500005EB8400006804AA0146029008981BF049
:104960007BF9039005EB840003990160641C5C45AE
:10497000A4DB28460B990BF0D3FB054650460A9959
:104980000BF0CEFB8246761C0C98864294DBD2E17B
:104990007AE1FFE7B8F1000F78D1B9F1FD0F75DAD0
:1049A00000266EE000245FE00AEB840000680890B7
:1049B0009DF8230000FB09F0001203900398FD28E6
:1049C00007DBFF208DF8230005EB840008990160C8
:1049D00049E00398022846DD05EB840080789DF8C5
:1049E0002210884213D105EB840040789DF82110F5
:1049F00088420CD115F824009DF82010884206D179
:104A000005EB8400C0789DF8231088422BD00398D2
:104A10008DF823009DF822009DF8231010FB01F073
:104A200000128DF822009DF821009DF8231010FB44
:104A300001F000128DF821009DF820009DF8231050
:104A400010FB01F000128DF8200005EB84000068D7
:104A500004AA0146019008981BF0FEF8029005EBAD
:104A6000840002990160641C5C459DDB28460B991B
:104A70000BF056FB054650460A990BF051FB824657
:104A8000761C0C9886428DDB55E1FFE7B8F1000FEC
:104A90007BD0B9F1FD0F78DB002671E0002460E0E7
:104AA0000AEB8400006808909DF8230018F80410B1
:104AB00010FB01F0001203900398FD2807DBFF2094
:104AC0008DF8230005EB84000899016048E0039805
:104AD000022845DD05EB840080789DF8221088428D
:104AE00013D105EB840040789DF8211088420CD149
:104AF00015F824009DF82010884206D105EB8400AB
:104B0000C0789DF8231088422AD003988DF823009E
:104B10009DF822009DF8231010FB01F000128DF883
:104B200022009DF821009DF8231010FB01F00012D7
:104B30008DF821009DF820009DF8231010FB01F056
:104B400000128DF8200005EB8400006804AA0146DD
:104B5000019008981BF080F805EB84010290086032
:104B6000641C5C459CDB28460B990BF0D9FA054682
:104B700050460A990BF0D4FA824609988044761C74
:104B80000C9886428ADBD6E0FFE7B8F1000FFAD036
:104B9000B9F1FD0FF7DA002672E0002461E00AEBBC
:104BA0008400006808909DF8230000FB09F018F8C5
:104BB00004104843001403900398FD2807DBFF20EE
:104BC0008DF8230005EB84000899016048E0039804
:104BD000022845DD05EB840080789DF8221088428C
:104BE00013D105EB840040789DF8211088420CD148
:104BF00015F824009DF82010884206D105EB8400AA
:104C0000C0789DF8231088422AD003988DF823009D
:104C10009DF822009DF8231010FB01F000128DF882
:104C200022009DF821009DF8231010FB01F00012D6
:104C30008DF821009DF820009DF8231010FB01F055
:104C400000128DF8200005EB8400006804AA0146DC
:104C5000019008981BF000F805EB840102900860B1
:104C6000641C5C459BDB28460B990BF059FA054602
:104C700050460A990BF054FA824609988044761CF3
:104C80000C98864289DB56E0002651E000243DE086
:104C90000AEB840000680890B8F1000F07D19DF876
:104CA000230000FB09F000128DF823000AE09DF8B4
:104CB000230018F8041010FB01F000FB09F00014A9
:104CC0008DF823009DF822009DF8231010FB01F0C1
:104CD00000128DF822009DF821009DF8231010FB92
:104CE00001F000128DF821009DF820009DF823109E
:104CF00010FB01F000128DF8200097F8222005EB40
:104D0000840004AB089902F0D5FF641C5C45BFDB4E
:104D1000B8F1000F01D00998804428460B990BF098
:104D2000FFF9054650460A990BF0FAF98246761CBF
:104D30000C988642AADB0DB0BDE8F08F2DE9F04F4C
:104D400089B00646D6F804B0B068089096F821A05D
:104D500030680790F0680690D6F81890F0690590D2
:104D6000D6F8108070690490706AC11700EB517119
:104D7000C910A0EBC10796F8220000287ED1B8F137
:104D8000000F3BD1BAF1FD0F38DB002532E00024E3
:104D900023E009EB8400006801901AF094FC039072
:104DA000E11907980CF08FFBC0EB0020C0B2029015
:104DB00009EB8400C27802A903981BF09FF89DF8C4
:104DC00008007F2804DDE119079848F059FB03E04B
:104DD000E119079805F05EFD641C5C45D9DBDDE94F
:104DE00006100BF0A0F90790484605990BF09BF9C7
:104DF00081466D1C08988542C9DB0BE1B8F1000FB4
:104E000040D1BAF1FD0F3DDA002535E0002426E05F
:104E100009EB8400006801901AF055FC0390E11939
:104E200007980CF050FBC0EB0020C0B2029009EBD9
:104E30008400C07800FB0AF0021202A903981BF05C
:104E40005DF89DF808007F2804DDE119079848F017
:104E500017FB03E0E119079805F01CFD641C5C4595
:104E6000D6DBDDE906100BF05EF9079048460599A0
:104E70000BF059F981466D1C089800E08FE08542DF
:104E8000C4DBC7E0B8F1000F42D0BAF1FD0F3FDB41
:104E9000002539E0002428E009EB84000068019037
:104EA0001AF011FC0390E11907980CF00CFBC0EB11
:104EB0000020C0B2029018F8040009EB8401C97800
:104EC00010FB01F0021202A903981BF017F89DF8DD
:104ED00008007F2804DDE119079848F0D1FA03E0C3
:104EE000E119079805F0D6FC641C5C45D4DBDDE9CC
:104EF00006100BF018F90790484605990BF013F9C6
:104F00008146049880446D1C08988542C2DB81E08C
:104F1000B8F1000F7ED0BAF1FD0F7BDA00253AE040
:104F2000002429E009EB8400006801901AF0CBFB13
:104F30000390E11907980CF0C6FAC0EB0020C0B24C
:104F4000029018F8040000FB0AF009EB8401C9780C
:104F50004843021402A903981AF0D0FF9DF80800F4
:104F60007F2804DDE119079848F08AFA03E0E11987
:104F7000079805F08FFC641C5C45D3DBDDE9061067
:104F80000BF0D1F80790484605990BF0CCF8814614
:104F9000049880446D1C08988542C1DB3AE00025E6
:104FA00035E0002421E009EB840000680390B8F1AB
:104FB000000F07D19DF80F0000FB0AF000128DF8DA
:104FC0000F000AE09DF80F0018F8041010FB01F024
:104FD00000FB0AF000148DF80F0096F82230E1195A
:104FE000039A079802F054FC641C5C45DBDBB8F1C3
:104FF000000F01D004988044DDE906100BF093F80F
:105000000790484605990BF08EF881466D1C08986C
:105010008542C6DB09B0BDE8F08F2DE9F04F87B0BF
:105020000646D6F804B0B068069096F82190D6F8F7
:1050300000A0F0680590D6F81880F06904903769F0
:105040007069039096F8220000287ED13FBBB9F129
:10505000FD0F24DB00251EE000240FE008EB840098
:10506000006801901AF02FFB029008EB8400C278D0
:105070000AEB040102981AF054FF641C5C45EDDB56
:10508000504605990BF052F88246404604990BF0C1
:105090004DF880466D1C06988542DDDBC4E057BBA9
:1050A000B9F1FD0F27DA002521E0002412E008EB1A
:1050B0008400006801901AF006FB029008EB84005F
:1050C000C07800FB09F002120AEB040102981AF002
:1050D00028FF641C5C45EADB504605990BF026F876
:1050E0008246404604990BF021F880466D1C0698D4
:1050F0008542DADB98E04FB3B9F1FD0F2DDB0025D7
:1051000027E0002413E008EB8400006801901AF007
:10511000DAFA029008EB8400C0783B5D10FB03F0E4
:1051200002120AEB040102981AF0FBFE641C5C45B3
:10513000E9DB504605990AF0F9FF8246404604999A
:105140000AF0F4FF8046039801E037E005E00744E9
:105150006D1C06988542D4DB66E0002F64D0B9F15F
:10516000FD0F61DA002525E0002414E008EB84003F
:10517000006801901AF0A7FA029008EB8400C0784A
:1051800000FB09F03B5D584302140AEB040102984E
:105190001AF0C7FE641C5C45E8DB504605990AF02E
:1051A000C5FF8246404604990AF0C0FF8046039836
:1051B00007446D1C06988542D6DB35E0002530E0BB
:1051C00000241EE008EB8400006802903FB99DF8BF
:1051D0000B0000FB09F000128DF80B0009E09DF8B0
:1051E0000B00395D10FB01F000FB09F000148DF895
:1051F0000B0096F822200AEB0400029902F0E0FB73
:10520000641C5C45DEDB0FB10398074450460599EA
:105210000AF08CFF8246404604990AF087FF8046D8
:105220006D1C06988542CBDB07B0BDE8F08F00000F
:105230002DE9F04F89B08346DBF804000890DBF8D5
:10524000080007909BF821000690DBF80080DBF84F
:105250000C000590DBF81860DBF81C000490DBF80C
:1052600010A0DBF8140003909BF8220000287DD1E9
:10527000BAF1000F23D10698FD2820DB4FF000097A
:1052800019E0002400250AE0EB1CF25C38F8141049
:1052900070191AF011FB28F81400641C2D1D0898D1
:1052A0008442F1DB404605990AF043FF80460498AA
:1052B000064409F1010907988145E2DB16E2BAF1DB
:1052C000000F26D10698FD2823DA4FF000091CE0D4
:1052D000002400250DE0EB1CF35C069F7B431A12B3
:1052E00038F8141070191AF0E7FA28F81400641C42
:1052F0002D1D08988442EEDB404605990AF019FFFF
:1053000080460498064409F1010907988145DFDBCE
:10531000ECE1BAF1000F2CD00698FD2829DB4FF004
:10532000000920E0002400250FE0EB1CF35C1AF8D4
:10533000047013FB07F31A1238F8141070191AF0DE
:10534000BBFA28F81400641C2D1D08988442ECDB7D
:10535000404605990AF0EDFE8046049806440398FD
:10536000824409F101090798814500E031E0D9DB69
:10537000BCE1BAF1000FA1D00698FD289EDA4FF0EB
:10538000000922E00024002511E0EB1CF35C1AF870
:10539000047013FB07F3069F7B431A1438F81410AC
:1053A00070191AF089FA28F81400641C2D1D089849
:1053B0008442EADB404605990AF0BBFE8046049829
:1053C00006440398824409F1010907988145D9DB15
:1053D0008CE100200290814683E1474600240025AD
:1053E0006DE19BF82200012806D002284BD003284B
:1053F00073D0042872D1B7E037F81400C10AA81C92
:10540000305C01EBE0001F2807DA37F81400C10A0E
:10541000A81C305C01EBE00000E01F204FF6FF719C
:1054200001EAC020029037F81400C0F34511681C4F
:10543000305C01EBA0003F2808DA37F81400C0F315
:105440004511681C305C01EBA00000E03F20029990
:1054500001EB401080B2029017F8140000F01F001A
:10546000715D00EBE1001F2807DA17F8140000F067
:105470001F00715D00EBE10000E01F20029908446D
:1054800080B20290D9E037F81400C10AA81C305C41
:10549000A1EBE000002807DD37F81400C10AA81CC2
:1054A000305CA1EBE00000E000204FF6FF7101EA64
:1054B000C020029037F81400C0F34511681C305C1E
:1054C000A1EBA00000280ADD37F81400C0F3451155
:1054D000681C305CA1EBA00002E01DE09EE0002013
:1054E000029901EB401080B2029017F8140000F00E
:1054F0001F00715DA0EBE100002807DD17F8140024
:1055000000F01F00715DA0EBE10000E000200299B7
:10551000084480B2029090E037F81400C10AA81C39
:10552000305CC01011FB00F04011C002029037F84F
:105530001400C0F34511681C305C801011FB00F0B2
:105540008111029800EB411080B2029017F814000C
:1055500000F01F00715DC91010FB01F1029800EB13
:10556000611080B2029068E037F81400C10AA81CEC
:10557000305CA1EBE000002807DD37F81400C10A19
:10558000A81C305CA1EBE00006E0A81C305CC01059
:1055900037F81410A0EBD1204FF6FF7101EAC020BC
:1055A000029037F81400C0F34511681C305CA1EB81
:1055B000A000002808DD37F81400C0F34511681C6E
:1055C000305CA1EBA00007E037F81400C0F34511F0
:1055D000681C305CC1EBA000029901EB401080B266
:1055E000029017F8140000F01F00715DA0EBE100BD
:1055F000002807DD17F8140000F01F00715DA0EB14
:10560000E10006E017F8140000F01F00715DC0EB28
:10561000E1000299084480B202900EE09BF822005B
:1056200033A13B4B40F2F542CDE9001039A10220F5
:105630002CF0DEFF09B0BDE8F08F00BFBAF1000F1B
:105640000CD10698FD2809DBE81C325C38F81410F0
:1056500002981AF057F828F814002EE0BAF1000F5B
:105660000FD10698FD280CDAE81C305C069B5843E5
:10567000021238F8141002981AF044F828F81400AE
:105680001BE00698FD2809DB1AF8042038F81410EE
:1056900002981AF037F828F814000EE01AF80400FF
:1056A000069B5843EB1CF35C5843021438F8141063
:1056B00002981AF027F828F81400641C2D1D089889
:1056C0008442FFF68EAE404605990AF032FD8046D0
:1056D00004980644BAF1000F01D00398824409F1FE
:1056E000010907988145FFF678AE00BF00BFA1E72A
:1056F0004E6F7420737570706F7274656420626C85
:10570000656E64206D6F64653A20256400000000BA
:10571000B25705082E2E5C4C56474C5C6C76676C75
:105720005C7372635C647261775C73775C626C65F6
:105730006E645C6C765F647261775F73775F626CD6
:10574000656E645F746F5F7267623536352E630015
:105750002DE9F04F89B08346DBF804000890DBF8B0
:10576000080007909BF821000690DBF80080DBF82A
:105770000C000590DBF81860DBF81C000490DBF8E7
:1057800010A0DBF8140003909BF8220000287CD1C5
:10579000BAF1000F2AD10698FD2827DB4FF0000947
:1057A00020E00024002511E038F814001AF061FE12
:1057B000E91C0290725C701902991AF0B5F807465C
:1057C0001AF057FE28F81400641C2D1D0898844216
:1057D000EADB404605990AF0AFFC8046049806448F
:1057E00009F1010907988145DBDB3BE2BAF1000FC3
:1057F0002DD10698FD282ADA4FF0000923E0002475
:10580000002514E038F814001AF033FEE91C029069
:10581000715C069B59430A12701902991AF084F8B8
:1058200007461AF026FE28F81400641C2D1D08985F
:105830008442E7DB404605990AF07EFC80460498E6
:10584000064409F1010907988145D8DB0AE2BAF15B
:10585000000F33D00698FD2830DB4FF0000929E017
:105860000024002518E038F814001AF002FEE91CA4
:105870000290715C1AF8043011FB03F10A127019DE
:1058800002991AF051F8074600E04EE01AF0F1FDD7
:1058900028F81400641C2D1D08988442E3DB404660
:1058A00005990AF049FC804604980644039882440E
:1058B00009F1010907988145D2DBD3E1BAF1000F64
:1058C00093D00698FD2890DA4FF0000929E00024D3
:1058D000002518E038F814001AF0CBFDE91C0290FE
:1058E000715C1AF8043011FB03F1069B59430A144A
:1058F000701902991AF018F807461AF0BAFD28F83C
:105900001400641C2D1D08988442E3DB4046059971
:105910000AF012FC8046049806440398824409F178
:10592000010907988145D2DB9CE100200290814665
:1059300093E147464046089924F0E1F80024002509
:1059400079E19BF82200012806D002284BD00328D9
:1059500073D0042872D1B7E037F81400C10AA81C2C
:10596000305C01EBE0001F2807DA37F81400C10AA9
:10597000A81C305C01EBE00000E01F204FF6FF7137
:1059800001EAC020029037F81400C0F34511681CEA
:10599000305C01EBA0003F2808DA37F81400C0F3B0
:1059A0004511681C305C01EBA00000E03F2002992B
:1059B00001EB401080B2029017F8140000F01F00B5
:1059C000715D00EBE1001F2807DA17F8140000F002
:1059D0001F00715D00EBE10000E01F200299084408
:1059E00080B20290D9E037F81400C10AA81C305CDC
:1059F000A1EBE000002807DD37F81400C10AA81C5D
:105A0000305CA1EBE00000E000204FF6FF7101EAFE
:105A1000C020029037F81400C0F34511681C305CB8
:105A2000A1EBA00000280ADD37F81400C0F34511EF
:105A3000681C305CA1EBA00002E01DE09EE00020AD
:105A4000029901EB401080B2029017F8140000F0A8
:105A50001F00715DA0EBE100002807DD17F81400BE
:105A600000F01F00715DA0EBE10000E00020029952
:105A7000084480B2029090E037F81400C10AA81CD4
:105A8000305CC01011FB00F04011C002029037F8EA
:105A90001400C0F34511681C305C801011FB00F04D
:105AA0008111029800EB411080B2029017F81400A7
:105AB00000F01F00715DC91010FB01F1029800EBAE
:105AC000611080B2029068E037F81400C10AA81C87
:105AD000305CA1EBE000002807DD37F81400C10AB4
