:020000040800F2
:10000000C8BA00206D02000825160008770A00080B
:1000100021160008C10800082F2300080000000076
:10002000000000000000000000000000ED1E0008BD
:100030003509000800000000B51600083920000846
:10004000870200088702000887020008870200086C
:10005000870200088702000887020008870200085C
:10006000870200088702000887020008870200084C
:10007000870200088702000887020008870200083C
:10008000870200088702000887020008870200082C
:10009000870200088702000887020008870200081C
:1000A000870200088702000887020008870200080C
:1000B000A5200008870200088702000887020008C0
:1000C00087020008870200088702000887020008EC
:1000D0008702000887020008F12000088702000854
:1000E00087020008870200088702000887020008CC
:1000F00087020008870200088702000887020008BC
:1001000087020008870200088702000887020008AB
:10011000870200088702000887020008870200089B
:10012000870200088702000887020008870200088B
:10013000870200080000000000000000870200089D
:10014000870200088702000887020008870200086B
:10015000870200088702000887020008870200085B
:10016000870200088702000887020008870200084B
:1001700087020008870200088702000800000000CC
:1001800000000000870200080000000000000000DE
:10019000870200080000000000000000870200083D
:1001A00000000000000000000000000087020008BE
:1001B00087020008870200088702000887020008FB
:1001C0008702000800F002F800F041F80AA090E869
:1001D000000C82448344AAF10107DA4501D100F002
:1001E00036F8AFF2090EBAE80F0013F0010F18BF8E
:1001F000FB1A43F001031847FC4203001C430300B1
:10020000103A24BF78C878C1FAD8520724BF30C842
:1002100030C144BF04680C60704700000023002414
:1002200000250026103A28BF78C1FBD8520728BF06
:1002300030C148BF0B607047782900F06D80002006
:1002400070471FB507F08FFB1FBD10B510BD00F044
:100250001BFA1146FFF7F5FF05F07AFF00F039FAB7
:1002600003B4FFF7F2FF03BC02F06AF809488047C5
:1002700009480047FEE7FEE7FEE7FEE7FEE7FEE788
:10028000FEE7FEE7FEE7FEE704480549054A064BA0
:10029000704700003D200008C5010008C8B40020D8
:1002A000C8BA0020C8B60020C8B6002070470000B9
:1002B0000FB4044910B503AA029800F0B7F910BCB6
:1002C0005DF814FB2800002070B5044685690068BD
:1002D000C10601D5302600E02026C00707D070BD3A
:1002E000D4E9012130469047206A401C20626D1EEF
:1002F000F6D570BD70B5044685690078C00707D192
:1003000070BDD4E9012120209047206A401C206262
:100310006D1EF6D570BD000070B504460D46214631
:100320001068AFF300802188090502D50F4A7A448E
:1003300002E00E4A7A440E32002104F1240305E063
:1003400000F00F060009965D5E54491C0028F7D1A5
:1003500020780023000704D5702D02D009B10223B4
:1003600011322046BDE8704000F006B9224103007A
:100370002DE9F05F894604464FF0000ADFF824B10A
:10038000FB44C0F820A02046E168884700287DD0C3
:10039000252806D0D4E901219047206A401C20621C
:1003A000F1E700255F462046E16888472028064699
:1003B00007DB312E05D2B81910F8200C08B105431F
:1003C000F1E7A80701D525F00405C4F81CA0002713
:1003D000C4F818A02A2E09D0304601F0AAFF38B37D
:1003E00004EB8708303EC8F8186019E059F8041B80
:1003F000204604EB87029161E1688847012F064699
:1004000018D1E069002820DA25F020051DE0D8F891
:10041000180000EB800006EB40003038C8F81800E8
:100420002046E1688847064601F083FF0028EED1A8
:10043000012F0AD02E2E08D12046E16888477F1C64
:100440000646022F45F02005C4DBA069002803DA28
:10045000404245F00105A061E80701D025F01005F4
:10046000A6B1A6F14100192802D8203645F400654E
:100470004A463146204625604D46FFF7DDFE60B115
:10048000012807D0ED1D25F0070000E007E000F18E
:10049000080978E705F1040975E730467AE7206A2C
:1004A000BDE8F09FF840030040EA0103024630B582
:1004B0009B0710D14FF0013400E008C208C91D1B92
:1004C0009D4315EAC41FF8D013F0FF0102F8011B89
:1004D0000DD01B0AF8E711F8013B002B02F8013B95
:1004E00005D011F8013B002B02F8013BF3D130BDE0
:1004F0004FF0013C50F8042B51F8043B9A4221D1B3
:10050000A2EB0C03934313EACC1317D150F8042B3E
:1005100051F8043B9A4215D1A2EB0C03934313EA22
:10052000CC130BD150F8042B51F8043B9A4209D15B
:10053000A2EB0C03934313EACC13DBD04FF0000083
:10054000704700BFD01A01BAB1FA81F101F0180169
:1005500022FA01F0CB40C1F12001DBB2C0B2C01AD7
:100560002CFA01F3D11A914311EAC311E6D1704775
:1005700070477047704770472DE9F0470D46994620
:100580009246044600F124080168880604D5E06913
:1005900021F01001216000E00120A84201DD471B8D
:1005A00000E00027A1697A1902EB0900081AA0618E
:1005B0002078C00602D42046FFF786FE002608E019
:1005C000D4E901211AF806009047206A401C761CE5
:1005D00020624E45F4DB2078C0060AD52046FFF79E
:1005E00073FE06E0D4E9012130209047206A401CC8
:1005F0002062381EA7F10107F4DC07E0D4E90121ED
:1006000018F805009047206A401C2062281EA5F1BA
:100610000105F3DC2046FFF76DFE2078000602D5C9
:100620000220BDE8F0870120FBE70000074B70B512
:100630000D467B4400F011F80446284600F020F8EF
:1006400010B14FF0FF3070BD204670BD3B4100003F
:1006500001694A1C02610878704700B58FB0CDE986
:1006600001310021059105497944CDE90310114676
:100670006846FFF77DFE0FB000BD0000E5FFFFFFFD
:10068000007B00F080007047754600F02BF8AE4606
:1006900005006946534620F00700854618B020B58E
:1006A000FFF7F2FDBDE820404FF000064FF00007D5
:1006B0004FF000084FF0000B21F00701AC46ACE80A
:1006C000C009ACE8C009ACE8C009ACE8C0098D4677
:1006D000704710B50446AFF300802046BDE81040D7
:1006E000FFF7BEBD0048704768B4002021B18268A2
:1006F00042F00102826003E0826822F0010282601F
:10070000704710B50121080201F006F800214FF4EE
:10071000807001F001F810BD0146C86C80B27047CE
:100720000246002013680B400BB1012000E00020BE
:100730007047000030B50246002000235068104C7E
:1007400020400D790C6844EA0524204350609068ED
:100750000C4C2040D1E903542C438D682C434D7937
:1007600044EA450420439060D06A20F470000C7D78
:10077000641EE4B2234340EA0350D06230BD00005F
:10078000FFFEFFFCFDF7FFC0F0B504460D4600205C
:100790000021092D11DDE068A5F10A0606EB4607E8
:1007A000072606FA07F18843A5F10A0606EB460676
:1007B00003FA06F10843E0600CE0206905EB450709
:1007C000072606FA07F1884305EB450603FA06F10A
:1007D00008432061072A0FDA606B561E06EB860776
:1007E0001F2606FA07F18843561E06EB860605FA11
:1007F00006F10843606322E00D2A0FDA206BD61F52
:1008000006EB86071F2606FA07F18843D61F06EB7C
:10081000860605FA06F10843206310E0E06AA2F1BB
:100820000D0606EB86071F2606FA07F18843A2F19C
:100830000D0606EB860605FA06F10843E062F0BDF8
:10084000816841F0804181607047000000B589B047
:100850000121080200F050FF0121084600F02CFFA2
:1008600003208DF8080000208DF80A0003208DF881
:10087000090000208DF80B001220019001A90E48FC
:1008800000F059F8FFF73DFF4FF080700390002013
:100890008DF810008DF811000590079001208DF85B
:1008A000200003A90548FFF745FF01210348FFF792
:1008B0001DFF09B000BD0000000002400020014003
:1008C00000BFFEE700F00101154A1160401000F082
:1008D0000101144AC2F89C12401000F00101104AB4
:1008E000121D1160401000F001010F4AC2F88C1275
:1008F000401000F001010D4A1160401000F00101AC
:10090000094AC2F89012401000F00101C2F8A81282
:10091000401000F00101064AC2F8A0127047000022
:10092000A402404200004142008040429482404282
:10093000000040427047F0B50A4600210023002421
:1009400000BF3DE0012505FA01F3156805EA03043F
:100950009C4234D105684F000326BE40B543056074
:1009600015794E00B5400668354305601579012DAF
:1009700002D01579022D16D185684F000326BE409E
:10098000B543856055794E00B5408668354385602E
:10099000456801268E40B5434560456896798E408E
:1009A000B6B235434560C5684F000326BE40B54327
:1009B000C560D5794E00B540C6683543C560491C51
:1009C0001029BFD3F0BDF0B5002300244D07ED0E74
:1009D00002FA05F3CE1000F1200555F826504E0717
:1009E000F70E0F26BE40B543CF1000F1200646F8A3
:1009F0002750CE1000F1200555F8265045EA030493
:100A0000CE1000F1200545F82640F0BD0A048261B1
:100A1000704781617047000010B5044601231A46F3
:100A200021460848FFF7B0FE0648FFF709FF00BF60
:100A300002210448FFF774FE0028F9D00148FFF7AF
:100A40006BFE10BD002001402DE9F04107460C4629
:100A50000025002608E03846FFF7DEFF05440520A4
:100A600002F05CFA701CC6B2A642F4DBB5FBF4F0EF
:100A700080B2BDE8F08100BFFEE72DE9F84F0746E0
:100A80000D4690469946DDF828B0A8EB0700401CBB
:100A90001FFA80FAA9EB0500401C80B200900024E8
:100AA00014E0281981B2384600F02EFC00F0B0FDA9
:100AB000002607E004FB0A613BF8110000F09EFDF0
:100AC000701C86B25645F5DB601C84B200988442E7
:100AD000E7DBBDE8F88F000010B504460E488471CE
:100AE0002C200D4908813C2048812A2088812B2018
:100AF000C88134B94FF4A07008804FF4F07048807A
:100B000006E04FF4F070044908804FF4A07048806C
:100B1000022000F049FB10BD4C0100202DE9F041FE
:100B2000044600251848008B1749498B00FB01F645
:100B3000154A518A108A00F0E7FB00F069FD002099
:100B400012490860271204F0FF0800BF15E0F8B250
:100B5000FFF7B8FE00200E49086001200D49C1F8DA
:100B6000840208F0FF00FFF7ADFE0020084908608E
:100B700001200849C1F884026D1CB542E7D3012069
:100B800002490860BDE8F0814C01002080824042AB
:100B9000840240420000404270B504460D461646AD
:100BA0001849087B00F0EEFC201200F00BFDE0B2CB
:100BB00000F008FD1349898A081200F003FD11496D
:100BC000087D00F0FFFC0F49887B00F0DBFC281259
:100BD00000F0F8FCE8B200F0F5FC0A49C98A0812F6
:100BE00000F0F0FC0749887D00F0ECFC0549087A2C
:100BF00000F0C8FC301200F0E5FCF0B200F0E2FCBE
:100C000070BD00004C0100202DE9F05F05460E4646
:100C100017469846DDF828A04FF0000B781B401CC3
:100C20001FFA80FB344613E02146284600F06CFB97
:100C300000F0EEFC4FF0000906E0504600F0DEFC4C
:100C400009F101001FFA80F9D945F6DB601C84B276
:100C50004445E9DDBDE8F09F0EB50121072000F015
:100C60002BFD01208DF8080000208DF80A000320DC
:100C70008DF8090000208DF80B0040F213700190F0
:100C800001A9A648FFF757FE40F23940019001A99B
:100C9000A348FFF750FE8220019001A9A148FFF769
:100CA0004AFE13219D48FFF7B4FE4FF480619C4833
:100CB000FFF7ACFE02219B48FFF7ABFE00F02EFAD7
:100CC000322002F02BF9D32000F05CFC322002F03D
:100CD00025F900F099F99449888000F095F9924936
:100CE000888000F091F990498880084680884FF606
:100CF000FF7101EA00208C49888000F085F98A495B
:100D000089880843884988800846818887A0FFF73A
:100D1000CFFA042000F036FC00F076F9009000F0E5
:100D200073F900909DF8001084A0FFF7C1FA00F05D
:100D30006BF900909DF8001086A0FFF7B9FA00F05B
:100D400063F900909DF800108AA0FFF7B1FA0C201B
:100D500000F018FC00F058F9009000F055F90090F0
:100D60009DF8001089A0FFF7A3FA3A2000F00AFCD2
:100D7000552000F027FC0C2000F004FC00F044F9A2
:100D8000009000F041F900909DF800108BA0FFF753
:100D90008FFA6548808849F28641884200D00EBDAE
:100DA000F22000F0EFFB182000F00CFCA32000F074
:100DB00009FC122000F006FC022000F003FCB22027
:100DC00000F000FC122000F0FDFBFF2000F0FAFB19
:100DD000102000F0F7FB002000F0F4FBF82000F0FA
:100DE000D1FB212000F0EEFB042000F0EBFBF9200A
:100DF00000F0C8FB002000F0E5FB082000F0E2FB5B
:100E0000362000F0BFFB082000F0DCFBB42000F02F
:100E1000B9FB002000F0D6FBC12000F0B3FB41205D
:100E200000F0D0FBC52000F0ADFB002000F0CAFBB5
:100E3000532000F0C7FBE02000F0A4FB0F2000F0DF
:100E4000C1FB1B2000F0BEFB182000F0BBFB0B20F9
:100E500000F0B8FB0E2000F0B5FB092000F0B2FB5B
:100E6000472000F0AFFB942000F0ACFB352000F0F1
:100E7000A9FB0A2000F0A6FB132000F0A3FB05202D
:100E800000F0A0FB082000F09DFB032000F09AFB7F
:100E9000002000F097FBE12000F074FB0F2000F031
:100EA00091FB3A2000F08EFB372000F08BFB0B20EB
:100EB00000F088FB0C2000F085FB052000F082FB91
:100EC0004A2000F07FFB242000F07CFB392000F05A
:100ED00079FB072000F076FB102000F073FB042064
:100EE00000F070FB272000F06DFB252000F06AFB6E
:100EF000002000F067FB112000F044FB782002F096
:100F00000DF8292000F03EFB0120FFF7E5FD3748F2
:100F10000088FFF703FE00BF41E700000000024029
:100F200000040240000802404C010020204C4344D1
:100F30002049443A25780D0A00000000204D616EDA
:100F40007566616374757265722049443A25780D3F
:100F50000A000000204D6F64756C652F647269761D
:100F600065722076657273696F6E2049443A257800
:100F70000D0A0000204D6F64756C652F64726976F0
:100F800065722049443A25780D0A00005069786559
:100F90006C20666F726D617420616E6420435055E1
:100FA00020666F726D61742049443A25782062652D
:100FB000666F7265207365740D0A0000506978656C
:100FC0006C20666F726D617420616E6420435055B1
:100FD00020666F726D61742049443A2578206166FD
:100FE000746572207365740D0A00000030000020E3
:100FF00010B50246012000E050430B1EA1F1010490
:10100000E1B2F9D110BD000010B5002437480068E6
:1010100020F47C103549086035480068354908409F
:10102000334908603448006820F440403249086081
:101030000020324908603249C1F88002012001F0E5
:1010400093FF00BF2E48D0F82002C0012D49D1F8EF
:10105000281240EA81102B49D1F8101240EA4110C1
:101060002849D1F8141240EA01102649D1F80C128F
:1010700040EAC1002249D1F8281240EA8100224901
:10108000D1F81C1240EA4100204909680843C0B267
:10109000044601201D495C3108601A49C1F88002EC
:1010A000124800681A49084010490860084600685C
:1010B000184908430D4908600D4800680D4908406B
:1010C0000B4908600846006813490843084908604E
:1010D0000948006820F44040074908600846006855
:1010E00040F480400860204610BD0000000002402F
:1010F000000402403FF0CFFF0008024080824042DF
:101100000000404200804042000041422402404230
:10111000F3FCC0FF040115004005100010B50020CD
:101120000C49086001200C49C1F8840201F0F6FE68
:1011300000200A4908600A2001F0F0FE012006495B
:10114000C1F88402782001F0E9FE0120014908601D
:1011500010BD0000808240420000414284024142B2
:101160002DE9F04104460D460E480088A04203DDFB
:101170000C484088A84202DC0020BDE8F0812946E6
:10118000204600F0C1F82E2000F0FCF9FFF73CFFEC
:101190000746FFF739FF0746FFF736FF064646EAE0
:1011A0000720EAE74C0100202DE9F0410546002424
:1011B000002754488079012818D1082D15D2DFE87E
:1011C00005F00406080A0C0E101206250DE007258E
:1011D0000BE0042509E0052507E0012505E00025D1
:1011E00003E0032501E0022500BF00BF082D1CD24B
:1011F000DFE805F00406090C0F12151800BF14E013
:1012000044F0800411E044F040040EE044F0C004D7
:101210000BE044F0200408E044F0600405E044F0F2
:10122000A00402E044F0E00400BF00BF354880881D
:1012300049F28641884202D1362744F00804F8B2C8
:1012400000F0A0F9E0B200F0BDF904F0200068B1B0
:101250002C4800882B494988884214DA2948068896
:10126000408828490880084646800CE025480088C8
:1012700024494988884206DD224806884088214959
:1012800008800846468000201E4908824882084699
:101290000088888208464088C882084600880883FB
:1012A000084640884883087B00F06CF9002000F075
:1012B00089F9002000F086F912490988491EC1F316
:1012C000072000F07FF90F490978491EC8B200F0E5
:1012D00079F90C49887B00F055F9002000F072F98B
:1012E000002000F06FF907494988491EC1F3072023
:1012F00000F068F903498978491EC8B200F062F924
:10130000BDE8F0814C01002070B504460D4613493C
:10131000087B00F037F9201200F054F9E0B200F039
:1013200051F90E49898A081200F04CF90B49087DE1
:1013300000F048F90949887B00F024F9281200F0F0
:1013400041F9E8B200F03EF90449C98A081200F0F8
:1013500039F90249887D00F035F970BD4C01002053
:101360002DE9F84F80460E4617461C46B3462046E8
:10137000E31704EB5373DB1021464FEAE47C04EBE4
:101380005C7C4FEAEC0CA4EBCC0CBCF1000F02D05F
:101390004FF0010C01E04FF0000C6344224604EBD7
:1013A000D27C4FEA6C0C03FB0CF3DBB20093A7F189
:1013B0002000C7B2002556E00C2C07D107EB4700F0
:1013C0002B4901EB800010F8059013E0102C05D19B
:1013D000284800EB071010F805900BE0182C07D1F7
:1013E00007EBC700244901EB800010F8059001E0ED
:1013F000BDE8F88F4FF0000A2FE009F0800030B10F
:101400001E48028831464046FFF7C6FB07E00A98AF
:1014100028B91B48028831464046FFF7BDFB4FEA1A
:1014200049604FEA1069701C86B216484088B04285
:1014300000DCDDE7A6EB0B00A0420AD15E4608F116
:1014400001001FFA80F80F480088404500DCCFE714
:1014500006E00AF1010000F0FF0ABAF1080FCCDB48
:1014600000BF681CC5B200988542A5DB00BFBFE77E
:1014700070790008E47D0008D48300082E00002065
:10148000300000204C0100202DE9FF4F81B00746BD
:1014900091461E460E9D4FF0000A002439E0301B95
:1014A000401EC1B20A20FFF7A3FDB9FBF0F00A21EC
:1014B000B0FBF1F201FB1208BAF1000F16D1701E59
:1014C000A04213DDB8F1000F0ED10020AB4605EBB2
:1014D000DB71491001FB0471009088B22B46202279
:1014E0000299FFF73DFF12E04FF0010A0020AB46E2
:1014F00005EBDB71491001FB0471009088B208F123
:101500003001CAB22B460299FFF72AFF00BF601CC8
:10151000C4B2B442C3DB05B0BDE8F08F2DE9F84F8B
:1015200004460D4690469946DDE90A6704F0FF0A35
:1015300008EB04001FFA80F809EB05001FFA80F998
:1015400016E0444502DB5446A81985B24D4500DB40
:1015500014E0002000903A78334629462046FFF7F1
:10156000FFFE304606EBD07104EB61018CB27F1CAC
:1015700038787E2802DC38782028E2DA00BFBDE81F
:10158000F88F000010B5044600200A490860204684
:10159000FFF798F900200849C1F890020749086050
:1015A0000120086005490C3108600549C1F8800236
:1015B00010BD000080824042000040428402404250
:1015C0000080404210B504460020084908602046CB
:1015D000FFF778F900200649C1F884020120054987
:1015E00008600549C1F8800210BD000080824042B9
:1015F00000004042840240420080404210B5044650
:101600002012FFF7DFFFE0B2FFF7DCFF10BD0000A4
:1016100010B50249087AFFF7B5FF10BD4C01002054
:1016200000BFFEE77047000070B5002100230F22C5
:10163000C4781CB3174C246804F4E064C4F5E06477
:10164000C4F30721C1F10404E3B20A4144789C4089
:10165000E1B28478144021430C07210E0E4C05782A
:101660006155047804F01F050124AC4005786D1124
:10167000AD0005F1E025C5F8004109E0047804F06B
:101680001F050124AC40054D0678761145F826402B
:1016900070BD00000CED00E000E400E080E100E03F
:1016A00002490143024A1160704700000000FA0538
:1016B0000CED00E07047000029B1064A12680243B1
:1016C000044B1A6004E0034A12688243014B1A601B
:1016D000704700003038024029B1064A12680243C0
:1016E000044B1A6004E0034A12688243014B1A60FB
:1016F000704700004038024029B1064A1268024390
:10170000044B1A6004E0034A12688243014B1A60DA
:10171000704700004438024029B1064A126802436B
:10172000044B1A6004E0034A12688243014B1A60BA
:1017300070470000243802402DE9F04100210023C9
:1017400000240226002502220227DFF8A4C1DCF8CB
:1017500000C00CF00C0131B1042909D008290CD0CB
:101760000C297CD148E0DFF88CC1C0F800C089E0CA
:10177000DFF884C1C0F800C084E0DFF874C1ACF1C8
:10178000040CDCF800C0CCF38055DFF864C1ACF188
:10179000040CDCF800C00CF03F0275B1DFF858C152
:1017A000BCFBF2FCDFF84881A8F10408D8F80080FF
:1017B000C8F388180CFB08F40DE0DFF838C1BCFB57
:1017C000F2FCDFF82C81A8F10408D8F80080C8F3F7
:1017D00088180CFB08F4DFF818C1ACF1040CDCF835
:1017E00000C0CCF3014C0CF1010C4FEA4C06B4FBE9
:1017F000F6FCC0F800C045E0DFF8F4C0ACF1040C22
:10180000DCF800C0CCF38055DFF8E4C0ACF1040C88
:10181000DCF800C00CF03F0275B1DFF8DCC0BCFBA7
:10182000F2FCDFF8CC80A8F10408D8F80080C8F3F7
:1018300088180CFB08F40DE0DFF8B8C0BCFBF2FC24
:10184000DFF8AC80A8F10408D8F80080C8F3881845
:101850000CFB08F4DFF898C0ACF1040C00E00CE0DD
:10186000DCF800C0CCF3027C0CF1010C4FEA4C0711
:10187000B4FBF7FCC0F800C004E0DFF878C0C0F8A3
:1018800000C000BF00BFDFF868C0DCF800C00CF08B
:10189000F0010909DFF864C01CF80130D0F800C07D
:1018A0002CFA03FCC0F804C0DFF844C0DCF800C028
:1018B0000CF4E051890ADFF844C01CF80130D0F87C
:1018C00004C02CFA03FCC0F808C0DFF824C0DCF820
:1018D00000C00CF46041490BDFF820C01CF8013057
:1018E000D0F804C02CFA03FCC0F80CC0BDE8F081AD
:1018F000083802400024F40000127A00140000208E
:1019000010B5012002490860FF2000F031F910BD38
:101910009882404270B505464FF6FF7401E0601EA4
:1019200084B2FF2000F024F9A84201D0002CF6D1A7
:101930000CB9FF2070BD0020FCE70000F8B50120C5
:101940005E490860002504E0FF2000F011F9681CE2
:1019500085B20A2DF8DB142600BF95220021084627
:1019600000F04BF90446012C04D0301EA6F1010111
:101970008EB2F2D1002052490870012C4AD1872240
:101980004FF4D571082000F038F9012847D100251F
:1019900006E0FF2000F0ECF80DF80500681C85B2A9
:1019A000042DF6DB9DF80200012879D19DF8030093
:1019B000AA2875D14FF6FE7600BF012200213720FC
:1019C00000F01BF901229107292000F016F90446C6
:1019D00024B1301EA6F101018EB2EED1002E5FD0EF
:1019E000012200213A2000F008F9002858D10025F2
:1019F00006E0FF2000F0BCF80DF80500681C85B279
:101A0000042DF6DB9DF8000000F0400018B1062020
:101A10002B49087044E004202949087040E0012265
:101A20000021372000F0E9F801220021292000F0F0
:101A3000E4F80446012C17DC0220214908704FF617
:101A4000FE7600BF01220021372000F0D6F80122E7
:101A50000021292000F0D1F80446BCB1301EA6F1C7
:101A600001018EB2EED111E00120154908704FF648
:101A7000FE7600BF01220021104600F0BEF80446A9
:101A800024B1301EA6F101018EB2F3D12EB1012294
:101A90005102102000F0B1F810B100200849087080
:101AA000FFF72EFF00F06AF80548007808B1002023
:101AB000F8BD0CB12046FBE7AA20F9E79882404226
:101AC0003C0000202DE9F04106460F461546194816
:101AD0000078062800D07F02012D0CD10122394662
:101AE000112000F08AF80446FCB96902304600F083
:101AF00023F8044619E001223946122000F07DF84F
:101B0000044600BF4FF40071304600F015F804465B
:101B100006F50076681EC0B2051E01D0002CF1D07B
:101B2000012200210C2000F068F8FFF7E9FE2046B2
:101B3000BDE8F0813C00002070B504460D46FE2053
:101B4000FFF7E8FE08B1012070BD04E0FF2000F0BF
:101B500057F92070641C281EA5F101018DB2F5D142
:101B6000FF2000F005F8FF2000F002F80020EBE76E
:101B700010B50446204600F043F910BD10B5002012
:101B800000F068F910BD000010B50020054908609C
:101B900000F06FF808B9002010BDFFF7B1FE01207A
:101BA000FAE700009882404270B506460D4600F004
:101BB00060F808B1012070BD2846FFF7D9FFFD2D60
:101BC00019D0002404E0305D00F01AF9601C84B2E2
:101BD000B4F5007FF7DBFF20FFF7CAFFFF20FFF718
:101BE000C7FFFF20FFF7C4FF044604F01F000528CD
:101BF00001D00220DFE70020DDE72DE9F0410546B6
:101C00000C4617464FF00008FFF77AFEFFF7BCFFBF
:101C100010B1FF20BDE8F08145F04000FFF7A8FFBC
:101C2000200EFFF7A5FFC4F30740FFF7A1FFC4F3A1
:101C30000720FFF79DFFE0B2FFF79AFF3846FFF756
:101C400097FF0C2D02D1FF20FFF792FF4FF01F08E6
:101C500000BFFF20FFF78CFF064606F0800030B182
:101C6000B8F10000A8F1010101F0FF08F1D1304600
:101C7000D0E710B5002400BFFF20FFF779FFFF2851
:101C800001D1002010BD641C6FF07F408442F3D36B
:101C90000120F7E72DE9F04106460F46154620489A
:101CA0000078062800D07F02012D0CD10122394690
:101CB0001820FFF7A2FF04466CBBFE213046FFF759
:101CC00073FF044627E016480078012809D0012256
:101CD00000213720FFF791FF012229461720FFF747
:101CE0008CFF012239461920FFF787FF044694B97B
:101CF00000BFFC213046FFF757FF044606F500768B
:101D0000681EC0B2051E01D0002CF2D0FD210020BB
:101D1000FFF74AFF0446FFF7F3FD2046BDE8F081D8
:101D20003C00002000B587B001210320FFF7C4FC70
:101D300001210803FFF7E0FC4020059001208DF809
:101D4000180000208DF81A008DF819008DF81B007E
:101D500005A92848FEF7EFFD40212648FEF759FE69
:101D6000E020059002208DF8180000208DF81A0060
:101D700003208DF8190000208DF81B000522114664
:101D80001D48FEF720FE052206211B48FEF71BFE1C
:101D9000052207211848FEF716FE05A91648FEF78A
:101DA000CAFD0020ADF800004FF48270ADF80200CB
:101DB0000020ADF80400ADF80600ADF808004FF4BF
:101DC0000070ADF80A000820ADF80C000020ADF856
:101DD0000E000A20ADF810006946084800F068F8C7
:101DE0000121064800F04AF8FF2000F009F807B08A
:101DF00000BD00000004024000000240003001402D
:101E000070B50546002405E0601CC4B2C82C01DD95
:101E1000002070BD02210E4800F03CF80028F3D0ED
:101E200029460B4800F042F8002405E0601CC4B2CB
:101E3000C82C01DD0020ECE70121054800F02AF85C
:101E40000028F3D0024800F02EF8C0B2E1E700000D
:101E50000030014010B50446074800884FF6C771AE
:101E60000840054908800846008820430880012171
:101E7000014800F003F810BD0030014021B1028894
:101E800042F04002028004E002884FF6BF731A401D
:101E9000028070470246002013890B400BB10120DD
:101EA00000E00020704701468889704781817047B3
:101EB00010B50022028802F441520B884C8823435B
:101EC0008C882343CC8823430C8923434C892343A8
:101ED0008C892343CC8923431A430280838B4FF29E
:101EE000FF74234083830B8A038210BD7047000078
:101EF0000CB50020019000904148006840F480300B
:101F00003F49086000BF3E48006800F40030009080
:101F10000198401C0190009818B90198B0F5A04FA5
:101F2000F1D13748006800F4003010B10120009072
:101F300001E0002000900098012860D13048403036
:101F4000006840F080502E49403108602D480068FC
:101F500040F440402B49086029480830006828496F
:101F6000083108600846006840F4004008600846F0
:101F7000006840F4A05008602348091F0860081F4B
:101F8000006840F08070091F086000BF1C480068AE
:101F900000F000700028F9D01A48006840F4803042
:101FA0001849086000BF1748406800F480300028D6
:101FB000F9D01448006840F400301249086000BFAE
:101FC0001048406800F400300028F9D040F2057055
:101FD0000E4908600A480830006820F003000849EC
:101FE000083108600846006840F00200086000BF41
:101FF00003480830006800F00C000828F8D10CBD38
:102000000038024000700040085A4077003C02400F
:10201000042808D14FF0E021096941F004014FF094
:10202000E022116107E04FF0E021096921F004018D
:102030004FF0E022116170477047000010B515485D
:10204000006840F47000134908601348006840F0CD
:1020500001001149086000200F49083108600E484E
:1020600000680E4908400C4908600D48091D0860C9
:10207000081F006820F48020091F0860002006491E
:102080000C310860FFF734FF4FF0006001498039E0
:10209000086010BD88ED00E000380240FFFFF6FE4A
:1020A0001030002410B50121880700F010F840B16D
:1020B0000121880700F008F802480078401C014917
:1020C000087010BD34000020CA430282704730B54A
:1020D0000246002000230024158A05EA01039589A1
:1020E00005EA010413B10CB1012000E0002030BD6D
:1020F00010B540F225511D4800F057F810B31B48A9
:1021000000F00CF9C4B21A48008800F40040C8B9C5
:102110001748008800F4804060B10A2C03D00020EA
:102120001349088020E01248008840F4004010491C
:10213000088019E00D2C06D10D48008840F480403D
:102140000B49088010E00A480088C0F30D000949D7
:102150000C5407480088401C054908800846008840
:10216000C72801DD0020088010BD000000440040A9
:102170002C0000208400002021B1828942F400520A
:10218000828104E082894DF6FF731A408281704794
:1021900002460020B1F5007F00D100BF13880B403C
:1021A0000BB1012000E00020704770B5024600240A
:1021B00000230025002040F66A16B14200D100BF7E
:1021C000C1F3421501F01F03012606FA03F3012DA6
:1021D00002D19689334006E0022D02D1168A33409F
:1021E00001E0968A33400C12012606FA04F41688A0
:1021F000344013B10CB1012000E0002070BDF0B5F7
:102200000346002400260025002040F66A17B94244
:1022100000D100BF1846C1F3421401F01F06012788
:1022200007FA06F5012C01D10C3004E0022C01D193
:10223000103000E014301AB107682F43076002E045
:102240000768AF430760F0BD2DE9FF4705460E461E
:102250000024A14600BFA046B08900B100BF2C8A6F
:1022600024F44054F08804432C82AC8941F20C6081
:102270008443B08831890843718908430443AC81A1
:10228000AC8A24F44074B0890443AC826846FFF7FA
:1022900053FA2048854202D01F48854202D1DDF81A
:1022A0000C9001E0DDF80890A88900F4004040B1EE
:1022B00009EBC90000EB091031684900B0FBF1F7E8
:1022C00007E009EBC90000EB091031688900B0FB99
:1022D000F1F76420B7FBF0F004012009642101FB51
:1022E0001078A88900F4004040B1322000EBC8000B
:1022F000B0FBF1F000F00700044308E0322000EBEF
:1023000008106421B0FBF1F000F00F0004432C81B1
:10231000BDE8FF8700100140001401400146888895
:10232000C0F308007047C1F308028280704700BF05
:10233000FEE730380A2801D201207047002070479C
:1023400000BF7047354890ED051AF8EE411A90ED40
:10235000011AB8EE411A81EE812AF0EE420A90EDA0
:10236000041AF8EE411A90ED021AB8EE411A81EE05
:10237000812AB0EE420AF4EEC00AF1EE10FA01D260
:10238000B0EE600AB7EE001AB4EEC10AF1EE10FA30
:1023900003DDB7EE001AB0EE410A204890ED051AB1
:1023A000B8EE411AD0ED011AF8EE611A00EE611A8A
:1023B000B0EE002AC1EE021A90ED061AB8EE411AEC
:1023C00031EE811ABCEEC11A80ED061A90ED041AA6
:1023D000B8EE411AD0ED021AF8EE611A00EE611A59
:1023E000B0EE002AC1EE021A90ED071AB8EE411ABB
:1023F00031EE811ABCEEC11A80ED071A9FED081A62
:1024000020EE011AB0EE410ABCEEC01A80ED031AAC
:102410004FF6FF7001490862486270472CB40020F3
:10242000000000462DE9F84F82460F4690461D46B3
:10243000DDE90A6B78192C490988884202DD2920D8
:10244000BDE8F88F08EB060027494988884201DD7E
:102450002920F5E705B10EB92920F1E722480661E8
:102460004561006910B12048406940B91F48408863
:102470001D4908611D48008848610020E0E71C48AC
:10248000006908B94FF0000B1748C0F81C8087613D
:10249000504601F05FFD8146B9F1500F09D0B9F106
:1024A000510F0BD0B9F1520F09D0B9F1530F15D11B
:1024B0000BE0504604F0E4FF044611E000BF59462B
:1024C000504603F0B3FD04460AE02B464246394627
:1024D0005046009602F00EFC044601E0272400BF9F
:1024E00000BF2046ACE700002CB400204C010020C7
:1024F00054B4002002460020CB1C23F00301136FCC
:102500008B4205D3136F5B1A1367D06E4318D366E3
:1025100070472DE9F05F04468846267B276865688A
:1025200095F800A000208346814600BF36BB67B9FE
:10253000A5684FF4806229462046636F9847074696
:1025400027B96FF00100BDE8F09F6D1C7F1EBBF145
:10255000000F0AD04FF0000B287810B16FF0050083
:10256000F1E7FF208246287007E095F800A0BAF155
:10257000FF0F02D14FF0010B0BE080264FEA490913
:102580000AEA060008B109F101097610A8F101086C
:1025900000BFB8F1000FC9D12673276065604846B7
:1025A000D1E700002DE9F04F87B00C464FF4B55B42
:1025B000CDF818B041F2511BCDF814B042F6CF1B44
:1025C000CDF810B041F6905BCDF80CB04FF0000B99
:1025D000CDF800B080E0D0F800C0D0F84080D0F84E
:1025E0008090D0F8C0100CEB090AACEB090BCDF8C9
:1025F00008B0A8EB010B4FF4B55E0BFB0EFB4FEAE6
:102600002B3741447F1A0AEB010CAAEB0101DDF8DC
:1026100008B007EB0B08DDF808B0ABEB0709D0F802
:10262000E050036AD0F8A060026EA3EB050A5F19C0
:10263000A6EB020BCDF808B03244A7EB020B0BFB64
:102640000EFB4FEA2B333A44DDF808B0D34441F691
:10265000905E0BFB0EFB4FEA2B3BCDF804B041F232
:10266000511B0AFB0BFEDDF804B0ABEB2E3542F636
:10267000CF1EDDF808B00BFB0EFEDDF804B0ABEBAF
:102680002E3BABEB02069B1BED1A0CEB020BC0F8CA
:1026900000B0ACEB020BC0F8E0B008EB060BC0F8E2
:1026A00020B0A8EB060BC0F8C0B009EB030BC0F8D4
:1026B00040B0A9EB030BC0F8A0B001EB050BC0F8CC
:1026C00060B0A1EB050BC0F880B0001DDDF800B0D4
:1026D0000BF1010BCDF800B0DDF800B0BBF1080F35
:1026E000FFF479AF20384FF0000BCDF800B0A2E036
:1026F000D0F800B00BF5004CD0F80880D0F810905E
:1027000081690CEB090AACEB090BCDF808B0A8EB1A
:10271000010B4FF4B55E0BFB0EFB4FEA2B37414428
:102720007F1A0AEB010CAAEB0101DDF808B007EBF8
:102730000B08DDF808B0ABEB0709C56943684669CB
:10274000C268A3EB050A5F19A6EB020BCDF808B02F
:102750003244A7EB020B0BFB0EFB4FEA2B333A4440
:10276000DDF808B0D34441F6905E0BFB0EFB4FEA58
:102770002B3BCDF804B041F2511B0AFB0BFEDDF8F8
:1027800004B0ABEB2E3542F6CF1EDDF808B00BFBE4
:102790000EFEDDF804B0ABEB2E3BABEB02069B1B51
:1027A000ED1A0CEB020BCBF3092BDFF89CE01EF8C3
:1027B0000BB084F800B0ACEB020BCBF3092B1EF886
:1027C0000BB084F807B008EB060BCBF3092B1EF80F
:1027D0000BB084F801B0A8EB060BCBF3092B1EF865
:1027E0000BB084F806B009EB030BCBF3092B1EF8F2
:1027F0000BB084F802B0A9EB030BCBF3092B1EF846
:102800000BB084F805B001EB050BCBF3092B1EF8D8
:102810000BB084F803B0A1EB050BCBF3092B1EF82A
:102820000BB084F804B008342030DDF800B00BF1B0
:10283000010BCDF800B0DDF800B0BBF1080FFFF4DC
:1028400057AF07B0BDE8F08F544003080146412957
:1028500001DA08467047612903DBA1F12000C0B20C
:10286000F8E70846F6E7000070B504460D4600207C
:102870002071401EE0622946204604F02DFC08B17C
:10288000032070BD94F82E1294F82F0241EA002024
:102890004AF65521884201D00220F2E794F86900F7
:1028A000010694F8680041EA004194F8670041EAA3
:1028B000002094F86610084320F07F400D498842BC
:1028C00001D10020DDE794F88500010694F884002A
:1028D00041EA004194F8830041EA002094F8821014
:1028E000084320F07F400349884201D10020C8E717
:1028F0000120C6E746415400024600E0521C107811
:1029000010B110788842F9D11078704770B503463D
:102910000D46586A021D680A1E68B678B0FBF6F4C8
:1029200000BF02CA09B9002070BD8C4200D202E08B
:10293000641A121DF5E700BF10682044F4E7024650
:10294000891E5069801E884201D800207047937804
:10295000906A01FB0300F9E72DE9F04705460C46B4
:10296000207820F04000401E00EB800101EBC00603
:1029700000274FF0010800BF1A48C05D205C1949CC
:10298000C95D2144497840EA0129B8F1000F10D00F
:10299000484601F07FFC8046FF2E07D23146761C68
:1029A00035F8110001F076FC404508D00020BDE864
:1029B000F0874FF6FF70814501D00020F7E7781CC3
:1029C00007460D28D8D3207800F0400038B1B8F180
:1029D000000F04D035F8160008B10020E7E7012009
:1029E000E5E70000309100082DE9F04704468946EC
:1029F000B9F1000F06D1E76817B16069B84215D880
:102A0000012713E04946204601F026FF0646022E24
:102A100002D20120BDE8F087701C08B93046F9E702
:102A20006069B04201D93046F4E74F463D4600BFE9
:102A30006D1C6069A84204D80225BD4201D900205E
:102A4000E8E72946204601F007FF064606B909E0F7
:102A5000701C08B1012E01D13046DBE7BD42E7D141
:102A60000020D7E700BF6FF070422946204604F0EF
:102A7000EFFB8046B8F1000F08D1B9F1000F05D087
:102A80002A464946204604F0E3FB8046B8F1000F91
:102A90000BD1E5602069401C78B12069401E20619F
:102AA000607940F00100607107E0B8F1010F02D1D8
:102AB0004FF0FF3000E0012005462846AAE72DE947
:102AC000F74F86B00D4616468EE0112E03D2062033
:102AD00009B0BDE8F08F113E15F801AB4FEA2A1995
:102AE0000AF00F0003900AF0EE0008B10620EFE7AD
:102AF00010210698FFF7FEFC8046B8F1000F01D1C7
:102B00000320E5E706982430039900EBC10040F864
:102B1000298000200446074607E015F8010B0490C1
:102B200008F8040004980744641C102CF5D37900BD
:102B30000698FFF7DFFC8346BBF1000F01D10320AD
:102B4000C6E706983430039900EBC10040F829B07D
:102B5000002001900446059019E018F80400049044
:102B600009E00598421C019905922BF81010019874
:102B7000401C80B201900498411E04910028F0D1BD
:102B80004FF6FF71019801EA40000190641C102C7F
:102B9000E3D3BE4201D206209AE7F61B39460698D7
:102BA000FFF7A8FC0290029808B9032090E7069866
:102BB0004430DDE9021200EBC20040F82910002485
:102BC00010E015F801ABB9F1000F04D1BAF10B0F09
:102BD00001DD06207CE7029880F800A00298401CE6
:102BE0000290641CBC42ECD3002E7FF46EAF002038
:102BF0006EE700002DE9F34F83B08146049800682A
:102C0000019002E00198401C0190019800782F2863
:102C1000F8D0019800785C28F4D0D9F81CA00025E1
:102C20002F4600BF38467F1C01990C5C202C03DB2B
:102C30002F2C01D05C2C00D132E0FF2D03D30620D5
:102C400005B0BDE8F08FE4B2812C13DBE0B2FE28C2
:102C500010DC38467F1C01990E5C06EB042084B220
:102C6000402E01DB7E2E05DD802E01DBFE2E01DDF8
:102C70000620E5E70121204601F0C2FA04460CB91E
:102C80000620DDE7802C06DA214671A0FFF734FE2E
:102C900008B10620D4E728466D1C2AF81040C1E789
:102CA00000BF0198C11904980160202C01DA0420AA
:102CB00000E00020804608E0681E3AF81040202C12
:102CC00002D02E2C00D002E06D1E002DF4D100BFEA
:102CD0000DB90620B4E700202AF815000B222021A8
:102CE000D9F8180004F0EEF9002700E07F1C3AF84C
:102CF00017002028FAD03AF817002E28F6D00FB186
:102D000048F0030800E06D1E25B1681E3AF8100077
:102D10002E28F8D10020064602904FF0080B00BF85
:102D200038467F1C3AF8104004B963E0202C03D0E9
:102D30002E2C04D1AF4202D048F00308F0E70298ED
:102D4000584501D2AF4214D1BBF10B0F02D148F06C
:102D500003084FE0AF4201D048F00308AF4200D96A
:102D600048E02F46082002904FF00B0BB006060EED
:102D7000D6E7802C09DB204601F08CFA0021009078
:102D800001F03EFA044648F00208FF2C11DDABF1D9
:102D900001000299884204D848F00308CDF808B031
:102DA000BEE72212D9F818300298411C02911A5439
:102DB00019E024B1214629A0FFF79EFD18B15F2438
:102DC00048F003080FE0412C04DB5A2C02DC46F0EB
:102DD000020608E0612C06DB7A2C04DC46F00106D2
:102DE000A4F1200084B2D9F818300298411C029155
:102DF0001C5495E700BFD9F818000078E52803D1E6
:102E00000520D9F818100870BBF1080F01D1B006E1
:102E1000060E06F00C000C2803D006F00300032871
:102E200001D148F0020808F0020058B906F003008A
:102E3000012801D148F0100806F00C00042801D147
:102E400048F00808D9F8180080F80B800020F7E651
:102E5000222A3A3C3E3F7C7F000000002B2C3B3D69
:102E60005B5D00002DE9F04782460C4616462BE0DC
:102E7000412E02D20620BDE8F087413E14F8018BB6
:102E800008F0F00008B10620F5E708F003074FF45A
:102E900080715046FFF72EFB05460DB90320EAE787
:102EA0000AF1540040F8275000270BE0084810F8BA
:102EB000079014F8010B074931F81910484345F8F9
:102EC00029007F1C402FF1D3002ED1D10020D2E762
:102ED000943F0308D43F030810B56FF00400FFF7D8
:102EE00097F80A4800680A49B0FBF1F009490870F0
:102EF0000846007800EB4001C1EBC0104FF6FF71AF
:102F000001EAC0000449088010BD00000000002054
:102F100000127A0024000020260000200146114AF9
:102F200012884A434FF0E0235A6100229A611A4600
:102F3000126942F001021A6100BF4FF0E0221069ED
:102F400000F001021AB100F48032002AF5D04FF0EF
:102F5000E022126922F001024FF0E0231A61002200
:102F60009A617047260000200146114A12784A43B0
:102F70004FF0E0235A6100229A611A46126942F02A
:102F800001021A6100BF4FF0E022106900F0010257
:102F90001AB100F48032002AF5D04FF0E022126915
:102FA00022F001024FF0E0231A6100229A6170477B
:102FB000240000202DE9F04104460E460021204661
:102FC00000F0B7F90546EDB9002700BF2169206878
:102FD00004F082F8054605B113E060690078E52841
:102FE00002D06069007820B9781C0746B04201D150
:102FF00007E000270121204600F07FF80546002D5C
:10300000E4D000BF042D00D107252846BDE8F0819B
:103010002DE9F04704460021204600F08AF90746D2
:1030200017B13846BDE8F0874FF0FF09CA464FF6A2
:10303000FF70208400BF2169206804F04DF8074626
:1030400007B157E065692E780EB9042752E0E87A97
:1030500000F03F08E52E05D008F0080040B1B8F1B7
:103060000F0F05D04FF0FF094FF6FF7020843AE0B4
:10307000B8F10F0F1CD1E06978B306F0400030B111
:1030800095F80DA026F04006B146E08820844E4514
:103090000AD1687B504507D12946E069FFF75CFCFF
:1030A00010B1A9F1010000E0FF2000F0FF091AE0D3
:1030B000B9F1000F05D1284604F04AFB504500D174
:1030C00018E0A069C07A00F0010038B90B22284648
:1030D000A16903F049FF08B90CE004E04FF0FF09D3
:1030E0004FF6FF7020840021204600F006F80746C6
:1030F000002FA0D000BF384694E72DE9F0410446E8
:103100008846E088461CB0B208B1206910B9042096
:10311000BDE8F08106F00F0000286BD12069401C4B
:103120002061E06828B920680089B04262D8042094
:10313000EEE720688078401E00EA1610002859D17A
:10314000E168206801F088FB0546012D01D80220C6
:10315000DEE7681C08B90120DAE720684069A84268
:1031600042D8B8F1000F01D10420D1E7E16820680E
:10317000FFF73AFC05460DB90720C9E7012D01D13B
:103180000220C5E7681C08B90120C1E7206804F0E7
:1031900053FB08B10120BBE7216801F130004FF477
:1031A0000072002103F08EFF29462068FFF7C7FB5D
:1031B0002168C86200270EE001202168087120689C
:1031C00004F03AFB08B10120A2E72068C06A401C65
:1031D0002168C8627F1C20688078B842ECD82068DB
:1031E000C06AC01B2168C862E56029462068FFF7F5
:1031F000A6FB2061E6802068303006F00F0100EB6E
:1032000041106061002083E72DE9FE4F0446D4F8A9
:103210001880D4F81C900C224146684603F0B7FE93
:1032200000BF9DF80B0000F0010020B3002088F8DB
:103230000B00E06101260CE033464A4669464046F1
:1032400001F0A4FA2046FFF7E3FE054605B102E0CF
:10325000761C642EF0D300BF642E02D10720BDE897
:10326000FE8F042D01D02846F9E79DF80B0088F861
:103270000B00C4F81C909DF80B0000F0020060B138
:10328000002600E0761C39F816000028FAD106F175
:1032900019000D21B0FBF1F700E001273946204667
:1032A000FFF788FE054645BB781E071E25D0E0883F
:1032B000C11B204600F03DF80546F5B9A06904F0B1
:1032C00047FA824600BF2169206803F005FF0546E2
:1032D00005B111E0FAB253466169E06901F0C0F945
:1032E00001202168087100212046FFF706FF0546EE
:1032F00015B9781E071EE6D100BFC5B9216920683F
:1033000003F0EAFE054695B920220021606903F02A
:10331000D9FE0B22D4E9050103F039FEA069C07A79
:1033200000F01800616908730120216808712846BF
:1033300095E72DE9F04104460E46E680A568012D8B
:1033400003D020684069A84202D80220BDE8F0817D
:103350002DB920680078032801D12068456A45B955
:1033600020680089B04201D80220EFE72068476A50
:103370001EE0206880784FEA001812E02946206895
:1033800001F06AFA0546681C08B90120DEE7022D43
:1033900003D320684069A84201D80220D6E7A6EBF3
:1033A00008064645EAD229462068FFF7C8FA0746CC
:1033B000E5600FB90220C9E707EB1610206120680D
:1033C000303006F00F0100EB411060610020BDE7D6
:1033D00070B505460024FEF7B1FA04460CB1012091
:1033E00070BD0020FCE710B5034611B1022907D1DA
:1033F00001E0002006E04FF400741460002001E0BA
:10340000042000BF00BF10BD2DE9F04781460D46E6
:1034100016461C4600274FF00A0814B90420BDE8E0
:10342000F087E2B231462846FEF74CFB074607E03C
:10343000FEF784FAE2B231462846FEF743FB074620
:1034400037B1B8F10000A8F1010101F0FF08EFD198
:103450000FB90020E3E70120E1E7014600207047B3
:103460002DE9F04781460D4616461C4600274FF0D1
:103470000A0814B90420BDE8F087E2B231462846B4
:10348000FEF708FC074607E0FEF758FAE2B23146BD
:103490002846FEF7FFFB074637B1B8F10000A8F158
:1034A000010101F0FF08EFD10FB90020E3E701208F
:1034B000E1E72DE9FC4707460C4615460020009041
:1034C0008046814601AA6946384600F065F80646FE
:1034D0008EB901984069801E0199897800FB01F935
:1034E00001988078009900FB01F84FEA59002060AC
:1034F0004FEA580028603046BDE8FC8710B500242C
:103500000DE04FF40C7003F00FFE174941F8240052
:10351000084650F8240000B903E0601CC4B2012C36
:10352000EFDB00BF4FF40A7003F0FEFD0F490860A7
:103530004FF40A7003F0F8FD0D4908604FF4007075
:1035400003F0F2FD0B490860012C0AD1074800681E
:1035500038B10748006820B10846006808B100206B
:1035600010BD0120FCE700005C000020600000208E
:10357000640000207000002070B50546284600F069
:1035800091FC044634B9284604F0D2F904460CB93B
:1035900000202860204670BD2DE9F74F82B08A4692
:1035A000002202A9049800F091FE0190049804689A
:1035B000019800286DD1D4E90410801E814203D8FF
:1035C0002069CAF8000064E094F800B00026BBF15E
:1035D000010F1CD1022700BF3946204601F03CF9FB
:1035E000804608F1010010B9012001900EE0B8F109
:1035F000010F02D10220019008E0B8F1000F00D1C4
:10360000761C781C074661698842E5D33AE0676911
:10361000206A00904FF00009002500BFB9F1000FAB
:103620000ED10098421C01462046009203F054FD42
:103630000190019800B124E004F130054FF40079C5
:10364000BBF1020F09D12878697840EA012000B95E
:10365000761CAD1CA9F1020910E0E8780006A978F3
:1036600040EA0140697840EA01202978084320F0C7
:10367000704000B9761C2D1DA9F10409781E071EA3
:10368000CCD100BF2661607940F001006071CAF8BA
:103690000060019805B0BDE8F08F2DE9F04F87B0CC
:1036A00004460D46204604F043F90690069818B1EA
:1036B000069807B0BDE8F08FE07908B1E079F8E747
:1036C000606A00287CD0681C002843D1D4F824A06C
:1036D0005AF8040B019002200090276967B300BFDD
:1036E0000297002003900098801C009000BF049770
:1036F0000398401C03903946206801F0ADF8074656
:10370000012F02D80220E071D3E7781C10B9012004
:10371000E071CEE70498401C8742E8D0DDE9000163
:10372000884205D803984AF8040B02984AF8040B1B
:1037300020684069B842D3D80098616A0860DDE922
:103740000001884203D80020CAF80000F9E01120E7
:103750000690F6E0E068A84200D2E568A560002D7A
:10376000F4D0691E2046FFF7D1F8606161692068D6
:10377000FFF7E5F88146B9F1000F02D10220E071B0
:1037800097E720688078401E691E00EA5120814436
:103790002089C0F308000028D8D0A0694845D5D0BA
:1037A000A07900F0400080B121684878012304F13D
:1037B0002801A269FFF754FE18B10120E07178E7F3
:1037C00012E0A07920F04000A07121684878012320
:1037D0004A4604F12801FFF717FE10B10120E071FD
:1037E00067E7C4F81890ACE0E068A84204D2A0797A
:1037F00000F0020000B9E568A06805904FF0000BEA
:10380000C4F808B0002D69D0206880784FEA4028BD
:10381000059890B1681EB0FBF8F10598401EB0FB0A
:10382000F8F0814209D30598401EA8F101018843B0
:10383000A060A0682D1A666912E026697EB9002191
:103840002068FFF7D1F80646012E02D10220E07170
:103850002FE7701C10B90120E0712AE7266166612C
:10386000CEB324E0A07900F0020038B131462068E0
:10387000FFF7BAF8064636B945461AE031462068E1
:1038800000F0EAFF0646701C10B90120E07110E755
:10389000012E03D920684069B04202D80220E071AD
:1038A00007E76661A0684044A060A5EB08054545B0
:1038B000D8D800BFA0682844A060C5F3080050B164
:1038C00031462068FFF73BF88346BBF1000F03D178
:1038D0000220E071EDE601E00BEB552B2089C0F3EF
:1038E000080020B3A069584521D0A07900F040001D
:1038F00078B121684878012304F12801A269FFF713
:10390000AFFD10B10120E071D3E6A07920F04000B6
:10391000A0712168487801235A4604F12801FFF775
:1039200073FD10B10120E071C3E6C4F818B0D4E90A
:103930000201884205D9A068E060A07940F020002B
:10394000A0710698B5E62DE9F14F8CB000F0FDFFAF
:10395000064601220CA903A800F0B8FC0546002D7C
:103960007BD14FF4007000F089FC8046B8F1000F65
:1039700003D111200DB0BDE8F08FCDF82880CDF82F
:1039800024D003A80C9900F0ABFE054605B9082524
:1039900000BF042D7AD100210398FFF725F80746D0
:1039A000002507B90725012F00D10225781C00B991
:1039B00001251DB9039803F03FFF0546002D5BD19B
:1039C00039460398FEF7BBFF8246039800F13004A6
:1039D0004FF400720021204603F074FB0B222021DB
:1039E000204603F06FFB2E2020701020E072A67599
:1039F000310AE175310C2176310E61763946204667
:103A000003F035FD2022214604F1200003F0BFFA27
:103A10002E2084F82100DDF814B0039800780328E4
:103A200004D10398406A584500D1AB46594604F189
:103A3000200003F01CFD039890F8029018E0039812
:103A4000C0F82CA00AF1010A01200399087103981B
:103A500003F0F2FE05460DB10DE030E04FF40072C8
:103A60000021204603F02EFBA9F1010000F0FF0920
:103A7000B9F1000FE3D100BF1DB903A8FFF7C4FBE4
:103A8000054625B13946039803F083FC14E0089CF1
:103A90001020E072A675310AE175310C2176310EE5
:103AA00061763946204603F0E2FC01200399087153
:103AB000039803F05DFE0546404600F0E5FB28460E
:103AC00058E70000F7B582B016460398019001A8A8
:103AD00000F0C5FF0546002D02DA0B2005B0F0BD51
:103AE0000E4850F825400CB100202070029810B10B
:103AF0000020029908700949029841F825000298AF
:103B000008B1012E01D00020E8E7002203A902A895
:103B100000F0DCFB07463846E0E7000054000020D8
:103B20002DE9F7478DB0054616461DB9092010B09E
:103B3000BDE8F0870020286006F01F0626F001028D
:103B40000EA904A800F0C2FB0746002F73D14FF462
:103B5000007000F093FB8146B9F1000F01D11120F4
:103B6000E5E7CDF82C9001A80A9004A80E9900F082
:103B7000B7FD0746099C0FB904B9062706F01C00DB
:103B8000002851D04FB1042F03D104A8FFF73CFB0C
:103B9000074646F00806099C09E0E07A00F01100AB
:103BA00008B1072703E006F0040000B10827002F42
:103BB0004AD106F00800002846D000F0C6FE804634
:103BC00084F80E804FEA1821E1734FEA18412174FE
:103BD0004FEA186161740020E0722077002161775C
:103BE000A177E1772146049802F0A2FA82460021EB
:103BF000204603F03CFC012004990871BAF1000F43
:103C000022D00498D0F82C805146049803F0C1FBD0
:103C10000746CFB9AAF101000499C860414604984B
:103C200003F05AFA07460FE077B9E07A00F0100087
:103C300010B1042708E031E006F0020020B1E07A7C
:103C400000F0010000B1072747B906F0080008B1ED
:103C500046F020060498C06AE8612C62484600F0ED
:103C600013FBDFB9AE710020E8712146049802F021
:103C70005FFA2861E07F0106A07F41EA0041607F92
:103C800041EA0020217F0843E8600020A860A86185
:103C90006862049828602868C088A880384646E78B
:103CA0002DE9FF4F83B0044615469A46DDF810B063
:103CB0000020CAF80000204603F03AFE0290029865
:103CC00018B1029807B0BDE8F08FE07908B1E0794B
:103CD000F8E7A07900F0010008B90720F2E7D4E97D
:103CE0000210401A00900098854200D9009DAAE079
:103CF0002089C0F30800002876D120688078401E13
:103D0000A16800EA512000F0FF09B9F1000F1FD1AE
:103D1000A06810B9206901900CE0606A28B12046C3
:103D2000A168FEF7F3FD019004E06169206800F0EE
:103D300093FD01900198022802D20220E071C1E7B0
:103D40000198401C10B90120E071BBE70198606147
:103D500061692068FEF7F3FD064616B90220E0719E
:103D6000B0E74E444FEA5528B8F1000F29D009EBCF
:103D7000080021688978884203D920688078A0EB00
:103D8000090821684878434632465946FFF73CFB0C
:103D900010B10120E07195E7A07900F0400068B112
:103DA000A069801B404509D2A169891B0BEB41200A
:103DB0004FF4007204F1280103F0E9F84FEA4827B4
:103DC00037E0A069B04220D0A07900F0400080B177
:103DD00021684878012304F12801A269FFF740FB1C
:103DE00018B10120E0716DE710E0A07920F04000EB
:103DF000A071216848780123324604F12801FFF7B9
:103E000003FB10B10120E0715CE7A6612089C0F3DB
:103E10000800C0F50077AF4200D92F462089C0F3D3
:103E2000080204F1280011183A46584603F0AFF88A
:103E300000BFBB44A0683844A060DAF800003844F2
:103E4000CAF80000ED1B002D7FF452AF002039E7C7
:103E500073B58CB00E4600220CA903A800F036FA08
:103E60000546EDB94FF4007000F008FA044614B9A5
:103E700011200EB070BD0A94CDF824D003A80C997F
:103E800000F02EFC054645B9089828B12EB1314600
:103E900003A800F05CFD00E00625204600F0F4F9E0
:103EA0002846E6E72DE9F0410446204603F040FDB0
:103EB0000746002F4CD1A07900F02000002847D001
:103EC000A07900F0400078B121684878012304F11E
:103ED0002801A269FFF7C4FA10B10120BDE8F08102
:103EE000A07920F04000A071E169206803F0F4F8A7
:103EF0000746002F2CD1256AE87A40F02000E872AE
:103F0000207B2877A089010A6977E068010CA977EE
:103F1000E068010EE9772846216903F0A8FA00F06D
:103F200014FD0646AE75310AE975310C2976310E5D
:103F300069760020A8740021E974A07920F020009F
:103F4000A071012021680871206803F011FC074668
:103F50003846C3E72DE9FC4105460027002405E06B
:103F6000601CC4B2287800B902E06D1CFA2CF7DBA3
:103F700000BFFA2C02D1FF20BDE8FC81002408E03C
:103F80006D1E28782E2802D16D1C2F4603E0601C80
:103F9000C4B2052CF4DB00BF39466846FCF784FA4E
:103FA000002407E01DF80400FEF750FC0DF80400A3
:103FB000601CC4B2042CF5DB002425E000261EE0C2
:103FC00004EB840000EBC400114901EB800050F8C1
:103FD0002600007800B914E004EB840101EBC40171
:103FE0000B4A02EB810151F826006946FCF780FA82
:103FF00018B946EA0410C0B2BEE7701CC6B20D2E56
:10400000DEDB00BF601CC4B2062CD7DBFF20B3E7A9
:104010006C9100082DE9FF4F83B0044615469B467E
:10402000049801900020CBF80000204603F080FCAB
:104030000290029818B1029807B0BDE8F08FE079BD
:1040400008B1E079F8E7A07900F0020008B907208C
:10405000F2E7A0682844A168884200D20025BEE0AB
:104060002089C0F3080000287DD120688078401E98
:10407000A16800EA512000F0FF0ABAF1000F26D132
:10408000A06838B9276997B900212068FEF7ACFC11
:1040900007460CE0606A28B12046A168FEF736FCAE
:1040A000074604E061692068FEF79EFC074607B9F1
:1040B00098E0012F02D10220E071BDE7781C10B911
:1040C0000120E071B8E76761206900B92761A07934
:1040D00000F0400078B121684878012304F12801FC
:1040E000A269FFF7BDF910B10120E071A4E7A07942
:1040F00020F04000A07161692068FEF720FC0646B0
:1041000016B90220E07197E756444FEA5529B9F1F4
:10411000000F2CD00AEB090021688978884203D966
:1041200020688078A0EB0A09216848784B4632461F
:104130000199FFF795F910B10120E0717CE7A069C2
:10414000801B48450ED2A069801B019A02EB4021DA
:104150004FF4007204F1280002F019FFA07920F05A
:104160004000A07100E016E04FEA49282AE0A0696B
:10417000B0420FD0D4E9020188420BD221684878BE
:104180000123324604F12801FFF73EF910B1012066
:10419000E07151E7A6612089C0F30800C0F50078FE
:1041A000A84500D9A8462189C1F3080204F12801D5
:1041B00050184246019902F0EAFEA07940F0400012
:1041C000A07100BF019840440190A0684044A060E5
:1041D000DBF800004044CBF80000A5EB0805002DFB
:1041E0007FF43EAF00BFD4E90201884201D9A06844
:1041F000E060A07940F02000A07100201CE70000E2
:104200002DE9F04102460F46802A01DA10462FE0E0
:104210001FB1184B45F2205602E0174B45F22056CD
:104220000025102416E0A6EB050C0CEBDC7805EB62
:1042300068014FEA410C33F81CC0944500D10BE0F3
:104240004FEA410C33F81CC0944501DA0D4600E0FA
:104250000E46641E002CE6D100BF34B14FF0010CB5
:104260000CEB410C33F81CC001E04FF0000C604631
:10427000BDE8F08128E70108A492000810B50446C3
:10428000204602F051FF10BD10B50446204602F052
:104290003DFF10BD0246002100E0491C094830F8EE
:1042A000110020B1074830F811009042F5D10548BF
:1042B00030F8110018B1044830F81100704710466A
:1042C000FCE70000AC3B03088C3D03082DE9F74FE9
:1042D0008AB000210A9801600B9800F0C0FB099099
:1042E0000998002803DA0B200DB0BDE8F08FD849FB
:1042F000099851F820400CB90C20F5E70A980460A1
:10430000207878B16078FFF7A8F8814609F00100BD
:1043100040B90C9820B109F0040008B10A20E3E785
:104320000020E1E700202070099860706078FFF7B6
:104330004FF8814609F0010008B10320D4E70C983A
:1043400020B109F0040008B10A20CDE70027394662
:104350002046FEF789FA0546012D01D09DBB32E0CB
:1043600000261AE004F5F77000EB061898F8040030
:1043700070B198F80B00010698F80A0041EA004174
:1043800098F8090041EA002098F80810084300E076
:10439000002002A941F82600761C042EE2D3002654
:1043A00006B1761E00BF02A850F8267027B1394624
:1043B0002046FEF759FA00E0022005461DB1701CA8
:1043C00006460428EFD3032D01D101208CE70DB15F
:1043D0000D2089E73B20015D94F83C0041EA002074
:1043E000B0F5007F01D00D207EE74620015D94F8F6
:1043F000470041EA002ABAF1000F0ED194F85700A5
:10440000010694F8560041EA004194F8550041EA4B
:10441000002094F8541040EA010AC4F818A0402083
:10442000005DE070E078012804D0E078022801D037
:104430000D2059E7E0780AFB00FA3D20005DA070EE
:10444000A07818B1A078411E084008B10D204BE7B4
:104450004120015D94F8420041EA00202081207A49
:1044600000F00F0008B10D203EE74320015D94F8F5
:10447000440041EA00200890089870B994F853006D
:10448000010694F8520041EA004194F8510041EAD3
:10449000002094F85010084308903E20015D94F8E5
:1044A0003F0041EA00200190019808B90D201BE768
:1044B00001985044218900EB11100790DDE90701B4
:1044C000814201D20D200FE7DDE90710401AA178E3
:1044D000B0FBF1FBBBF1000F01D10D2004E701257A
:1044E00040F6F670834500D302254FF6F6708345FB
:1044F00000D303250BF102006061E76101983844A5
:10450000206207983844A062032D16D1208908B193
:104510000D20E9E694F85F00010694F85E0041EA98
:10452000004194F85D0041EA002094F85C100843D3
:10453000606260698000069014E0208908B90D204F
:10454000D2E6206A50446062022D02D160694000C8
:1045500007E0207D00F00100616901EB410100EB03
:1045600051000690A169069800F2FF10B1EB502FA0
:1045700001D20D20B8E64FF0FF302061E0608020CE
:104580006071032D5AD194F8601094F8610041EAEB
:104590000020012852D1791C204602F09DFDE8BB85
:1045A0000020607194F82E1294F82F0241EA002046
:1045B0004AF65521884241D13320005D0106322060
:1045C000005D41EA00413120005D41EA002094F89D
:1045D000301008431F49884230D194F81702010671
:1045E00094F8160241EA004194F8150241EA0020CD
:1045F00094F814120843184988421FD194F81B02FA
:10460000010694F81A0241EA004194F8190241EABD
:10461000002094F818120843206100E00EE094F89E
:104620001F02010694F81E0241EA004194F81D029F
:1046300041EA002094F81C120843E0602570074806
:104640000088401C80B205490880E08000204BE6CD
:1046500054000020525261417272416158000020A2
:10466000F0B504461D464D730F27CF7200270F7318
:104670008F76BC4681F81BC0571E07EB870C0CEBEE
:10468000C706002738463B4600BF4FF6FF77B842C3
:1046900003D03746761C34F81700DFF840C01CF80A
:1046A00003C001F80C000712DFF830C01CF803C08B
:1046B0008C448CF8017008B94FF6FF705F1C3B46C4
:1046C0000D2FE2D34FF6FF77B84202D034F81670C0
:1046D0000FB942F040020A70F0BD000030910008AE
:1046E0002DE9F3410446019800782F2803D0019862
:1046F00000785C2802D10198401C01900020A06045
:1047000001980078202807D200212046FEF711FEEC
:1047100005460020606128E000BF01A92046FEF7A1
:1047200069FA054605B11FE02046FEF771FC054613
:10473000A069C67A3DB1042D04D100BF06F0040083
:1047400000B9052510E006F0040000B10CE067692F
:10475000F87A00F0100008B9052505E03946206810
:1047600001F0E6FCA060D8E700BF2846BDE8FC8168
:1047700000BF054A128802F04002002AF9D0C2B2F6
:10478000014B1B1D1A807047004400402DE9FF4F6C
:1047900083B0074691461E460B223846049902F024
:1047A000F6FB052E19D9B04612E039F802BB0025F8
:1047B0000CE0584668F35F0080464FEA6B0B08F444
:1047C000803010B1234888EA00086D1C102DF0D30A
:1047D000B9F800000028E8D14646072500BF06F0DA
:1047E0000F0000F1300ABAF1390F03DD0AF10700BA
:1047F00000F0FF0A28466D1E01A901F800A0360945
:10480000002EECD17E20485500240BE0385D812835
:1048100007DB385DFE2804DC681EA04200D106E0FC
:10482000641C641CAC4202D2385D2028EED100BF6B
:1048300000BF082D04D228466D1C01A9095C00E0C8
:1048400020212046641C3954082CF2D307B0BDE85F
:10485000F08F0000211001002DE9F04705460C46BD
:10486000022C02D36869A04202D84FF0010969E026
:104870004FF0FF392878012804D002282ED00328D1
:104880005CD13FE0274607EB5707286A00EB57212A
:10489000284602F021FC00B153E038467F1CC0F3EB
:1048A000080105F1300010F80180286A00EB57215B
:1048B000284602F011FC00B143E0C7F3080105F1FE
:1048C0003000405C48EA002804F0010010B14FEAD3
:1048D000181001E0C8F30B00814632E0286A00EBB3
:1048E0001421284602F0F8FB00B12AE040F2FF1044
:1048F00000EA440105F130000E183078717840EA82
:1049000001291EE0286A00EBD411284602F0E4FBDE
:1049100000B116E040F2FF1000EA840105F130001A
:104920000E18F0780006B17840EA0140717840EA4C
:1049300001203178084320F0704902E04FF001096E
:1049400000BF00BF4846BDE8F087002070472DE952
:10495000F05F80460D4605F10907D8F810000028E1
:1049600043D0D8F81440002626E03046761C14F8D0
:104970000090B9F1200F00D11EE0B9F1050F01D16F
:104980004FF0E509092E02D12E2007F8010BB9F1ED
:10499000410F0EDBB9F15A0F0BDC207B092E01D33E
:1049A000102100E00821084018B109F1200000F0B2
:1049B000FF0907F8019B00BF0B2ED6D3E07A2872BF
:1049C000E07F0106A07F41EA0041607F41EA0020CC
:1049D000217F08432860217E607E41EA0020A88074
:1049E000A17DE07D41EA0020E88000203870A869C0
:1049F00098B30026AF69D8F8100060B3E86950B3E7
:104A0000B8F820004FF6FF71884224D0D8F81CB0C7
:104A10001BE000215046FFF7F3FB8246BAF1000F7E
:104A200001D1002616E0BAF1FF0F04DD4FEA2A2279
:104A30003046761C3A54E869401EB04201D8002640
:104A400008E03046761C07F800A03BF8021BB1F1E5
:104A5000000ADED100BF0020B855BDE8F09F70B558
:104A600002464FF0FF301568DDB1116800E0491CC7
:104A70000D78202D02D30D783A2DF8D10D783A2DEE
:104A80000ED1146814F8015BA5F130030A2B06D28D
:104A90008C4204D11BB918464D1C2946156070BDC7
:104AA000002000BFFBE73EB504466B46062201A985
:104AB0002046FFF7F5F805460DB101203EBD9DF8F3
:104AC0000400472817D19DF80500492813D19DF807
:104AD000060046280FD19DF8070038280BD19DF815
:104AE0000800372803D09DF80800392803D19DF825
:104AF0000900612801D00220E0E70020DEE7000085
:104B00000FB42DE9F84F074688461446617904F141
:104B1000100000EB4100B0F800B0BDF8380010B153
:104B2000BDF83A0018B9BDE8F80F5DF814FBB4F809
:104B30000900BDF8361088422ADDBDF8340038443B
:104B40001FFA80F9BDF8360040441FFA80FABDF81C
:104B500034003844BDF838100844401E85B2B4F81B
:104B600009004044401E86B2A94511DAB2450FDA69
:104B7000B5F5A07F0CDAB6F5A07F09DA5C48CDF870
:104B800000B033462A465146D0F808C04846E047B0
:104B9000B4F80700BDF8341088422ADDBDF83400AF
:104BA00038441FFA80F9BDF8360040441FFA80FAF5
:104BB000B4F807003844401E85B2BDF836004044C2
:104BC000BDF83A100844401E86B2A94511DAB24534
:104BD0000FDAB5F5A07F0CDAB6F5A07F09DA444804
:104BE000CDF800B033462A465146D0F808C04846B2
:104BF000E047B4F80910B4F80D000844BDF83610C9
:104C0000BDF83A201144884232DABDF83400384405
:104C10001FFA80F9B4F8090000EB0801B4F80D00A0
:104C20000844401E1FFA80FABDF834003844BDF82D
:104C300038100844401E85B2BDF836004044BDF827
:104C40003A100844401E86B2A94511DAB2450FDA7F
:104C5000B5F5A07F0CDAB6F5A07F09DA2448CDF8C7
:104C600000B033462A465146D0F808C04846E047CF
:104C7000B4F80710B4F80B000844BDF83410BDF8C0
:104C800038201144884231DAB4F80700C119B4F869
:104C90000B000844401E1FFA80F9BDF8360040445E
:104CA0001FFA80FABDF834003844BDF838100844C3
:104CB000401E85B2BDF836004044BDF83A100844A5
:104CC000401E86B2A94511DAB2450FDAB5F5A07FCC
:104CD0000CDAB6F5A07F09DA0548CDF800B0334606
:104CE0002A465146D0F808C04846E04700BF1AE7B8
:104CF00054B400202DE9F84F81460E4617469846D9
:104D0000DDF828A00025002000904FF40A7002F082
:104D100032FA8346BBF1000F00D111254FF48360B6
:104D200002F029FA044604B9112543F6F44002F0D2
:104D300022FAC4F81404D4F8140400B91125002D83
:104D40005FD1012249465846FEF7EAFE0546002D8E
:104D500054D15846FFF7A7FE00B1272521465846F3
:104D600000F04CFA00B127252088404502DC60881D
:104D7000504501DD28250FE02188A8EB010000EB5C
:104D8000D07106EB61018EB26188AAEB010000EBE5
:104D9000D07107EB61018FB201202049087027E034
:104DA0003B4632462146584600F04EF90546E07B28
:104DB00000F0800010B1204600F09EFDB4F812040F
:104DC00018B1B4F81204009001E00520009002E050
:104DD0000120FEF7A3F80098411E89B2009118B196
:104DE0000E4800780028F3D1022D01D1002504E0FF
:104DF0000A48007808B1002DD2D000BF5846FEF70F
:104E0000BBFB584602F0BDF9D4F8140402F0B9F91E
:104E1000204602F0B6F92846BDE8F88F740000205D
:104E20002DE9FF4F8BB00C469A46DDF860B0B4F820
:104E30000B000490B4F80D0003900D9904980844F9
:104E4000401E0590617904F1100000EB41000088DC
:104E5000019004F1100000900AAB012209A90B98FF
:104E6000FEF71EFF9DF82410204600F089FCE07B31
:104E700000F0400006900020089056460790D5E0CC
:104E800000277D1EDDF8348082E0D4F8140400F59C
:104E90004050D0F8BC0CD4F8141443F20212114460
:104EA00088420FD9D4F8140400F54050D0F8BC0C57
:104EB000401ED4F8141401F54051C1F8BC0C90F810
:104EC000009004E021460B9800F0BBF9814609F1FF
:104ED000020018B900200FB0BDE8F08FB9F1000F43
:104EE00003DBB4F81004484501DC0120F3E7A945D1
:104EF00004D10598804501DC7F1C46E03FB35D4549
:104F000014D0DDF800E03EF8153007F1010E1FFA6D
:104F10008EF2B1B2A8EB070EAEF1010E1FFA8EF0C1
:104F2000DFF818E1DEF80CC0E0470EE0199802281F
:104F30000BD17B1C9AB2B1B2A8EB07035B1E98B2EF
:104F40003E4BD3F80CC0019BE04700271DE0002D2D
:104F50001BDB5D450ED0DDF800C03CF81520B1B27A
:104F6000A8F1010C1FFA8CF0DFF8D0C0DCF8043097
:104F700098470AE01998022807D1B1B2A8F10102B6
:104F800090B22E4A5368019A98474D4608F101089D
:104F9000059880457FF779AF5D4502D119980228C1
:104FA0002CD15D4504D0009830F81500029001E046
:104FB00001980290A7B1DDF808E01FFA8EF307F11F
:104FC000010E1FFA8EF2B1B2A8EB070EAEF1010E80
:104FD0001FFA8EF0DFF864E0DEF80CC0E0470DE069
:104FE000DDF808C01FFA8CF2B1B2DDF814C01FFA68
:104FF0008CF0DFF848C0DCF804309847069888B198
:105000000F490798085C0644A6EB0A010398814201
:1050100009DB0798401C07900A490798085C00EBD9
:105020000A0600E0761C0898401C0890039908982E
:105030008842FFF625AF00204DE7000054B4002061
:105040008C3F0308903F03082DE9F0438BB0804666
:105050000C4615461E464FF0FF30049000BF0AABC9
:10506000012203A94046FEF71BFE07461FB101209F
:105070000BB0BDE8F0839DF80C00212879D02C28D6
:1050800002D03B2870D172E0B4F80700ADF81800E8
:10509000B4F80900ADF81A00B4F80B00ADF81C0024
:1050A000B4F80D00ADF81E000AAB0922E11D404620
:1050B000FEF7F6FD07460FB10120D9E7E07B00F0CF
:1050C000800088B1204600F02AFCE07B00F0070158
:1050D000022088401FFA80F94A462146404600F0E7
:1050E0009BFB08B10120C3E79DF8140002280BD1F7
:1050F000079800909DF820008DF804002246314664
:105100002846069BFFF7FCFC9DF814000499CDE9A6
:105110000010B4F80900304483B2B4F80700284402
:1051200082B221464046FFF77BFE15E00AAB012222
:1051300009A94046FEF7B4FD9DF8240000B90CE033
:10514000D8F808000A909DF824200A988118404653
:10515000FEF7A3FA00B100E0E8E700BF9DF82400E5
:1051600018B1012084E704E00EE0002080E702206F
:105170007EE705AB04AA2146404600F06DFB0746DA
:105180000FB1012074E701E0012071E700BF9DF835
:105190000C003B287FF463AF002069E72DE9FC4158
:1051A00005460E4617466B46012201A92846FEF722
:1051B00077FD9DF80400F0B1B6B19DF80400B84247
:1051C0000ADDAC689DF8040021182846FEF765FA50
:1051D0009DF80400BDE8FC816B469DF80420314633
:1051E0002846FEF75DFD06E0AC689DF80400211836
:1051F0002846FEF752FA9DF80400EBE7F8B505469D
:105200000C466B46072221462846FEF749FD064616
:105210000EB10120F8BD207900F0800078B120792E
:1052200000F0070102208840A4F81004B4F810240C
:105230002146284600F0F0FA08B10120EAE70020F4
:10524000E8E72DE9F04180460C469DE1D4F81404CE
:1052500000F54050D0F8E40CA8427DD1D4F81404F5
:1052600000F54050D0F8E40CB0F5805F03DB4FF060
:10527000FF30BDE8F081D4F8141401F581704FF4CB
:105280000052002101F06DFF002606E0D4F814144E
:1052900042F2021211448E55761CD4F8140400F523
:1052A0004050D0F8E40CB042F0DC04F21444206822
:1052B00000F54050D0F8D80C401C216801F5405151
:1052C000C1F8D40C206800F54050D0F8E40C41003F
:1052D000206800F54050C0F8E01C206800F5405000
:1052E000D0F8E40C801C216801F54051C1F8DC0CB9
:1052F000206843F202110144A4F2144400F5405026
:10530000C0F8BC1C00BF2146404600F047F9D4F865
:10531000141401F54051C1F8EC0CD4F8140400F554
:105320004050D0F8EC1CD4F8140400F54050D0F8EC
:10533000E40C8142E7D0D4F8140400F54050D0F8D2
:10534000EC1CD4F8140400F54050C0F8F01CD4F85C
:10535000140400F5405000E002E0D0F8EC0C88E7BF
:10536000D4F8140400F54050D0F8E80CA84202D15B
:105370006FF001007DE72F46D4F8140400F540508B
:10538000D0F8DC0CA8421EDC04F21444206800F5BE
:10539000405090F8EC2C206800F54050D0F8BC3C10
:1053A000206800F54050D0F8BC1C491C206800F56E
:1053B0004050C0F8BC1C1A702068A4F2144400F5D8
:1053C0004050D0F8F05C3AE004F21444206842F215
:1053D00002110844425D206800F54050D0F8BC3C02
:1053E000206800F54050D0F8BC0C401C216801F545
:1053F0004051C1F8BC0C1A702068A4F2144400F5A6
:10540000817030F91500A84201D1284631E7D4F85F
:10541000140400F54050D0F8BC0CD4F8141443F236
:1054200002121144401A40F6B831884201D328468E
:105430001FE7D4F8140400F5817030F91550D4F842
:10544000140400F54050D0F8E40CA842BCDD04F28E
:105450001444206842F202110844425D206800F5BD
:105460004050C0F8EC2C206800F54050D0F8BC3C0F
:10547000206800F54050D0F8BC0C411C206800F5B5
:105480004050C0F8BC1C1A702068A4F2144400F507
:105490004050D0F8DC0C0546B0F5805F52DA04F2DB
:1054A0001444206800F54050B0F8F00C01B22068B8
:1054B00000F5817020F81510206800F5405090F834
:1054C000EC0C216842F2021211444855206800F5A4
:1054D0004050D0F8DC0C401C216801F54051C1F867
:1054E000DC0C206800F54050D0F8DC1C2068A4F2E9
:1054F000144400F54050D0F8E00C814222DBD4F88F
:10550000140400F54050D0F8E00CB0F5805F19DAD3
:10551000D4F8140400F54050D0F8E00C4100D4F861
:10552000140400F54050C0F8E01CD4F8140400F551
:105530004050D0F8D40C401CD4F8141401F540515C
:10554000C1F8D40CD4F8140400F54050C0F8F07C35
:10555000D4F8140400F54050D0F8BC0CD4F814145E
:1055600043F20212114488420ED9D4F8140400F513
:105570004050D0F8BC0C401ED4F8141401F5405132
:10558000C1F8BC0C007874E62146404600F006F8ED
:10559000051EBFF65BAE28466BE600002DE9F0471E
:1055A00082460C46D4F8140400F54050D0F8D00CD4
:1055B00070B10021D4F8140400F54050C0F8D01C9C
:1055C000D4F8140400F54050D0F8E40CBDE8F0879E
:1055D000D4F8140400F54050D0F8C01CD4F81404DA
:1055E00000F54050D0F8D40C01EB0009D4F81404B5
:1055F00000F54050D0F8C40C48455FDCD4F81404E2
:1056000000F54050D0F8C80C10B14FF0FF30DDE786
:1056100004F21444216843F6CC404058801E085CD4
:105620000870216843F6CC404058401E085C487022
:105630002068A4F21444811C4FF496725046FFF780
:10564000ADFD071E06D10121D4F8140400F5405029
:10565000C0F8C81C002F02DA4FF0FF30B6E7B81CC4
:1056600004F21444216801F54051C1F8CC0C2068C3
:1056700000F54050D0F8C01C206800F54050D0F82C
:10568000C40C081A1030216801F54051C1F8C00C53
:10569000B81CC100206800F54050C0F8C41C206848
:1056A00000F54050D0F8C01C2068A4F2144400F566
:1056B0004050D0F8D40C01EB000900BF4FEAE908D4
:1056C000D4F8140400F54050D0F8C00CC51045457E
:1056D00003D1D4F81404465D19E0681C404508D194
:1056E000D4F81404415D0246681C105C41EA0026AF
:1056F0000DE0D4F81404415D0246681C105C41EAD8
:105700000021D4F81424A81C105C41EA004604F2DD
:105710001444206800F5405090F8C00C00F00701D8
:1057200046FA01F0216801F54051D1F8D41C0C4A29
:1057300032F8111000EA0106206800F54050D0F858
:10574000C01C206800F54050D0F8D40C01442068FB
:10575000A4F2144400F54050C0F8C01C304635E7B0
:105760006C3F030810B501460878C20848788308E2
:105770008878C40804EB431000EBC22080B210BD4F
:1057800070B504460D4604F21444206843F6F44212
:10579000002101F0E6FC206800F54050C0F8D85C1C
:1057A000681C216801F54051C1F8D40C0120A840C3
:1057B000216801F54051C1F8E40C0120A840401CCB
:1057C000216801F54051C1F8E80C0120A840801C77
:1057D000216801F54051C1F8DC0C0120A8404100CE
:1057E000206800F54050C0F8E01C0121206800F559
:1057F0004050C0F8D01C0221206800F54050C0F88D
:10580000CC1C206843F202110144A4F2144400F5B8
:105810004050C0F8BC1C70BD2DE9FC4180460E46CE
:105820001746002414E06B46032201A94046FEF708
:1058300037FA054615B10120BDE8FC8101A8FFF744
:1058400091FF06F1100101EB44010880601C84B255
:10585000BC42E8DB0020EFE7FEB507460C461546E4
:105860001E4601AB012202A93846FEF719FA9DF83F
:105870000800012806D0F92811D0FE2804D0FF28FE
:1058800038D100E000BF00BF00BF4FF4807200219C
:105890003846FFF783FC0028F7DC0020FEBD042219
:1058A00069463846FFF77AFC042801D00120F5E765
:1058B0009DF801009DF8021040EA0120A4F81204AE
:1058C0009DF80000C0F3820030709DF8000000F0E9
:1058D000010010B19DF80300286001AB012202A96C
:1058E0003846FEF7DDF99DF8080008B10120D5E73C
:1058F0000020D3E70120D1E70146002000BF0BE0E4
:1059000001F5047202EB4002138801F1100202EB70
:1059100040021380421C90B2FF28F1DD704701461F
:10592000002000BF0BE001F1100202EB40021388DF
:1059300001F5047202EB40021380421C90B2FF2872
:10594000F1DD70472DE9FF5F0446884691469A468F
:10595000267B27686568287803900020834602909C
:105960001020019000BF36BB6FB9A5684FF480626C
:1059700029462046636F984707462FB96FF001000C
:1059800004B0BDE8F09F6D1C7F1E029850B100204E
:105990000290287810B16FF00500F1E7FF20039026
:1059A000287007E0287803900398FF2802D101208F
:1059B000029022E080264FEA4B0B0398304008B15A
:1059C0000BF1010B761018F8010B00900EE039F87E
:1059D000021B594505D12673276065609AF80000BF
:1059E000CEE70AF1010A0098401E009000980028B6
:1059F000EDD10198401E019000BF01980028B2D15E
:105A0000801FBDE703460848006A984203D1064854
:105A1000406A884206D0012A02D1034803624162EB
:105A2000012070470020FCE72CB400202DE9F74F3F
:105A300082B004461746032F03DD052005B0BDE8FC
:105A4000F08F6773A07B4FEAC009E07B4FEAC00A82
:105A50000021A182E18221838B46CDF804B000258C
:105A600000262FE04FF0000828E0608BA0B15846D8
:105A7000411C1FFA81FB618B88420DD10198421CA9
:105A800092B201462046019201F0B9FC05460DB1E3
:105A90002846D3E74FF0010B204600F0A9FF05464A
:105AA0000DB12846CAE7334642462046039901F025
:105AB00091F805460DB12846C0E7C844E069404565
:105AC000D3D85644206AB042CCD82846B6E72DE950
:105AD000FF4F83B00446059818B9052007B0BDE80C
