:020000040800F2
:10000000504D0120AD0200084D130008E90A000818
:1000100049130008310900084B1B000800000000CC
:100020000000000000000000000000002916000889
:10003000A509000800000000DD130008751700087E
:10004000C7020008C7020008C7020008C70200086C
:10005000C7020008C7020008C7020008C70200085C
:10006000C7020008C7020008C7020008C70200084C
:10007000C7020008C7020008C7020008C70200083C
:10008000C7020008C7020008C7020008C70200082C
:10009000C7020008C7020008C7020008C70200081C
:1000A000C7020008C7020008C7020008C70200080C
:1000B000E1170008C7020008C7020008C7020008CD
:1000C000C7020008C7020008C7020008C7020008EC
:1000D000C7020008C70200082D190008C70200085F
:1000E000C7020008C7020008C7020008C7020008CC
:1000F000C7020008C7020008C7020008C7020008BC
:10010000C7020008C7020008C7020008C7020008AB
:10011000C7020008C7020008C7020008C70200089B
:10012000C7020008C7020008C7020008C70200088B
:10013000C70200080000000000000000C70200081D
:10014000C7020008C7020008C7020008C70200086B
:10015000C7020008C7020008C7020008C70200085B
:10016000C7020008C7020008C7020008C70200084B
:10017000C7020008C7020008C7020008000000000C
:1001800000000000C702000800000000000000009E
:10019000C70200080000000000000000C7020008BD
:1001A000000000000000000000000000C70200087E
:1001B000C7020008C7020008C7020008C7020008FB
:1001C000C702000800F002F800F061F80AA090E809
:1001D000000C82448344AAF10107DA4501D100F002
:1001E00056F8AFF2090EBAE80F0013F0010F18BF6E
:1001F000FB1A43F001031847EC6605000C67050085
:100200000A444FF0000C10F8013B13F0070408BF3C
:1002100010F8014B1D1108BF10F8015B641E05D0DA
:1002200010F8016B641E01F8016BF9D113F0080F8F
:100230001EBF10F8014BAD1C0C1B09D16D1E58BF21
:1002400001F801CBFAD505E014F8016B01F8016B58
:100250006D1EF9D59142D6D37047000000230024CB
:1002600000250026103A28BF78C1FBD8520728BFC6
:1002700030C148BF0B607047732900F00B8200202B
:1002800070471FB536F029F91FBD10B510BD00F03D
:1002900033FA1146FFF7F5FF2EF0D4FF00F051FAC4
:1002A00003B4FFF7F2FF03BC03F05AFD094880478F
:1002B00009480047FEE7FEE7FEE7FEE7FEE7FEE748
:1002C000FEE7FEE7FEE7FEE704480549054A064B60
:1002D0007047000079170008C501000850ED0020A4
:1002E000504D0120500D0120500D0120704753EA60
:1002F000020C00F069802DE9F04B4FF00006002B56
:100300001FBFB3FA83F503FA05F424FA05F65E403D
:1003100012BF1643B2FA82F502FA05F4C5F12005C0
:100320001EBF22FA05FC44EA0C04203556EA044CB0
:100330004FEA144418BF641C4FF000084FF0000946
:10034000904271EB030C39D3002919BFB1FA81F740
:1003500001FA07F6B0FA80F700FA07F6C7F12007AE
:100360001EBF20FA07FC46EA0C062037B6FBF4FC59
:10037000A7EB0507103F07F01F0BCBF120060CFA87
:100380000BFB2CFA06F644BFB3460026202FA4BF71
:100390005E464FF0000B5BEA060C08BF4FF0010B06
:1003A00019EB0B09ABFB027C48EB0608C01B06FBF4
:1003B00002CC0BFB03CC71EB0C01C1E70B460246F0
:1003C00041464846BDE8F08B13B54FF000004FF0B2
:1003D0000001AFF30080BDE81C4070470FB4044932
:1003E00010B503AA029800F059F910BC5DF814FB8F
:1003F000280000202DE9F0410E460446002020622E
:100400002046E168884730B3252805D0D4E901218A
:100410009047206A401CF2E7E168204600278847A1
:10042000050018D0A5F14100192802D820354FF455
:1004300000673246294620462760FFF71DFF40B17E
:10044000012804D0F61D26F007060836D8E7361D29
:10045000D6E72846DAE7206ABDE8F08170B50C4699
:100460000546012A05D02878800600D5EA690023D0
:1004700002E0012305E05B1C934202D2E05C00280D
:10048000F9D1A869E618C01AA861286A1844286238
:100490002846AFF3008004E0D5E9012114F8010BF0
:1004A0009047B442F8D32846AFF3008070BD40EACD
:1004B0000103024630B59B0710D14FF0013400E034
:1004C00008C208C91D1B9D4315EAC41FF8D013F0CC
:1004D000FF0102F8011B0DD01B0AF8E711F8013BE0
:1004E000002B02F8013B05D011F8013B002B02F86C
:1004F000013BF3D130BD10B5431C02E010F8011BE5
:1005000071B18107FAD14FF0013202C88C1A8C43C5
:1005100014EAC211F9D0C01A0A0603D0C01E10BDD9
:10052000C01A10BD0A0401D0801E10BD0902FCD003
:10053000401E10BD10B5203AC0F00B80B1E8185035
:10054000203AA0E81850B1E81850A0E81850BFF4BD
:10055000F5AF5FEA027C24BFB1E81850A0E818505C
:1005600044BF18C918C0BDE810405FEA827C24BFB0
:1005700051F8043B40F8043B08BF7047D20728BF3E
:1005800031F8023B48BF11F8012B28BF20F8023B8D
:1005900048BF00F8012B70474FF0000200B513462A
:1005A00094469646203922BFA0E80C50A0E80C5093
:1005B000B1F12001BFF4F7AF090728BFA0E80C5044
:1005C00048BF0CC05DF804EB890028BF40F8042B3D
:1005D00008BF704748BF20F8022B11F0804F18BFAA
:1005E00000F8012B704700004FF0013C50F8042B3D
:1005F00051F8043B9A4221D1A2EB0C03934313EA36
:10060000CC1317D150F8042B51F8043B9A4215D162
:10061000A2EB0C03934313EACC130BD150F8042B39
:1006200051F8043B9A4209D1A2EB0C03934313EA1D
:10063000CC13DBD04FF00000704700BFD01A01BAD6
:10064000B1FA81F101F0180122FA01F0CB40C1F1B9
:100650002001DBB2C0B2C01A2CFA01F3D11A9143C7
:1006600011EAC311E6D17047704770477047704771
:1006700010B5436913B1AFF3008001E0FFF7EEFE60
:10068000012010BD127800F124010A7000224A7086
:100690000122EDE711684FF0FF32E9E7074B70B533
:1006A0000D467B4400F011F80446284600F020F87F
:1006B00010B14FF0FF3070BD204670BD630F0100D8
:1006C00001694A1C02610878704700B58FB0CDE916
:1006D00001310021059105497944CDE90310114606
:1006E0006846FFF787FE0FB000BD0000E5FFFFFF83
:1006F000007B00F080007047754600F02BF8AE4696
:1007000005006946534620F00700854618B020B51D
:10071000FFF7DAFDBDE820404FF000064FF000077C
:100720004FF000084FF0000B21F00701AC46ACE899
:10073000C009ACE8C009ACE8C009ACE8C0098D4606
:10074000704710B50446AFF300802046BDE8104066
:10075000FFF7A6BD00487047ECEC002021B182688D
:1007600042F00102826003E0826822F001028260AE
:10077000704710B50121080200F062FE00214FF41D
:10078000807000F05DFE10BD0146C86C80B27047FD
:100790000246002013680B400BB1012000E000204E
:1007A0007047000030B50246002000235068104C0E
:1007B00020400D790C6844EA05242043506090687D
:1007C0000C4C2040D1E903542C438D682C434D79C7
:1007D00044EA450420439060D06A20F470000C7D08
:1007E000641EE4B2234340EA0350D06230BD0000EF
:1007F000FFFEFFFCFDF7FFC0F0B504460D460020EC
:100800000021092D11DDE068A5F10A0606EB460777
:10081000072606FA07F18843A5F10A0606EB460605
:1008200003FA06F10843E0600CE0206905EB450798
:10083000072606FA07F1884305EB450603FA06F199
:1008400008432061072A0FDA606B561E06EB860705
:100850001F2606FA07F18843561E06EB860605FAA0
:1008600006F10843606322E00D2A0FDA206BD61FE1
:1008700006EB86071F2606FA07F18843D61F06EB0C
:10088000860605FA06F10843206310E0E06AA2F14B
:100890000D0606EB86071F2606FA07F18843A2F12C
:1008A0000D0606EB860605FA06F10843E062F0BD88
:1008B000816841F0804181607047000000B589B0D7
:1008C0000121080200F0ACFD0121084600F088FD7E
:1008D00003208DF8080000208DF80A0003208DF811
:1008E000090000208DF80B001220019001A90E488C
:1008F00000F059F8FFF73DFF4FF0807003900020A3
:100900008DF810008DF811000590079001208DF8EA
:10091000200003A90548FFF745FF01210348FFF721
:100920001DFF09B000BD0000000002400020014092
:1009300000BFFEE700F00101154A1160401000F011
:100940000101144AC2F89C12401000F00101104A43
:10095000121D1160401000F001010F4AC2F88C1204
:10096000401000F001010D4A1160401000F001013B
:10097000094AC2F89012401000F00101C2F8A81212
:10098000401000F00101064AC2F8A01270470000B2
:10099000A402404200004142008040429482404212
:1009A000000040427047F0B50A46002100230024B1
:1009B00000BF3DE0012505FA01F3156805EA0304CF
:1009C0009C4234D105684F000326BE40B543056004
:1009D00015794E00B5400668354305601579012D3F
:1009E00002D01579022D16D185684F000326BE402E
:1009F000B543856055794E00B540866835438560BE
:100A0000456801268E40B5434560456896798E401D
:100A1000B6B235434560C5684F000326BE40B543B6
:100A2000C560D5794E00B540C6683543C560491CE0
:100A30001029BFD3F0BDF0B5002300244D07ED0E03
:100A400002FA05F3CE1000F1200555F826504E07A6
:100A5000F70E0F26BE40B543CF1000F1200646F832
:100A60002750CE1000F1200555F8265045EA030422
:100A7000CE1000F1200545F82640F0BD0A04826141
:100A8000704781617047000010B5044601231A4683
:100A900021460848FFF7B0FE0648FFF709FF00BFF0
:100AA00002210448FFF774FE0028F9D00148FFF73F
:100AB0006BFE10BD002001402DE9F04107460C46B9
:100AC0000025002608E03846FFF7DEFF0544052034
:100AD00006F044FF701CC6B2A642F4DBB5FBF4F08E
:100AE00080B2BDE8F081000002A0FFF777FC00BFF4
:100AF000FEE70000686172646661756C743F000017
:100B000010B504460E4884712C200D4908813C2004
:100B100048812A2088812B20C88134B94FF4A070E5
:100B200008804FF4F070488006E04FF4F0700449FC
:100B300008804FF4A0704880022000F037FA10BD02
:100B4000500300202DE9F041044600251848008B91
:100B50001749498B00FB01F6154A518A108A00F0AB
:100B6000D5FA00F077FB002012490860271204F044
:100B7000FF0800BF15E0F8B2FFF7DCFE00200E49C9
:100B8000086001200D49C1F8840208F0FF00FFF75A
:100B9000D1FE00200849086001200849C1F88402FC
:100BA0006D1CB542E7D3012002490860BDE8F08121
:100BB00050030020808240428402404200004042B4
:100BC0000EB50121072000F00BFC01208DF8080074
:100BD00000208DF80A0003208DF8090000208DF810
:100BE0000B0040F21370019001A99648FFF7DBFE5D
:100BF00040F23940019001A99348FFF7D4FE8220CA
:100C0000019001A99148FFF7CEFE13218D48FFF70F
:100C100038FF4FF480618C48FFF730FF02218B488A
:100C2000FFF72FFF00F0A0F9322006F097FED32047
:100C300000F0D4FA322006F091FE00F00BF984495E
:100C4000888000F007F98249888000F003F9804924
:100C50008880084680884FF6FF7101EA00207C49B1
:100C6000888000F0F7F87A498988084378498880B5
:100C7000042000F0B3FA00F0EDF8009000F0EAF87C
:100C8000009000F0E7F8009000F0E4F800900C20ED
:100C900000F0A4FA00F0DEF8009000F0DBF800901D
:100CA0003A2000F09BFA552000F0B8FA0C2000F032
:100CB00095FA00F0CFF8009000F0CCF8009064486E
:100CC000808849F28641884200D00EBDF22000F0B3
:100CD00085FA182000F0A2FAA32000F09FFA122053
:100CE00000F09CFA022000F099FAB22000F096FA87
:100CF000122000F093FAFF2000F090FA102000F08C
:100D00008DFA002000F08AFAF82000F067FA21201E
:100D100000F084FA042000F081FAF92000F05EFA75
:100D2000002000F07BFA082000F078FA362000F06E
:100D300055FA082000F072FAB42000F04FFA0020B3
:100D400000F06CFAC12000F049FA412000F066FA88
:100D5000C52000F043FA002000F060FA532000F0B4
:100D60005DFAE02000F03AFA0F2000F057FA1B205D
:100D700000F054FA182000F051FA0B2000F04EFA5F
:100D80000E2000F04BFA092000F048FA472000F04E
:100D900045FA942000F042FA352000F03FFA0A208C
:100DA00000F03CFA132000F039FA052000F036FA82
:100DB000082000F033FA032000F030FA002000F0A1
:100DC0002DFAE12000F00AFA0F2000F027FA3A206D
:100DD00000F024FA372000F021FA0B2000F01EFA70
:100DE0000C2000F01BFA052000F018FA4A2000F051
:100DF00015FA242000F012FA392000F00FFA07202B
:100E000000F00CFA102000F009FA042000F006FAB5
:100E1000272000F003FA252000F000FA002000F05F
:100E2000FDF9112000F0DAF9782006F097FD29206D
:100E300000F0D4F90120FFF763FE0020FFF782FEE7
:100E400000BF42E7000002400004024000080240E8
:100E50005003002010B500243748006820F47C10AF
:100E6000354908603548006835490840334908600D
:100E70003448006820F4404032490860002032497C
:100E800008603249C1F88002012006F08DFD00BFE4
:100E90002E48D0F82002C0012D49D1F8281240EA8E
:100EA00081102B49D1F8101240EA41102849D1F89D
:100EB000141240EA01102649D1F80C1240EAC10090
:100EC0002249D1F8281240EA81002249D1F81C12A7
:100ED00040EA4100204909680843C0B204460120A5
:100EE0001D495C3108601A49C1F880021248006847
:100EF0001A49084010490860084600681849084324
:100F00000D4908600D4800680D4908400B4908600C
:100F10000846006813490843084908600948006802
:100F200020F44040074908600846006840F48040CB
:100F30000860204610BD000000000240000402408E
:100F40003FF0CFFF00080240808240420000404254
:100F5000008040420000414224024042F3FCC0FFB6
:100F6000040115004005100010B500200C49086070
:100F700001200C49C1F8840206F0F0FC00200A4967
:100F800008600A2006F0EAFC01200649C1F8840244
:100F9000782006F0E3FC01200149086010BD000044
:100FA0008082404200004142840241422DE9F041EA
:100FB00005460024002754488079012818D1082DBF
:100FC00015D2DFE805F00406080A0C0E10120625FB
:100FD0000DE007250BE0042509E0052507E00125C4
:100FE00005E0002503E0032501E0022500BF00BF66
:100FF000082D1CD2DFE805F00406090C0F121518A5
:1010000000BF14E044F0800411E044F040040EE01E
:1010100044F0C0040BE044F0200408E044F0600415
:1010200005E044F0A00402E044F0E00400BF00BF8B
:101030003548808849F28641884202D1362744F0FB
:101040000804F8B200F0CAF8E0B200F0E7F804F0E3
:10105000200068B12C4800882B494988884214DA5E
:1010600029480688408828490880084646800CE0C0
:101070002548008824494988884206DD2248068898
:101080004088214908800846468000201E49088281
:10109000488208460088888208464088C8820846F8
:1010A00000880883084640884883087B00F096F84B
:1010B000002000F0B3F8002000F0B0F812490988D1
:1010C000491EC1F3072000F0A9F80F490978491E0D
:1010D000C8B200F0A3F80C49887B00F07FF800202C
:1010E00000F09CF8002000F099F807494988491E53
:1010F000C1F3072000F092F803498978491EC8B26D
:1011000000F08CF8BDE8F0815003002070B5044673
:101110000D461349087B00F061F8201200F07EF8BC
:10112000E0B200F07BF80E49898A081200F076F8E8
:101130000B49087D00F072F80949887B00F04EF8F1
:10114000281200F06BF8E8B200F068F80449C98A88
:10115000081200F063F80249887D00F05FF870BD66
:10116000500300202DE9F04104460D4616461F4667
:10117000301B401C18490883781B401C48830846D4
:10118000048245828682C782087B00F027F82012FD
:1011900000F044F8E0B200F041F80F49898A0812E3
:1011A00000F03CF80C49087D00F038F80A49887BCB
:1011B00000F014F8281200F031F8E8B200F02EF830
:1011C0000549898A081200F029F80349087D00F0D2
:1011D00025F8BDE8F08100005003002010B504465A
:1011E00000200A4908602046FFF7A4FB00200849B8
:1011F000C1F89002074908600120086005490C31D8
:1012000008600549C1F8800210BD0000808240429C
:1012100000004042840240420080404210B5044633
:101220000020084908602046FFF784FB002006499B
:10123000C1F884020120054908600549C1F880020F
:1012400010BD0000808240420000404284024042C3
:101250000080404210B50249087AFFF7BFFF10BD79
:10126000500300202DE9F04706460F469046994668
:10127000089D2A4800682A4908402849086008460D
:10128000006828490843254908602748006827491D
:101290000840254908600846006825490843224956
:1012A00008602448006820F440402249086008464D
:1012B000006840F4804008604B464246394630465C
:1012C000FFF750FF1C48008B1B49498B00FB01FABC
:1012D000FFF7C0FF002019490860002417E035F827
:1012E00014100812FFF726FB0020154908600120A2
:1012F0001449C1F8840215F81400FFF71BFB002005
:101300000F49086001200F49C1F88402641C54454C
:10131000E5D3012009490860BDE8F08700000240DC
:10132000F3FCC0FF04011500000402403FF0CFFFB2
:101330004005100000080240500300208082404217
:10134000840240420000404200BFFEE770470000B8
:1013500070B5002100230F22C4781CB3174C2468F9
:1013600004F4E064C4F5E064C4F30721C1F10404AB
:10137000E3B20A4144789C40E1B2847814402143AE
:101380000C07210E0E4C05786155047804F01F05FA
:101390000124AC4005786D11AD0005F1E025C5F8DC
:1013A000004109E0047804F01F050124AC40054D1C
:1013B0000678761145F8264070BD00000CED00E07F
:1013C00000E400E080E100E002490143024A1160CC
:1013D000704700000000FA050CED00E070470000C7
:1013E00029B1064A12680243044B1A6004E0034A1A
:1013F00012688243014B1A60704700003038024087
:1014000029B1064A12680243044B1A6004E0034AF9
:1014100012688243014B1A60704700004038024056
:1014200029B1064A12680243044B1A6004E0034AD9
:1014300012688243014B1A60704700004438024032
:1014400029B1064A12680243044B1A6004E0034AB9
:1014500012688243014B1A60704700002438024032
:101460002DE9F0410021002300240226002502225C
:101470000227DFF8A4C1DCF800C00CF00C0131B188
:10148000042909D008290CD00C297CD148E0DFF8C8
:101490008CC1C0F800C089E0DFF884C1C0F800C08A
:1014A00084E0DFF874C1ACF1040CDCF800C0CCF3CC
:1014B0008055DFF864C1ACF1040CDCF800C00CF01E
:1014C0003F0275B1DFF858C1BCFBF2FCDFF8488180
:1014D000A8F10408D8F80080C8F388180CFB08F4B9
:1014E0000DE0DFF838C1BCFBF2FCDFF82C81A8F17D
:1014F0000408D8F80080C8F388180CFB08F4DFF85B
:1015000018C1ACF1040CDCF800C0CCF3014C0CF1B8
:10151000010C4FEA4C06B4FBF6FCC0F800C045E0F5
:10152000DFF8F4C0ACF1040CDCF800C0CCF380555B
:10153000DFF8E4C0ACF1040CDCF800C00CF03F02B2
:1015400075B1DFF8DCC0BCFBF2FCDFF8CC80A8F1A1
:101550000408D8F80080C8F388180CFB08F40DE0E4
:10156000DFF8B8C0BCFBF2FCDFF8AC80A8F10408DF
:10157000D8F80080C8F388180CFB08F4DFF898C08E
:10158000ACF1040C00E00CE0DCF800C0CCF3027C11
:101590000CF1010C4FEA4C07B4FBF7FCC0F800C09B
:1015A00004E0DFF878C0C0F800C000BF00BFDFF87B
:1015B00068C0DCF800C00CF0F0010909DFF864C075
:1015C0001CF80130D0F800C02CFA03FCC0F804C0AD
:1015D000DFF844C0DCF800C00CF4E051890ADFF801
:1015E00044C01CF80130D0F804C02CFA03FCC0F849
:1015F00008C0DFF824C0DCF800C00CF46041490BDF
:10160000DFF820C01CF80130D0F804C02CFA03FC2D
:10161000C0F80CC0BDE8F081083802400024F40096
:1016200000127A0014000020704700000CB5002062
:10163000019000904148006840F480303F490860C4
:1016400000BF3E48006800F4003000900198401C44
:101650000190009818B90198B0F5A04FF1D1374822
:10166000006800F4003010B10120009001E000207B
:1016700000900098012860D130484030006840F068
:1016800080502E49403108602D48006840F44040A9
:101690002B4908602948083000682849083108604B
:1016A0000846006840F4004008600846006840F4BE
:1016B000A05008602348091F0860081F006840F018
:1016C0008070091F086000BF1C48006800F00070AF
:1016D0000028F9D01A48006840F4803018490860A2
:1016E00000BF1748406800F480300028F9D0144843
:1016F000006840F400301249086000BF104840689C
:1017000000F400300028F9D040F205700E4908605E
:101710000A480830006820F00300084908310860D2
:101720000846006840F00200086000BF0348083027
:10173000006800F00C000828F8D10CBD0038024009
:1017400000700040085A4077003C0240042808D14D
:101750004FF0E021096941F004014FF0E0221161EE
:1017600007E04FF0E021096921F004014FF0E02289
:10177000116170477047000010B51548006840F4CB
:101780007000134908601348006840F001001149D7
:10179000086000200F49083108600E4800680E49B3
:1017A00008400C4908600D48091D0860081F0068C2
:1017B00020F48020091F0860002006490C310860D1
:1017C000FFF734FF4FF0006001498039086010BD19
:1017D00088ED00E000380240FFFFF6FE10300024E4
:1017E00010B50121880700F044F830B101218807C5
:1017F00000F030F801202CF0C9FC10BD7FB5054683
:101800000C4601210846FFF7FBFD0295ADF80440A8
:101810000020ADF80C00ADF8060001A94FF08040A3
:1018200000F042F801221146900700F033F81C2026
:101830008DF8000000208DF801008DF802000120D5
:101840008DF803006846FFF783FD0121880700F04B
:1018500004F87FBDCA430282704721B1028842F07A
:101860000102028004E002884FF6FE731A400280F3
:10187000704730B50246002000230024158A05EA8F
:101880000103958905EA010413B10CB1012000E0C0
:10189000002030BD1AB183890B43838102E0838924
:1018A0008B4383817047000000220288184B9842C6
:1018B0000ED0184B98420BD0B0F1804F08D0164B89
:1018C000984205D0154B984202D0154B984204D14E
:1018D0004FF68F731A404B881A43124B984207D029
:1018E000114B984204D04FF6FF431A400B891A431C
:1018F00002804B68C3620B880385054B984202D077
:10190000044B984201D18B7A03860123838270476E
:1019100000000140000401400004004000080040B5
:10192000000C0040001000400014004010B540F2D0
:1019300025511D4800F04AF810B31B4800F000F98B
:10194000C4B21A48008800F40040C8B9174800889B
:1019500000F4804060B10A2C03D0002013490880B5
:1019600020E01248008840F400401049088019E047
:101970000D2C06D10D48008840F480400B490880AA
:1019800010E00A480088C0F30D0009490C540748CC
:101990000088401C0549088008460088C72801DDEA
:1019A0000020088010BD0000004400402C000020F2
:1019B0008802002021B1828942F40052828104E031
:1019C00082894DF6FF731A408281704770B50246D6
:1019D000002400230025002040F66A16B14200D101
:1019E00000BFC1F3421501F01F03012606FA03F3FD
:1019F000012D02D19689334006E0022D02D1168ACC
:101A0000334001E0968A33400C12012606FA04F4B2
:101A10001688344013B10CB1012000E0002070BDE5
:101A2000F0B50346002400260025002040F66A1782
:101A3000B94200D100BF1846C1F3421401F01F069D
:101A4000012707FA06F5012C01D10C3004E0022C25
:101A500001D1103000E014301AB107682F4307603D
:101A600002E00768AF430760F0BD00002DE9FF47C3
:101A700005460E460024A14600BFA046B08900B12D
:101A800000BF2C8A24F44054F08804432C82AC8993
:101A900041F20C608443B08831890843718908435E
:101AA0000443AC81AC8A24F44074B0890443AC8212
:101AB0006846FFF7D5FC2048854202D01F48854282
:101AC00002D1DDF80C9001E0DDF80890A88900F45F
:101AD000004040B109EBC90000EB09103168490032
:101AE000B0FBF1F707E009EBC90000EB0910316822
:101AF0008900B0FBF1F76420B7FBF0F00401200986
:101B0000642101FB1078A88900F4004040B1322024
:101B100000EBC800B0FBF1F000F00700044308E060
:101B2000322000EB08106421B0FBF1F000F00F0050
:101B300004432C81BDE8FF870010014000140140E0
:101B400001468888C0F30800704700BFFEE770B503
:101B50000446002508E02168481C206008783038D9
:101B600005EB850100EB41052168087800F004F8D9
:101B70000028F0D1284670BD0146302903DB392901
:101B800001DC012070470020FCE7000010B5442173
:101B9000074801F042F90022212106482CF05EFBA3
:101BA0000549086002F088FF00200449087010BD54
:101BB000202B0020994B0008D8010020D4010020E0
:101BC0002DE9F04F87B007460C46154629462046BA
:101BD00000F066F920B94FF0FF3007B0BDE8F08F94
:101BE00000222946204600F0FDF808B10020F4E765
:101BF0000026204614F0DBFD401E00B20490204673
:101C000014F046FD401E00B2039068886188401AB7
:101C10000FFA80FABAF1000F16DD2088ADF8140033
:101C20006088ADF81600A088ADF8180060885044B0
:101C300000B2ADF81A003046711C4EB207EBC0007E
:101C40000599016006994160E8886188411A039806
:101C5000401A0FFA80FBBBF1000F1CDDB5F906003E
:101C6000B4F90610884216DA2088ADF81400E88826
:101C7000ADF81600A088ADF81800E888584400B206
:101C8000ADF81A003046711C4EB207EBC000059942
:101C9000016006994160B5F90200B4F9021088426A
:101CA00002DDB5F9020001E0B4F902008046B5F9A1
:101CB0000600B4F90610884202DAB5F9060001E020
:101CC000B4F9060002900298A0EB08000FFA80F920
:101CD00028882188401A00B20190019800281BDD55
:101CE000B9F1000F18DD2088ADF81400ADF81680AA
:101CF00021880198084400B2ADF8180008EB0900EB
:101D000000B2ADF81A003046711C4EB207EBC000AD
:101D10000599016006994160A8882188411A0498B4
:101D2000401A00B200900098002818DDA888ADF88D
:101D30001400ADF81680A9880098084400B2ADF8E8
:101D4000180008EB090000B2ADF81A003046711C0B
:101D50004EB207EBC000059901600699416030461C
:101D60003BE730B50346B1F90040B2F90050AC4250
:101D700002DDB1F9004001E0B2F900401C80B1F988
:101D80000240B2F90250AC4202DDB1F9024001E07A
:101D9000B2F902405C80B1F90440B2F90450AC429F
:101DA00002DAB1F9044001E0B2F904409C80B1F9D3
:101DB0000640B2F90650AC4202DAB1F9064001E041
:101DC000B2F90640DC800120B3F90040B3F90450B9
:101DD000AC4205DCB3F90240B3F90650AC4200DD79
:101DE000002030BDF8B504460D4616460027B4F96C
:101DF0000000B5F90010884212DBB4F90200B5F911
:101E0000021088420CDBB4F90400B5F904108842D2
:101E100006DCB4F90600B5F90610884200DC01279B
:101E20000FB90020F8BD0EB90120FBE72088ADF8FE
:101E300000006088ADF8020032466946284600F08E
:101E4000A7F808B90020EDE7A088ADF80000608889
:101E5000ADF8020032466946284600F099F808B904
:101E60000020DFE72088ADF80000E088ADF8020030
:101E700032466946284600F08BF808B90020D1E7C1
:101E8000A088ADF80000E088ADF80200324669464F
:101E9000284600F07DF808B90020C3E70120C1E71B
:101EA0000246B2F90000B1F90430984213DCB2F9ED
:101EB0000400B1F9003098420DDBB2F90200B1F92B
:101EC0000630984207DCB2F90600B1F902309842B8
:101ED00001DB012070470020FCE7F8B504460D4601
:101EE0001646B4F90400B5F90010884211DBB4F9C4
:101EF0000600B5F9021088420BDBB4F90000B5F911
:101F00000410884205DCB4F90200B5F906108842D5
:101F100001DD0120F8BD0EB90020FBE72088ADF8F7
:101F200000006088ADF8020032466946284600F09D
:101F30002FF808B10020EDE7A088ADF80000608818
:101F4000ADF8020032466946284600F021F808B193
:101F50000020DFE72088ADF80000E088ADF802003F
:101F600032466946284600F013F808B10020D1E750
:101F7000A088ADF80000E088ADF80200324669465E
:101F8000284600F005F808B10020C3E70120C1E7AA
:101F90002DE9FC5F05460E4614464FF0000AB6F9DF
:101FA0000000B5F90010884213DBB6F90000B5F95E
:101FB000041088420DDCB6F90200B5F9021088421F
:101FC00007DBB6F90200B5F90610884201DC4FF0D4
:101FD000010ABAF1000F02D10020BDE8FC9F002CDD
:101FE00001DC0120F9E7284614F0E1FB834600EB11
:101FF000DB704710284614F04BFB834600EBDB7088
:102000004FEA6008474501DA384600E0404681461D
:102010004C4500DD4C462888ADF800002888204457
:1020200000B2ADF804006888ADF80200688820446A
:1020300000B2ADF80600002231466846FFF7A8FF5F
:1020400080B1BDF80400204400B2ADF80400BDF832
:102050000600204400B2ADF806003146684627F07D
:10206000E1FFBAE7E888001B00B2ADF80200E8889B
:10207000ADF80600002231466846FFF789FF80B1BF
:10208000BDF80400204400B2ADF80400BDF8020021
:10209000001B00B2ADF802003146684627F0C2FFCF
:1020A0009BE7A888001B00B2ADF80000A888ADF837
:1020B0000400002231466846FFF76AFF80B1BDF890
:1020C0000000001B00B2ADF80000BDF80200001BCC
:1020D00000B2ADF802003146684627F0A3FF7CE766
:1020E0006888ADF802006888204400B2ADF80600A8
:1020F000002231466846FFF74BFF80B1BDF8000073
:10210000001B00B2ADF80000BDF80600204400B28C
:10211000ADF806003146684627F084FF5DE70120F0
:102120005BE710B5B1F90030B2F90040A34202DA22
:10213000B1F9003001E0B2F900300380B1F90230AA
:10214000B2F90240A34202DAB1F9023001E0B2F979
:1021500002304380B1F90430B2F90440A34202DDF9
:10216000B1F9043001E0B2F904308380B1F90630EE
:10217000B2F90640A34202DDB1F9063001E0B2F93E
:102180000630C38010BD00002DE9FC41054600BFAC
:1021900000BF2BF0EBFF07460020019035B15349FB
:1021A000E868086028462CF0EBF903E017F0F6FB2E
:1021B0004E4908604D490968086927F025FD4B48DC
:1021C0000068406920B149490968486927F01CFD49
:1021D00046490968C86927F017FD44490968086A33
:1021E00027F012FD41480068006988B900203F4986
:1021F0000968A1F850013EA0444B40F23D1244A1B1
:102200000090022000F0E0FE00BF00BFBDE8FC81AE
:1022100027F0D0FF2FF026F82EF032FC334800686C
:10222000B0F85001002856D0304800680068007CA3
:1022300000F0010040B32D4800680068C0684068A5
:1022400010B3002419E02948006800F59870005D7B
:1022500000B110E02548006800F5AC7000F03FFECA
:10226000064622480068303000EBC4000168316047
:102270004068706000BF601C84B21C480068B0F801
:102280005001A042DFDC00BF4FF4807117480068A6
:10229000303021F097FB20211448006800F5987039
:1022A00021F090FB002011490968A1F8500138463F
:1022B0002BF04EFF01900D4800680068406A50B155
:1022C0000A49096808680949096809684B6A184990
:1022D0000A680199984721F017F800F061F800F0BA
:1022E00029F800BF00BF00BF90E700007400002085
:1022F0007468657265206973206E6F20616374690C
:1023000076652073637265656E000000B26803082D
:102310002E2E5C4C56474C5C6C76676C5C7372631B
:102320005C636F72655C6C765F726566722E6300CB
:102330007000002010B5002416E0C4EBC4000C4966
:1023400051F8200030B1C4EBC401094A52F8210011
:1023500021F034F9C4EBC401054A02EB81001C21D1
:1023600021F030FB601CC4B2042CE6DB10BD000081
:10237000FC2B00200146094A10680BE042688A42A3
:1023800002D002688A4204D1027E22F00102521C6D
:10239000027640690028F1D1704700004800002013
:1023A0007047000010B50421014800F036FD10BD53
:1023B000142B002010B52021014800F02EFD10BD87
:1023C0002C2B00202DE9FF4704460D4616461F46DC
:1023D000DDE90C896FB9B8F5807F0AD10020208033
:1023E0006080681E00B2A080701E00B2E080BDE870
:1023F000FF8700200090019002900390ADF80450F8
:10240000ADF80A60ADF80C50ADF80E604B46424690
:102410003946684627F03CFD4B464246394601A8FE
:1024200027F036FD4B464246394602A827F030FDDC
:102430004B464246394603A827F02AFDBDF9000065
:10244000BDF90410884202DABDF9000001E0BDF9CF
:102450000400BDF90810BDF90C20914202DABDF963
:10246000081001E0BDF90C1088420BDABDF900003C
:10247000BDF90410884202DABDF900000DE0BDF993
:1024800004000AE0BDF90800BDF90C10884202DA28
:10249000BDF9080001E0BDF90C00801E00B22080EB
:1024A000BDF90000BDF90410884202DDBDF900004D
:1024B00001E0BDF90400BDF90810BDF90C209142FE
:1024C00002DDBDF9081001E0BDF90C1088420BDDFA
:1024D000BDF90000BDF90410884202DDBDF900001D
:1024E0000DE0BDF904000AE0BDF90800BDF90C10CB
:1024F000884202DDBDF9080001E0BDF90C00801C36
:1025000000B2A080BDF90210BDF90600814202DAD6
:10251000BDF9020001E0BDF90600BDF90A20BDF9D0
:102520000E108A4202DABDF90A1001E0BDF90E1060
:1025300088420BDABDF90210BDF90600814202DAC9
:10254000BDF902000DE0BDF906000AE0BDF90A1070
:10255000BDF90E00814202DABDF90A0001E0BDF9C1
:102560000E00801E00B26080BDF90210BDF90600A9
:10257000814202DDBDF9020001E0BDF90600BDF9AE
:102580000A20BDF90E108A4202DDBDF90A1001E0F1
:10259000BDF90E1088420BDDBDF90210BDF9060031
:1025A000814202DDBDF902000DE0BDF906000AE03E
:1025B000BDF90A10BDF90E00814202DDBDF90A0025
:1025C00001E0BDF90E00801C00B2E08000BF0EE704
:1025D0002DE9F74181B0054616460024164C2BF034
:1025E000C5FD8046334629462046029A1DF08AFFE3
:1025F000074697B911A01C4B7D221CA10090022018
:1026000000F0E2FC2C21204621F0DCF94FF00040E4
:10261000A062002004B0BDE8F0810020A062E06963
:1026200018B940462BF094FDE061E06908B901203B
:10263000E0612046EEE70000502B0020496D616705
:102640006520647261772063616E6E6F74206F70B5
:10265000656E2074686520696D61676520726573B9
:102660006F75726365000000BE6903082E2E5C4C16
:1026700056474C5C6C76676C5C7372635C64726129
:10268000775C6C765F696D675F63616368652E6315
:10269000000000003EB51421194800F0BEFB1DF0FB
:1026A000A3FE044600BF002C0DD116A019A11DA247
:1026B000244BCDE900210290402223A1032000F009
:1026C00083FC00BFFEE700BF44B929A01D4B422296
:1026D0001DA10090022000F077FC3EBD2D49204650
:1026E0001EF006F82C4920461EF004F82B4920461F
:1026F0001EF002F82A4920461DF0F8FF00BFECE763
:10270000382B00204F7574206F66206D656D6F72D9
:10271000790000006465636F64657220213D204E7E
:10272000554C4C004173736572746564206174206C
:1027300065787072657373696F6E3A20257320280F
:1027400025732900E76903082E2E5C4C56474C5C24
:102750006C76676C5C7372635C647261775C6C76D8
:102760005F696D675F6465636F6465722E63000007
:102770006C765F696D675F6465636F6465725F69DE
:102780006E69743A206F7574206F66206D656D6F89
:102790007279000029F8010821FE01087D02020873
:1027A000F1F7010838B504460D461021284621F0FE
:1027B00009F920680078012804D1A08A2880E08ADD
:1027C00068800CE020680078022802D1E068686028
:1027D00005E020680078042801D10A20686020689C
:1027E000406830B100BF00BF20682946426890476A
:1027F00007E004A00B4BBD220BA10090022000F0CB
:10280000E3FB38BD696E6465765F726561645F6322
:1028100062206973206E6F742072656769737465D6
:1028200072656400A15405082E2E5C4C56474C5C22
:102830006C76676C5C7372635C68616C5C6C765F11
:1028400068616C5F696E6465762E63002DE9FE4FEA
:102850000446A08A18B9E08A08B9BDE8FE8FE66A86
:1028600096B920460EF03EF8064606B9F5E7204632
:1028700011F014FC0022092130461BF017FD60788E
:10288000C0F3400000B1E8E700274FF48078B1467C
:1028900016E00021484624F03FFE384407B20021EC
:1028A000484624F075FE8246C0170AEB10600012FD
:1028B00000FB08F00FFA80F8484623F0C3F9814680
:1028C000B9F1000FE5D117B9B8F5807F11D0784282
:1028D00007B24FF4803090FBF8F00FFA80F8002038
:1028E00000906B464246394604F1140027F0D0FAB6
:1028F00000BF00200290019094F8400000F00F000B
:10290000032812D1304623F0BBFA8246304623F02A
:102910003FFA834603200090B4F9141053465A46F8
:1029200030460DF0FDF9029012E0304623F02AFB0C
:102930008246304623F09EF983460C200090B4F97D
:1029400016105B46524630460DF0EAF9019000BF82
:10295000304623F0EFF9054605F0010028B9BDF92E
:102960000800002801DD0020029005F0020028B9CF
:10297000BDF90800002801DA0020029005F00400EB
:1029800028B9BDF90400002801DD0020019005F000
:10299000080028B9BDF90400002801DA00200190E0
:1029A00001AA02A920462FF0ABF9BDF90420BDF918
:1029B0000810304600F0A1FB6078C0F3400000B181
:1029C0004BE7208BBDF80810084401B22183608BCF
:1029D000BDF80410084401B2618300BF3DE72DE952
:1029E000F84F0446D4F82CB0BBF1000F01D1BDE87C
:1029F000F88F94F8400000F00F0000B9F7E71EF0E0
:102A000019FA06463068477E4021584624F07AFF7E
:102A100010B90021E183A183584623F09FFA804634
:102A2000584623F0A5FA054694F8400000F00F0040
:102A30000C2843D10021A1831DBBB4F91E00C7F1AE
:102A400064014843642190FBF1F001B2E1835846F0
:102A500023F010F98146584623F094FA82460C2060
:102A60000090B4F91E104B46524658460DF058F9E6
:102A7000E083B4F91E2000231946584626F0EEFAEA
:102A800069E020462FF093F900900021E1836A4627
:102A900020462FF035F9BDF9003041F6FF72514262
:102AA00058460EF011F98146BDF80000484402B2C4
:102AB00001230021584626F0D1FA4CE094F840005A
:102AC00000F00F00032846D10021E183B8F1000F88
:102AD00023D1B4F91C00C7F164014843642190FB81
:102AE000F1F001B2A183584623F052F981465846CD
:102AF00023F0C6F9824603200090B4F91C10534617
:102B00004A4658460DF00CF9A083B4F91C10002376
:102B10001A46584626F0A2FA1DE020462FF02CF95E
:102B200000900021A1830022694620462FF0E8F89A
:102B3000BDF9003041F6FF72514258460EF02AF8B6
:102B40008146BDF80000484401B2012300225846E6
:102B500026F084FA00BFA08B002860D1E08B00280B
:102B60005DD11DBB584623F00DFA8146584623F02F
:102B700081F88246B9F1000F02DCBAF1000F14DDD2
:102B8000B9F1000F06DA01234A460021584626F023
:102B900065FA0AE0BAF1000F07DA0123CAF1000072
:102BA00002B20021584626F059FA00BFB8F1000FD2
:102BB00023D1584623F0ECF88146584623F060F9BB
:102BC0008246B9F1000F02DCBAF1000F14DDB9F151
:102BD000000F06DA012300224946584626F03EFA45
:102BE0000AE0BAF1000F07DA01230022CAF100005F
:102BF00001B2584626F032FA00BF32460A21584642
:102C00001BF054FB6078C0F3400000B1EFE694F88D
:102C1000400020F00F0184F840100021E16200BF65
:102C2000E5E60000F0B585B004460F4614B916F08D
:102C3000B5FE04460CB905B0F0BD204617F01AF8F1
:102C400000B9F8E794F82800C0F3800040B13DA037
:102C5000474BD42247A10090032000F0B5F9EAE7E2
:102C60001FB90020A4F85001E5E70020ADF80C00E2
:102C7000ADF80E00204616F0A9FE401E00B2ADF8D9
:102C80001000204616F0DAFF401E00B2ADF8120028
:102C900003AA394601A8FFF764F8064606B9CAE751
:102CA0002068007CC0F3400060B103982063049862
:102CB00060630120A4F85001606810B160682BF0D7
:102CC0006BFCB8E72068806918B1206801A98269A7
:102CD000904700250BE004F1300000EBC501002215
:102CE00001A8FFF77FF800B1A5E7681C85B2B4F82A
:102CF0005001A842EFDCB4F85001202809DAB4F8FA
:102D0000502104F1300101EBC20001A913F027FCAE
:102D10000BE00020A4F85001B4F8502104F1300178
:102D200001EBC20003A913F01AFCB4F85001401CD7
:102D3000A4F85001606810B160682BF02DFC00BF52
:102D400079E700006465746563746564206D6F6481
:102D5000696679696E672064697274792061726549
:102D6000617320696E2072656E64657200000000F8
:102D7000A56803082E2E5C4C56474C5C6C76676C3D
:102D80005C7372635C636F72655C6C765F726566C0
:102D9000722E630070B50546284600F013F804460D
:102DA00000260CE02146284600F024F8064621467D
:102DB000284600F0C0F8204620F000FC3446002CE5
:102DC000F0D170BD014609B9002070474868FCE7A2
:102DD00070B5064600243046FFF7F4FF054605E0CF
:102DE000641C2946304600F005F80546002DF7D151
:102DF000204670BD02460B461068001D034418684B
:102E0000704702460B461068034418687047014635
:102E100009B9002070478868FCE7002242608260A0
:102E2000CA1C22F003010160704770B50446216896
:102E300001F1080020F036FA0546A5B10022294626
:102E400020462DF075F82946204662682DF062F87C
:102E5000606820B12A46204661682DF069F86560F7
:102E6000A06800B9A560284670BD2DE9F04106466E
:102E70000D4606B115B90020BDE8F0813046FFF7D8
:102E8000A1FFA84206D13046FFF7CFFF044624BB7E
:102E90000020F1E7316801F1080020F003FA044650
:102EA0000CB90020E8E729463046FFF7AAFF07469D
:102EB0002246394630462DF02DF83A462146304616
:102EC0002DF036F82246294630462DF031F82A46B4
:102ED000214630462DF01EF800BF2046CCE770B5E5
:102EE0000446216801F1080020F0DCF90546A5B18F
:102EF0000022294620462DF00DF829462046A268DA
:102F00002DF016F8A06820B12A462046A1682DF0C1
:102F100001F8A560606800B96560284670BD01468B
:102F200009B901207047486818B9886808B90120B4
:102F3000F8E70020F6E72DE9F04104460D460CB90C
:102F4000BDE8F0812046FFF73DFFA8420FD129469A
:102F50002046FFF74FFF6060606810B90020A06056
:102F60002FE00022204661682CF0E2FF29E0204695
:102F7000FFF74DFFA8420FD129462046FFF741FF3A
:102F8000A060A06810B9002060601AE0002220460E
:102F9000A1682CF0BFFF14E029462046FFF731FF5F
:102FA000064629462046FFF725FF07463A463146A2
:102FB00020462CF0AFFF3246394620462CF0B8FFB1
:102FC00000BF00BFBCE700002DE9F04FADF50B7D61
:102FD00007460E4690469946062F03DB0DF50B7DFE
:102FE000BDE8F08F022F43DB95A88A903046FDF7AD
:102FF00082FA044608E0305D2F2802D0305D5C285C
:1030000001D1641C02E0641E002CF4D100BF2BF03F
:10301000ADF805461748006828B3949808908AA828
:1030200009904FF47A70B5FBF0F100FB115AB5FB33
:10303000F0FB301908A9CDE90391CDE905080E4848
:103040000068281ACDE900BA02900C4850F82730E1
:103050000BA24FF400710AA828F08EF90AA80549BE
:103060000968884700BF0448056000208A9000BFB7
:1030700000BFB3E700020020040200200802002085
:103080005B25735D092825642E253033642C202BA5
:10309000256429092025733A2025705620092869BE
:1030A0006E202573206C696E6520232564290A0033
:1030B00010B504462068806818B1206821468268EF
:1030C00090472068006828B120680068206020468A
:1030D000FFF7EEFF10BD0146886818B18868B0F9A7
:1030E000160070470020FCE70146886818B1886820
:1030F000807E800970470020FCE72DE9F0410446FE
:103100000D4616461DB916B90120BDE8F0812046CE
:1031100021F010FCA068008A284400B2A16808824F
:10312000A068408A304401B2A0684182012332463F
:103130002946204625F082F800220B2120461BF06C
:10314000B5F80746012F01D03846DEE7204624F0C7
:103150009DFF0120D9E7F7B582B004460E4614B9A9
:10316000049805B0F0BD00BF62223146204624F02D
:1031700059F80190019D00BFBDB12868A8B100BFFA
:1031800063223146204624F04DF801900198C0B2E8
:1031900007464FB13A462B68284604999847019054
:1031A000BDF80400ADF8100000BF0498D9E7000096
:1031B0002DE9F04F97B004468B4691469A46209DE4
:1031C000608C20F0080008306084A4F820902A89E0
:1031D0005946204624F026F81690A4F820A02A8903
:1031E0005946204624F01EF81590608C20F0080007
:1031F0006084DDE9151088420CD1DDE915108842A4
:1032000008D1BDF85800BDF85410884202D117B05B
:10321000BDE8F08FA4F820902A895946204624F072
:1032200001F81690A4F820A0594620460FF0F2FBB2
:1032300014902989149A1068169A29F043FA28895B
:103240000B2833D147F6FF711698884202D01598A3
:1032500088422BD1204624F0F8FA029000EBD0707F
:103260004710204622F09EFC029000EBD0704FEAFF
:10327000600847F6FF711698884208D1781C08F15B
:103280000101884200DA01E008F10100169047F6DA
:10329000FF711598884208D1781C08F10101884215
:1032A00000DA01E008F10100159000BF2948FFF79E
:1032B000BCFD064600BF76B927A02BA12DA2354B39
:1032C000CDE90021029040F2631233A10320FFF701
:1032D0007BFE00BFFEE700BF06B998E71698F060D6
:1032E0001598306134602889B080C6F808B003A80A
:1032F00012F0A6F9314603A812F061FA304903A88A
:1033000012F026FA2F48059000BF2F4903A812F0AB
:103310002DFAFF22002103A812F03FFA298803A802
:1033200012F02DFA698803A812F00BFAE8680A90E7
:1033300000BF03A8002190F8422061F3000280F84A
:10334000422000BF2869099003A812F04FFA00BF7D
:103350005DE70000442B00204F7574206F66206DE0
:10336000656D6F7279000000747220213D204E550A
:103370004C4C000041737365727465642061742065
:1033800065787072657373696F6E3A2025732028B3
:1033900025732900486803082E2E5C4C56474C5C68
:1033A0006C76676C5C7372635C636F72655C6C7681
:1033B0005F6F626A5F7374796C652E630000000052
:1033C000B55903085D5C03088D5B030810B5142133
:1033D0000148FFF722FD10BD442B00202DE9FE4FD0
:1033E00004460F4690464FF0000900254CE1E06886
:1033F00000EBC5004068C0F3406000B143E1E16804
:1034000001EBC501496821F07F4026F0C3FB064669
:1034100026EA070008B9012000E00020029026EA11
:10342000080008B9012000E000200190DDE9010159
:10343000814270D0E06850F835A04FF0000B6A462A
:103440001021504628F05CFA10B14FF0010B98E0C3
:103450006A461121504628F053FA10B14FF0010B83
:103460008FE06A461221504628F04AFA10B14FF018
:10347000010B86E06A461321504628F041FA10B14C
:103480004FF0010B7DE06A461521504628F038FACE
:1034900010B14FF0010B74E06A461421504628F039
:1034A0002FFA10B14FF0010B6BE06A460A2150462B
:1034B00028F026FA10B14FF0010B62E06A466B214A
:1034C000504628F01DFA10B14FF0010B59E06A4642
:1034D0006C21504628F014FA10B14FF0010B50E067
:1034E0006A460121504628F00BFA10B14FF0010B4B
:1034F00047E06A460421504628F002FA10B14FF026
:10350000010B3EE06A460221504628F0F9F918B155
:103510004FF0010B35E0B5E06A460321504628F034
:10352000EFF910B14FF0010B2BE06A460521504630
:1035300028F0E6F910B14FF0010B22E06A460621AF
:10354000504628F0DDF910B14FF0010B19E06A4642
:103550003221504628F0D4F910B14FF0010B10E0A1
:103560006A466E21504628F0CBF910B14FF0010B9E
:1035700007E06A466D21504628F0C2F908B14FF0C5
:10358000010BBBF1000F02D00320BDE8FE8F6A469D
:103590006921504628F0B4F910B14FF0020970E0EB
:1035A0006A466A21504628F0ABF910B14FF0020983
:1035B00067E06A466E21504628F0A2F910B14FF03C
:1035C00002095EE06A466D21504628F099F910B173
:1035D0004FF0020955E06A463721504628F090F92D
:1035E00010B14FF002094CE06A463821504628F0ED
:1035F00087F910B14FF0020943E06A463521504681
:1036000028F07EF910B14FF002093AE06A464021F5
:10361000504628F075F910B14FF0020931E06A46C2
:103620004521504628F06CF910B14FF0020928E00E
:103630006A464121504628F063F910B14FF0020963
:103640001FE06A464221504628F05AF910B14FF067
:10365000020916E06A464321504628F051F910B19C
:103660004FF002090DE06A464921504628F048F91A
:1036700010B14FF0020904E0B9F1000F01D14FF091
:10368000010900BF00BF6D1C608CC0F30510A8428B
:103690003FF6ADAE484678E7014800687047000045
:1036A0007400002070470146C1F30412072A00DDB0
:1036B0000722D0B27047000001464FF6FF708142EA
:1036C00001D11F20704709B90020FBE7712902DAF8
:1036D0000948405CF6E7A1F1710081B20748006833
:1036E00038B107480068814203D204480068405C52
:1036F000E8E70020E6E7000094570508FC010020F9
:103700002C02002010B518210348FFF786FB01208A
:103710002AF01EFE10BD0000F02A00202DE9F04125
:1037200005460F4616460DB9BDE8F0812846FCF760
:10373000E2FE8046394628460A4A12689047074604
:10374000E8193146074A1268904706463C4603E0AE
:10375000A019285C2855641CA8EB0600A042F7D2EB
:1037600000BFE1E75C0200202DE9F04106460C466F
:1037700017461D4629463046084A12689047206081
:10378000206830B1296888190021044A12689047DE
:1037900000E000203860BDE8F08100005402002005
:1037A0002DE9F04F87B004460F4692469846DDE972
:1037B00010560DB1002028801CB9002007B0BDE8CC
:1037C000F08F207808B90020F8E70FB90020F5E75E
:1037D0004FF0000906F0020010B906F0040098B19D
:1037E000002000E0401C215C0A2905D0215C0D2945
:1037F00002D0215C0029F5D1215C01B1401C15B13A
:103800004FF0FF312980D9E706F0020008B141F6F8
:10381000FF7800200690059038E00020049005987D
:1038200008B9012000E0002006A904AACDE9006241
:10383000CDE90210059960184346524639462BF0EF
:1038400057F983460498A8EB00000FFA80F8049813
:1038500048440FFA80F9BBF1000F00D11CE0059835
:103860005844059020780A2802D020780D2800D1ED
:1038700012E00598205C0A2803D00598205C0D28EA
:1038800003D10598401C059006E000BF0598205C18
:1038900010B1B8F1000FC0DC00BF059870B905A9E0
:1038A0002046094A12689047834635B1002259469E
:1038B00038461AF059FF0FFA80F900BF0DB1A5F88C
:1038C000009005987AE70000540200202DE9F047A7
:1038D00006468846174606B10FB9BDE8F087304660
:1038E000FCF709FE81463846FCF705FE044604B99C
:1038F000F3E704EB090A414630460B4A1268904749
:103900008046554603E0281B305C70556D1E08EB61
:103910000400A842F7D906EB08002246394620F0F9
:103920000BF800BFD9E700005C020020024600202F
:103930000FA31B788B4211D113781BB9012313708D
:1039400001200BE01378012B02D10023137005E056
:103950001378022B02D10023137001201378012B5E
:1039600004D1202901D102231370012070470000E7
:103970002300000073B584B00646059803903246D4
:1039800000210846039B2BF00BFC0546002003900A
:103990000024681C1FF086FC044600BF002C0ED1DA
:1039A0000EA012A115A21D4BCDE90021029040F2FC
:1039B000E1121BA10320FFF707FB00BFFEE700BFDA
:1039C00014B9002006B070BD002060553246691C55
:1039D0002046059B2BF0E4FB2046F3E74F7574204F
:1039E0006F66206D656D6F72790000007465787484
:1039F00020213D204E554C4C000000004173736562
:103A0000727465642061742065787072657373697F
:103A10006F6E3A202573202825732900315A050836
:103A20002E2E5C4C56474C5C6C76676C5C737263F4
:103A30005C6D6973635C6C765F7478742E630000F0
:103A40002DE9F04781460E4614461F46DDF820A0BA
:103A500035461BE0600800FB075529464846D0471D
:103A6000B0F1000809DD04F0010080F00100C0EBB6
:103A70005404E8190546064608E0B8F1000F02DADA
:103A80006408354602E02846BDE8F087002CE1D105
:103A90000020F9E72DE9FF4F85B08346DDE9158A5F
:103AA000DDE91349DDE91775129E05F00200F8B94A
:103AB0004FB105F0010030B1B9F1000F02D105F0AE
:103AC0000C0000B17F1E03E030222046641C3254FB
:103AD000544501D2202CF7D303E030222046641C49
:103AE000325405F0010018B1BC4201D2202CF4D3AD
:103AF00005F01000B0B305F4806050B94CB15445E6
:103B000001D0BC4205D1641E1CB1B8F1100F00D128
:103B1000641EB8F1100F09D105F0200030B9202C37
:103B200004D278222046641C325415E0B8F1100FFC
:103B300009D105F0200030B1202C04D258222046B3
:103B4000641C325408E0B8F1020F05D1202C03D2D6
:103B500062222046641C3254202C03D2302220469C
:103B6000641C3254202C16D2B9F1000F04D02D223F
:103B70002046641C32540EE005F0040020B12B22D4
:103B80002046641C325406E005F0080018B12022DB
:103B90002046641C3254CDE90275CDE900645846D4
:103BA00006A90EC900F0A2F809B0BDE8F08F2DE912
:103BB000FF4F8FB08046DDE91FABDDE91D96219DEB
:103BC0001C9C00270CB925F0100505F4806000B19D
:103BD000E4B100BFB4FBF6F106FB1141C8B20A28FC
:103BE00002DA00F1300107E005F0200109B14121BE
:103BF00000E0612101440A39CBB239467F1C07AA93
:103C00005354B4FBF6F40CB1202FE3D307A8CDE94D
:103C100004AB8DE8810203960695404610A90EC9B3
:103C2000FFF738FF13B0BDE8F08F2DE9FF4F8FB0DD
:103C3000DDE9217BDDF89080209EDDE91C454FF019
:103C40000009002184EA01006940084301D128F0FD
:103C5000100808F4806028B1002184EA010069405E
:103C600008432DD000BF32463B4620462946FCF78C
:103C70003EFB02F0FF0ABAF10A0F02DA0AF1300045
:103C800007E008F0200008B1412000E06120504426
:103C90000A38C2B2484609F1010907A90A54324656
:103CA0003B4620462946FCF722FB04460D460021F0
:103CB00084EA01006940084302D0B9F1200FD2D351
:103CC0002398CDE9036BCDE9050807A91E98CDE936
:103CD000001902900FA80FC8FFF7DCFE13B0BDE873
:103CE000F08F9A4200D28854704770472DE9FF5FE9
:103CF00005461446DDE90EA6DDE91087A34607F068
:103D0000020078B907F0010060B9B14607E0224629
:103D1000641C2020039B0199A84709F10109C145B2
:103D2000F5D300BF08E02246641C711E0E461AF847
:103D30000100039B0199A847002EF4D107F002006F
:103D400050B105E02246641C2020039B0199A8473E
:103D5000A4EB0B004045F5D3204604B0BDE8F09F2E
:103D600000BF70472DE9FF4F8BB0074600250C9828
:103D700000B9FA4FEAE20E98007825280AD02A46C0
:103D80006D1C0E990878DDE90C13B8470E98401C9D
:103D90000E90DBE20E98401C0E90002400BF0E989F
:103DA00000782B2819D004DC20281ED023282CD101
:103DB00023E02D2809D0302827D144F001040E98A3
:103DC000401C0E9001200A9022E044F002040E985C
:103DD000401C0E9001200A901AE044F004040E9852
:103DE000401C0E9001200A9012E044F008040E9846
:103DF000401C0E9001200A900AE044F010040E9836
:103E0000401C0E9001200A9002E000200A9000BFA2
:103E100000BF0A980028C2D180460E990878FDF7A5
:103E2000ABFE20B10EA8FDF792FE804612E00E9880
:103E300000782A280ED1189901C91891002804DAAF
:103E400044F00204C0F1000800E080460E99491CCD
:103E50000E9100BF4FF000090E9800782E281FD158
:103E600044F480640E98401C0E900E990878FDF77B
:103E700083FE20B10EA8FDF76AFE814610E00E9881
:103E800000782A280CD1189901C91891002801DD61
:103E9000014600E0002189460E99491C0E9100BFA1
:103EA0000E9800786C280AD004DC682816D06A289E
:103EB00035D128E0742820D07A2830D129E044F484
:103EC00080740E98401C0E900E9800786C2804D1D7
:103ED00044F400740E98401C0E9021E044F08004DD
:103EE0000E98401C0E900E980078682804D144F07B
:103EF00040040E98401C0E9012E044F480740E981A
:103F0000401C0E900CE044F400740E98401C0E907F
:103F100006E044F480740E98401C0E9000E000BF50
:103F200000BF0E98007869281DD00EDC622821D0D1
:103F300006DC25287ED050281AD058287BD115E0E1
:103F4000632879D06428F9D10CE0732875D004DC9B
:103F50006F280ED07028F1D109E0752804D0782898
:103F6000ECD102E000BF00BF00BF00BF00BF00BF38
:103F700000BF00BF0E980078782803D00E98007814
:103F8000582801D1102623E00E980078702803D01D
:103F90000E98007850280CD1102644F0100444F4F8
:103FA00080740E984078562812D10E98401C0E90BE
:103FB0000EE00E9800786F2801D1082608E00E98D0
:103FC0000078622801D1022602E00A2624F01004BB
:103FD0000E980078582803D00E980078502801D108
:103FE00044F020040E980078692805D00E980078D7
:103FF000642801D024F00C0404F4806008B124F09B
:1040000001040E980078692803D00E98007864287F
:104010007CD104F40070B8B31898C01D20F00700DC
:104020001890D0E900AB189A083218920020CDE918
:10403000069803E073E17CE1F2E01CE1CDE9046065
:104040000894BAEB00017BEB000001DA012000E0EC
:104050000020002102900846B1EB0A0170EB0B0032
:1040600002DA5046594605E000200146B0EB0A004E
:1040700061EB0B01CDE900012A463846DDE90C135E
:10408000FFF7D3FD0546C7E0FFE704F48070D0B129
:10409000189850F804AB18904FEADA70CDE90398FD
:1040A00002960594BAF1000F01DD514601E0CAF114
:1040B0000001CDE900102A463846DDE90C13FFF770
:1040C00076FD0546A8E004F0400028B1189810F8E5
:1040D000041B1890C8B20DE004F0800028B11898B5
:1040E00030F8041B189008B204E01898006818997A
:1040F000091D189182464FEADA70CDE903980296BD
:104100000594BAF1000F02DD514602E00BE0CAF15E
:104110000001CDE900102A463846DDE90C13FFF70F
:1041200046FD054678E00E980078562818D1189874
:1041300050F804AB1890DAF8040000680990099868
:104140000090DAF800300D98421B0C98411938465F
:10415000FFF708FE0544002009905DE0EB3C0008F5
:1041600004F40070D0B11898C01D20F00700CDE90C
:104170000698089418900020CDE9046002901899E0
:1041800003C9189A08321892CDE900012A46384628
:10419000DDE90C13FFF749FD05463DE004F48070AE
:1041A00098B10022CDE9039802960594189800680A
:1041B0001899091DCDE9000218912A463846DDE913
:1041C0000C13FFF7F4FC054626E004F0400028B18C
:1041D000189810F8041B1890C8B20DE004F0800085
:1041E00028B1189830F8041B189088B204E0189889
:1041F00000681899091D189182460020CDE900A099
:10420000CDE90398029605942A463846DDE90C1359
:10421000FFF7CDFC054600BF0E98401C0E9093E0C2
:10422000012604F0020050B905E02A466D1C20204A
:10423000DDE90C13B8473046761C4045F5D3189994
:1042400011F8043BD8B22A466D1C1891DDE90C1315
:10425000B84704F0020050B105E02A466D1C20204A
:10426000DDE90C13B8473046761C4045F5D30E986F
:10427000401C0E9068E0189850F804AB1890504617
:10428000B9F1000F01D0494601E04FF0FF310A4675
:10429000014600E0491C0B781BB1131EA2F101027C
:1042A000F8D10E1A04F4806028B14E4501D2304690
:1042B00000E04846064604F0020050B905E02A46F0
:1042C0006D1C2020DDE90C13B8473046761C4045B4
:1042D000F5D306E01AF8010B2A466D1CDDE90C1334
:1042E000B8479AF8000040B104F480600028F1D08B
:1042F000B9F10000A9F10109ECD104F0020050B1BC
:1043000005E02A466D1C2020DDE90C13B847304635
:10431000761C4045F5D30E98401C0E9014E02A46BA
:104320006D1C2520DDE90C13B8470E98401C0E903B
:104330000AE02A466D1C0E990878DDE90C13B8478F
:104340000E98401C0E9000BF00BF00BF0E98007872
:1043500000287FF410AD0D98854201D2284601E077
:104360000D98401E02460020DDE90C13B847284690
:104370000FB0BDE8F08F2DE9F04104460E4600274E
:1043800074B13146204600F0C7F80546B5F5803FC8
:1043900005D20C2D01D9284600E00C20074600BFAD
:1043A0003846BDE8F08100007CB505460C4600BFEC
:1043B000601E204000280CD008A018A11E4B4FF40E
:1043C000F672CDE900101DA10320FEF7FDFD00BF30
:1043D000FEE700BF601E2840281A7CBD30203D3D0E
:1043E0002028616C69676E20262028616C69676EE1
:1043F000202D2031292920262620226D7573742036
:10440000616C69676E20746F206120706F776572D0
:10441000206F662074776F2200000000417373657F
:104420007274656420617420657870726573736955
:104430006F6E3A2025730000C25805082E2E5C4C82
:1044400056474C5C6C76676C5C7372635C6D697329
:10445000635C6C765F746C73662E63007CB5054696
:104460000C46601E2844611E20EA010600BF601E43
:10447000204000280CD008A017A11E4B4FF4FA7260
:10448000CDE900101CA10320FEF79EFD00BFFEE752
:1044900000BF30467CBD000030203D3D2028616CCF
:1044A00069676E20262028616C69676E202D203197
:1044B000292920262620226D75737420616C696776
:1044C0006E20746F206120706F776572206F662098
:1044D00074776F2200000000417373657274656425
:1044E0002061742065787072657373696F6E3A200D
:1044F00025730000CD5805082E2E5C4C56474C5CA9
:104500006C76676C5C7372635C6D6973635C6C760C
:104510005F746C73662E63007CB505460C4600BF65
:10452000601E204000280CD009A019A11F4B4FF499
:10453000F372CDE900101EA10320FEF745FD00BF78
:10454000FEE700BF601E2844611E88437CBD00005A
:1045500030203D3D2028616C69676E20262028614F
:104560006C69676E202D2031292920262620226D96
:1045700075737420616C69676E20746F20612070A0
:104580006F776572206F662074776F2200000000DD
:10459000417373657274656420617420657870720C
:1045A000657373696F6E3A2025730000B95805086A
:1045B0002E2E5C4C56474C5C6C76676C5C73726359
:1045C0005C6D6973635C6C765F746C73662E6300FC
:1045D0002DE9FE4380460E464446012060860025B4
:1045E00000270DE056F8270030A1FBF7FDFF10B1C2
:1045F000681C85B202E0608E401C6086781C87B221
:1046000056F8270020B156F8270000780028E9D195
:10461000208EA84201D1BDE8FE83A06A20B1A06A25
:104620001EF0CCFF0020A062E06A20B1E06A1EF01C
:10463000C5FF0020E062E8001EF034FEA06200BF6B
:10464000A06A00280ED11AA01DA124A22B4BCDE9EF
:104650000021029040F2753229A10320FEF7B4FC3C
:1046600000BFFEE700BF68001EF01CFEE06200BF56
:10467000E06A70B90EA02CA118A2204BCDE9002150
:10468000029040F277321EA10320FEF79DFC00BF8E
:10469000FEE700BFA06A08B1E06A00B90025690022
:1046A000E06A1FF08FF9258600BFB4E70A0000001A
:1046B0004F7574206F66206D656D6F727900000014
:1046C00062746E6D2D3E627574746F6E5F6172659B
:1046D000617320213D204E554C4C000041737365A1
:1046E0007274656420617420657870726573736993
:1046F0006F6E3A202573202825732900FC5A05087F
:104700002E2E5C4C56474C5C6C76676C5C73726307
:104710005C776964676574735C6C765F62746E6DF8
:1047200061747269782E630062746E6D2D3E6374DD
:10473000726C5F6269747320213D204E554C4C00B1
:104740002DE9FE4F81460E46924699F8090000F089
:104750000700022801D1304600E050468346564506
:1047600001DD304600E050460746032000EB4700DD
:1047700020F0030000F110053E4800683E4909683A
:10478000A0EB0108002405EB08003C4909688842B9
:1047900006D238480468606820F00040606044E059
:1047A00036480068854221D813E04FF0FF30029070
:1047B000002202A9324810F069FA002202A9314809
:1047C00010F064FA2B4800682B490968A0EB010837
:1047D00000BF08EB0500294909688842E5D825484B
:1047E0000468606820F0004060601EE028461EF00B
:1047F00059FD044600BF6CB923A027A12AA2324B61
:10480000CDE900210290C02230A10320FEF7DCFB9D
:1048100000BFFEE700BF14B90020BDE8FE8F60684E
:1048200020F0004000F100406060324659464846A2
:1048300002F053FC2060606800F04040401C606063
:10484000606820F080406060A781A4F80EB06068C6
:10485000C00F20B1204600F11001A16008E005481A
:1048600000681030A06003480068284401490860CF
:104870002046D2E790000020F80100208C000020A4
:10488000C70801080D4D01084F7574206F66206D33
:10489000656D6F72790000006974656D20213D209F
:1048A0004E554C4C00000000417373657274656492
:1048B0002061742065787072657373696F6E3A2039
:1048C0002573202825732900DB6A03082E2E5C4CF3
:1048D00056474C5C6C76676C5C7372635C647261A7
:1048E000775C73775C6C765F647261775F73775F18
:1048F0006772616469656E742E630000F0B585B0FF
:1049000006460D4634460020049003900290654808
:104910000088A84202D0FF206349087061480580E2
:1049200094F83C0000F0030020B1012838D00228A0
:1049300066D000BF94F83C0000F003005A490978A3
:1049400088421BD02620005D00EB001000EB4000E9
:10495000142190FBF1F0554908702720005D00EB11
:10496000001000EB4000142190FBF1F0504908705A
:1049700094F83C0000F003004B49087002A803A91A
:10498000CDE9001005EB45014FF6FF7202EA410048
:1049900004AB47490A78454909780BF090FB5FE082
:1049A00094F83C0000F003003F49097888421AD08F
:1049B000A08C00EB400040024FF4B471B0FBF1F06A
:1049C0003C4908802720005D00EB001000EB400010
:1049D000142190FBF1F03649087094F83C0000F087
:1049E00003003149087002A803A9CDE90010E9B21B
:1049F00004AB2F4802782F4800880BF060FB2FE0B3
:104A000094F83C0000F003002749097888421AD046
:104A1000A08C00EB400040024FF4B471B0FBF1F009
:104A2000244908802620005D00EB001000EB4000C8
:104A3000142190FBF1F01D49087094F83C0000F03F
:104A400003001949087002A803A9EAB204ABCDE932
:104A5000001016480178174800880BF030FB00BFA3
:104A600000BF9DF810009DF80C109DF80820D70895
:104A7000BDF8003067F304038F080093BDF80030E1
:104A800067F34A13C7080093BDF8003067F3CF23DC
:104A90000093BDF800703B460193BDF80410084632
:104AA00005B0F0BD400100203E0100203C01002087
:104AB0003D0100203A01002010B50120074908708F
:104AC0000748FEF77FF920B90648006829F058FD2D
:104AD00003E00448006829F05FFD10BDD401002008
:104AE000202B0020D801002010B5044694F8420085
:104AF000C0F3400070B9B4F8400000280ADDB4F8F3
:104B000040004FF6FF71884204D0B4F84000401EC8
:104B1000A4F84000B4F84000D0B9A06B20B194F8DC
:104B20004200C0F3400098B121461A48FEF703FA4C
:104B3000FFF7C2FFE06810B12046E16888472069AE
:104B400010B120462169884720461EF037FD1FE03E
:104B5000E06B40422063A06BD0B194F84210C1F3E7
:104B6000400111B9616B4942216394F84210490830
:104B7000C94394F8422061F3410284F84220206A3C
:104B8000A16A2162A062E06AA16BE162A06300BF3A
:104B900010BD0000202B00202DE9F0418046424846
:104BA000006829F0D5FA06464048007880F00100F8
:104BB0003E4908703E48FEF705F904466BE00020C8
:104BC0003C49087094F84200C0F3800037490978E6
:104BD000884253D0354801783034A07C61F382009C
:104BE000A07420688719A07C303CC0F3C00010BBC3
:104BF000206B00281FDC002F1DDB94F8420000F022
:104C0000010060B9606950B1204661698847054676
:104C1000206A28442062A06A2844A06200BFA068DD
:104C200010B12046A168884794F8420020F008009F
:104C3000083084F84200206B30442063206B002849
:104C40001BDBD4E90B10884201DDE06A20632046BB
:104C5000E16988470546606AA84206D065626068D7
:104C600018B12946D4E900029047D4E90B108842D4
:104C700002DB2046FFF738FF00BF00BF0D48007879
:104C800020B10B48FEF79EF8044604E02146084890
:104C9000FEF7B0F80446002C91D129F067FA0249DA
:104CA0000860BDE8F0810000D0010020D50100209F
:104CB000202B0020D401002070B504460D4660680A
:104CC00018B129466068FFF7F7FF206818B1294638
:104CD00020462268904770BD70B505460C46A1B2CB
:104CE000284611F069FB70BD70B505460C46A1B2AF
:104CF000284611F0B2FB70BD2DE9FF4F8FB01F4663
:104D0000DDF888801C980E901D980D9000200B9067
:104D10002398042806D0052809D006280CD014288A
:104D20001AD114E000200C904FF0020917E0012086
:104D30000C904FF0030912E001200C904FF0020993
:104D4000FEF7AAFC05462868008F0B9007E00120BB
:104D50000C904FF0020902E013B0BDE8F08F00BFE5
:104D6000002489E11E9860430E9901EB20201C90DD
:104D70001F9860430D9901EB20201D901C9805128F
:104D80001D980612002D07DB1098854204DA002ECC
:104D900002DB1198864203DB002008F8040069E179
:104DA0001C98C0B20A901D9800F0FF0A0A9880284B
:104DB00007DA4FF0FF3B0A98C0F17F0040000A90ED
:104DC00005E04FF0010B0A98803840000A90BAF1D4
:104DD000800F07DA4FF0FF300990CAF17F004FEAE9
:104DE000400A05E001200990AAF180004FEA400A3C
:104DF0000F98089006FB07F000FB09F005FB09017E
:104E000008980844089005EB0B0000287EDB05EBB2
:104E10000B011098401E814278DC0998304400282C
:104E2000F4DB099831181198401E8142F4DC08988F
:104E3000079008980BFB09000690099800FB07F102
:104E4000089801FB090005900C9800287FD0239B4F
:104E5000052B06D1079B9878059B9978069B9A7835
:104E60003BE0239B142B18D1DDF844C007FB0CFC5E
:104E7000DDF83CE00EEB4C0306FB073C1CF805009C
:104E800006FB073CAC441CF80B20DDF824C0B444FE
:104E90000CFB073C1CF805101FE0239B062B19D1C7
:104EA000079B1B88BDF82CC063450BD0059B1B8856
:104EB000BDF82CC0634505D0069B1B88BDF82CC0EF
:104EC000634503D1002308F80430D3E0FF20FF211D
:104ED000FF2202E0FF20FF21FF22814207D001FBD9
:104EE0000AF3CAF5807C00FB0C33C3F3072182422E
:104EF00009D00A9B5343DDF828C0CCF5807C00FB29
:104F00000C33C3F307228B185B1000E059E008F85C
:104F1000043018F8043003B9ACE0079B93F800C0E4
:104F20005B780CEB03239BB20493059B93F800C0C2
:104F30005B780CEB03239BB20393069B93F800C0B2
:104F40005B780CEB03239BB202930CE0FFE707981E
:104F500000880490069800880290059800880390C5
:104F6000FF2008F80400BDF81000BDF80C108842BE
:104F70000CD1BDF81000BDF80810884206D1219868
:104F800000EB4400BDF81010018019E00AF0FF02A8
:104F9000DDE9030113F03CFE03900A98C2B20499C4
:104FA000029813F035FE02907F22DDE9020113F032
:104FB0002FFE0190219800EB4400BDF80410018001
:104FC00057E008990A78497802EB01218AB22199C1
:104FD00021F814202399052904D0062905D0142985
:104FE00019D10EE00899887817E0219931F814104A
:104FF000BDF82C20914201D1002100E0FF2108469C
:105000000BE0119A07FB02F10F9A02EB410106FB3C
:105010000711485D01E0FF2000BF00BF15B9BBF1DB
:10502000000F06DB1099491EA9420BD1BBF1000FFE
:1050300008DD0A99C1F1FF014143C1F3072108F8D6
:10504000041015E016B90999002906DB1199491ECB
:10505000B1420AD10999002907DDCAF1FF01414394
:10506000C1F3072108F8041002E0002108F8041039
:1050700000BF00BF601C04B220988442FFF672AEED
:1050800000BF69E62DE9F84F04468C4690469946E4
:10509000109FDDE90A56AA460096002032E00C99DE
:1050A00041430AEB21250D994143DDF800B00BEB9C
:1050B00021262A123312002A05DB624503DA002B6F
:1050C00001DB434502DB0021395419E0214603FB93
:1050D00009FB0BEB4B0B02EB420EF344594491F8E6
:1050E00000B091F801E00BEB0E2B1FFA8BFEDDF800
:1050F0003CB02BF810E091F802B007F800B000BF08
:10510000411C08B20E998842C9DBBDE8F88F000047
:1051100030B591B004462546A88F18B920462BF02B
:10512000C3F81EE0684610F08BFA2946684610F076
:105130004AFB0D49684610F011FBA98F684610F034
:1051400022FB01220021684610F033FB0749684624
:1051500010F008FB0648039000BF684610F046FBBD
:1051600000BF11B030BD0000310303082B57010808
:10517000330303087CB504460D4600BF204600F00B
:1051800082F800280CD00DA01AA1214B40F2A522D4
:10519000CDE900101FA10320FDF716FF00BFFEE7B9
:1051A00000BF284600F034FB001D616808446060C1
:1051B000204600F077F820467CBD000021626C6F2D
:1051C000636B5F69735F6C617374287072657629B5
:1051D000202626202270726576696F757320626CB6
:1051E0006F636B2063616E2774206265206C61734E
:1051F00074220000417373657274656420617420C9
:1052000065787072657373696F6E3A20257300005C
:105210001D5905082E2E5C4C56474C5C6C76676C0D
:105220005C7372635C6D6973635C6C765F746C73E2
:10523000662E630070B505460C46284600F0E8FA75
:1052400004F11001884201D3012070BD0020FCE769
:105250000146A1F1080070477CB505460C46204682
:1052600000F0D6FA06466A4601A92AF073FC2146E8
:105270002846DDE900320EF0E3FF7CBD01460879E7
:1052800000F00100704710B50446204600F0C0FA57
:1052900008B9012010BD0020FCE70146087900F0A4
:1052A0000200704770B50446204600F085F90546B7
:1052B0002C60284670BD00007FB506460C460020D5
:1052C0000390029000256CB102AA03A920462AF09F
:1052D0005EFC03980A2805DA02AA03A930462CF0DE
:1052E00097FE0546002D19D000BF284600F090FA21
:1052F000A0420CD20BA012A1184B40F20632CDE90D
:10530000001017A10320FDF75FFE00BFFEE700BFFE
:1053100029463046DDE902322CF050F9284604B027
:1053200070BD0000626C6F636B5F73697A652862A1
:105330006C6F636B29203E3D2073697A6500000025
:10534000417373657274656420617420657870724E
:10535000657373696F6E3A20257300006C590508F8
:105360002E2E5C4C56474C5C6C76676C5C7372639B
:105370005C6D6973635C6C765F746C73662E63003E
:1053800070B504462046FFF78DFF0546284600F01D
:105390002AFA204600F022FA70BD70B50446204675
:1053A00000F00AF90546284600F022FA204600F0EF
:1053B0002AFA70BD7CB506460D46284600F0FCF87A
:1053C000044600BF002C0CD118A023A1294B40F2A9
:1053D000BE22CDE9001028A10320FDF7F5FD00BF96
:1053E000FEE700BF2046FFF749FF00281CD000BFA2
:1053F0002846FFF748FF00280CD027A016A11D4B18
:1054000040F2C122CDE900101BA10320FDF7DCFD15
:1054100000BFFEE700BF2146304600F0CDF921462F
:105420002846FFF7A7FE054628467CBD6E657874C2
:1054300020262620226E657874207068797369634F
:10544000616C20626C6F636B2063616E27742062F5
:1054500065206E756C6C22004173736572746564AF
:105460002061742065787072657373696F6E3A207D
:10547000257300003B5905082E2E5C4C56474C5CAA
:105480006C76676C5C7372635C6D6973635C6C767D
:105490005F746C73662E630021626C6F636B5F696F
:1054A000735F6C61737428626C6F636B29202626AE
:1054B000202270726576696F757320626C6F636B02
:1054C0002063616E2774206265206C617374220012
:1054D0007CB506460D462846FFF7DFFE002831D092
:1054E000284600F013F9044600BF002C0CD116A08A
:1054F00020A1274B40F2B122CDE9001025A10320C5
:10550000FDF762FD00BFFEE700BF00BF2046FFF7CA
:10551000B5FE60B9274817A11D4B40F2B222CDE974
:1055200000101CA10320FDF74FFD00BFFEE700BFE8
:105530002146304600F040F929462046FFF71AFE82
:10554000054600BF28467CBD707265762026262061
:10555000227072657620706879736963616C20626D
:105560006C6F636B2063616E2774206265206E75BB
:105570006C6C2200417373657274656420617420E1
:1055800065787072657373696F6E3A2025730000D9
:105590002A5905082E2E5C4C56474C5C6C76676C7D
:1055A0005C7372635C6D6973635C6C765F746C735F
:1055B000662E63009C6705082DE9FC4104462046E1
:1055C00000F026F9061F204600F0D2F907463146C2
:1055D0002AF068FD054600BF2046FFF754FE60B183
:1055E00008A00EA1144B40F2C912CDE9001013A17E
:1055F0000320FDF7E9FC00BFFEE700BF2846BDE839
:10560000FC81000021626C6F636B5F69735F6C618A
:10561000737428626C6F636B2900000041737365BB
:105620007274656420617420657870726573736943
:105630006F6E3A2025730000AE5805082E2E5C4C84
:1056400056474C5C6C76676C5C7372635C6D697317
:10565000635C6C765F746C73662E63002DE9FC41AD
:1056600006460C4615460027002C1BD000BF65B926
:105670000EA016A11C4B40F21132CDE900101BA167
:105680000320FDF7A1FC00BFFEE700BF2A4621462C
:10569000304600F071F92046FFF77FFE204600F00B
:1056A00067F907463846BDE8FC81000073697A65F2
:1056B000202626202273697A65206D757374206216
:1056C00065206E6F6E2D7A65726F2200417373656F
:1056D0007274656420617420657870726573736993
:1056E0006F6E3A20257300007E5905082E2E5C4C03
:1056F00056474C5C6C76676C5C7372635C6D697367
:10570000635C6C765F746C73662E63001CB5044634
:1057100000BF2046FFF7C1FD00280CD107A016A14D
:105720001C4B4FF4E072CDE900101BA10320FDF7E4
:105730004BFC00BFFEE700BF20681CBD626C6F63BE
:105740006B5F69735F707265765F6672656528620C
:105750006C6F636B29202626202270726576696F34
:10576000757320626C6F636B206D75737420626556
:10577000206672656522000041737365727465640A
:105780002061742065787072657373696F6E3A205A
:1057900025730000A35805082E2E5C4C56474C5C20
:1057A0006C76676C5C7372635C6D6973635C6C765A
:1057B0005F746C73662E63007CB505460C4620460C
:1057C00000F026F806466A4601A92AF0C3F92146E8
:1057D0002846DDE900322BF0F1FE7CBD416841F046
:1057E000010141607047416841F00201416070472A
:1057F000416821F0020141607047426802F00303F2
:105800000B4343607047416821F0010141607047DC
:105810000146486820F00300704700002DE9FC476E
:1058200006460C46304600F0A3F88046211F2AF0B9
:1058300039FC07463046FFF7EBFF211D451A00BF34
:10584000384600F095F88146384600F091F88046D9
:105850000421FEF703FE81450CD0234823A12A4BE7
:1058600040F29522CDE9001028A10320FDF7ACFB02
:1058700000BFFEE700BF00BF3046FFF7C9FF291990
:10588000091D88420CD029A018A11F4B4FF4267285
:10589000CDE900101DA10320FDF796FB00BFFEE738
:1058A00000BF29463846FFF7A8FF00BF3846FFF77C
:1058B000AFFF0C280CD22D480CA1134B40F29A22BA
:1058C000CDE9001011A10320FDF77EFB00BFFEE72C
:1058D00000BF21463046FFF790FF3846FFF750FDE6
:1058E0003846BDE8FC870000E4670508417373652E
:1058F0007274656420617420657870726573736971
:105900006F6E3A2025730000115905082E2E5C4C4D
:1059100056474C5C6C76676C5C7372635C6D697344
:10592000635C6C765F746C73662E6300626C6F638D
:105930006B5F73697A6528626C6F636B29203D3DEC
:105940002072656D61696E5F73697A65202B2073C3
:10595000697A65202B20626C6F636B5F6865616498
:1059600065725F6F766572686561640050670508EF
:10597000014601F1080070472DE9FC4106460C463E
:10598000154600BF2046FFF779FC00280CD112A075
:105990001DA1244B4FF43372CDE9001022A1032046
:1059A000FDF712FB00BFFEE700BF29462046FFF7C8
:1059B00041FC78B129462046FFF730FF07462046D4
:1059C000FFF770FC3846FFF70EFF39463046FFF709
:1059D00043FC00BFBDE8FC81626C6F636B5F697361
:1059E0005F6672656528626C6F636B2920262620CE
:1059F00022626C6F636B206D757374206265206624
:105A000072656522000000004173736572746564FD
:105A10002061742065787072657373696F6E3A20C7
:105A2000257300004C5905082E2E5C4C56474C5CE3
:105A30006C76676C5C7372635C6D6973635C6C76C7
:105A40005F746C73662E63002DE9FC4106460C46BC
:105A5000154600BF2046FFF711FC00280CD013A00C
:105A60001EA1254B4FF43672CDE9001023A103206F
:105A7000FDF7AAFA00BFFEE700BF29462046FFF760
:105A8000D9FB88B129462046FFF7C8FE07463846AD
:105A9000FFF7AEFE39463046FFF78CFC0746394625
:105AA0003046FFF7D9FB00BFBDE8FC8121626C6F77
:105AB000636B5F69735F6672656528626C6F636BA9
:105AC000292026262022626C6F636B206D7573740B
:105AD0002062652075736564220000004173736560
