:020000040800F2
:1000000080BA00206D020008591400088F0800080B
:1000100055140008D90600086321000800000000FC
:10002000000000000000000000000000211D00088A
:100030004D07000800000000E91400086D1E0008CC
:10004000870200088702000887020008870200086C
:10005000870200088702000887020008870200085C
:10006000870200088702000887020008870200084C
:10007000870200088702000887020008870200083C
:10008000870200088702000887020008870200082C
:10009000870200088702000887020008870200081C
:1000A000870200088702000887020008870200080C
:1000B000D91E00088702000887020008870200088E
:1000C00087020008870200088702000887020008EC
:1000D0008702000887020008251F00088702000821
:1000E00087020008870200088702000887020008CC
:1000F00087020008870200088702000887020008BC
:1001000087020008870200088702000887020008AB
:10011000870200088702000887020008870200089B
:10012000870200088702000887020008870200088B
:10013000870200080000000000000000870200089D
:10014000870200088702000887020008870200086B
:10015000870200088702000887020008870200085B
:10016000870200088702000887020008870200084B
:1001700087020008870200088702000800000000CC
:1001800000000000870200080000000000000000DE
:10019000870200080000000000000000870200083D
:1001A00000000000000000000000000087020008BE
:1001B00087020008870200088702000887020008FB
:1001C0008702000800F002F800F041F80AA090E869
:1001D000000C82448344AAF10107DA4501D100F002
:1001E00036F8AFF2090EBAE80F0013F0010F18BF8E
:1001F000FB1A43F001031847280F0300480F0300C0
:10020000103A24BF78C878C1FAD8520724BF30C842
:1002100030C144BF04680C60704700000023002414
:1002200000250026103A28BF78C1FBD8520728BF06
:1002300030C148BF0B607047782900F079800020FA
:1002400070471FB504F0F1FC1FBD10B510BD00F0E4
:1002500027F91146FFF7F5FF03F02EFE00F045F9F0
:1002600003B4FFF7F2FF03BC01F07DFF09488047AC
:1002700009480047FEE7FEE7FEE7FEE7FEE7FEE788
:10028000FEE7FEE7FEE7FEE704480549054A064BA0
:1002900070470000711E0008C501000880B40020EE
:1002A00080BA002080B6002080B600207047000091
:1002B0000FB4044910B503AA029800F0C3F810BCAB
:1002C0005DF814FB280000202DE9F0410E4604469D
:1002D000002020622046E168884730B3252805D0F9
:1002E000D4E901219047206A401CF2E7E1682046EA
:1002F00000278847050018D0A5F14100192802D829
:1003000020354FF400673246294620462760FFF724
:1003100093FF40B1012804D0F61D26F007060836E9
:10032000D8E7361DD6E72846DAE7206ABDE8F0812F
:1003300070B504460D4621461068AFF30080218851
:10034000090502D50F4A7A4402E00E4A7A440E3279
:10035000002104F1240305E000F00F060009965D7A
:100360005E54491C0028F7D120780023000704D5EB
:10037000702D02D009B1022311322046BDE8704031
:1003800000F006B8AC0D0300704770477047704727
:100390002DE9F0470D4699469246044600F124089F
:1003A0000168880604D5E06921F01001216000E0B1
:1003B0000120A84201DD471B00E00027A1697A194E
:1003C00002EB0900081AA0612078C00602D420467A
:1003D000AFF30080002608E0D4E901211AF80600F6
:1003E0009047206A401C761C20624E45F4DB207842
:1003F000C0060AD52046AFF3008006E0D4E901210B
:1004000030209047206A401C2062381EA7F1010767
:10041000F4DC07E0D4E9012118F805009047206AD0
:10042000401C2062281EA5F10105F3DC2046AFF335
:1004300000802078000602D50220BDE8F087012068
:10044000FBE70000074B70B50D467B4400F011F848
:100450000446284600F020F810B14FF0FF3070BD80
:10046000204670BD1337000001694A1C02610878FC
:10047000704700B58FB0CDE90131002105910549E4
:100480007944CDE9031011466846FFF71DFF0FB010
:1004900000BD0000E5FFFFFF007B00F0800070471B
:1004A000754600F02BF8AE4605006946534620F02D
:1004B0000700854618B020B5FFF7E6FEBDE82040EE
:1004C0004FF000064FF000074FF000084FF0000B10
:1004D00021F00701AC46ACE8C009ACE8C009ACE8C3
:1004E000C009ACE8C0098D46704710B50446AFF3AB
:1004F00000802046BDE81040FFF7B2BE00487047BC
:100500001CB4002021B1826842F00102826003E045
:10051000826822F001028260704710B50121080252
:1005200001F014F800214FF4807001F00FF810BDB5
:100530000146C86C80B270470246002013680B4029
:100540000BB1012000E000207047000030B50246EA
:10055000002000235068104C20400D790C6844EABC
:1005600005242043506090680C4C2040D1E903548E
:100570002C438D682C434D7944EA45042043906018
:10058000D06A20F470000C7D641EE4B2234340EA7C
:100590000350D06230BD0000FFFEFFFCFDF7FFC03E
:1005A000F0B504460D4600200021092D11DDE0685C
:1005B000A5F10A0606EB4607072606FA07F1884367
:1005C000A5F10A0606EB460603FA06F10843E060C9
:1005D0000CE0206905EB4507072606FA07F188437A
:1005E00005EB450603FA06F108432061072A0FDAF6
:1005F000606B561E06EB86071F2606FA07F1884336
:10060000561E06EB860605FA06F10843606322E0F3
:100610000D2A0FDA206BD61F06EB86071F2606FA77
:1006200007F18843D61F06EB860605FA06F1084354
:10063000206310E0E06AA2F10D0606EB86071F2694
:1006400006FA07F18843A2F10D0606EB860605FAC5
:1006500006F10843E062F0BD816841F080418160AD
:100660007047000000B589B00121080200F05EFF6C
:100670000121084600F03AFF03208DF80800002011
:100680008DF80A0003208DF8090000208DF80B007A
:100690001220019001A90E4800F059F8FFF73DFF24
:1006A0004FF08070039000208DF810008DF811003D
:1006B0000590079001208DF8200003A90548FFF759
:1006C00045FF01210348FFF71DFF09B000BD0000F1
:1006D000000002400020014000BFFEE700F00101E1
:1006E000154A1160401000F00101144AC2F89C1232
:1006F000401000F00101104A121D1160401000F07E
:1007000001010F4AC2F88C12401000F001010D4A9D
:100710001160401000F00101094AC2F89012401027
:1007200000F00101C2F8A812401000F00101064AD1
:10073000C2F8A01270470000A402404200004142EB
:100740000080404294824042000040427047F0B531
:100750000A4600210023002400BF3DE0012505FAE0
:1007600001F3156805EA03049C4234D105684F0083
:100770000326BE40B543056015794E00B5400668B6
:10078000354305601579012D02D01579022D16D15A
:1007900085684F000326BE40B543856055794E00FD
:1007A000B540866835438560456801268E40B5436F
:1007B0004560456896798E40B6B235434560C56858
:1007C0004F000326BE40B543C560D5794E00B54005
:1007D000C6683543C560491C1029BFD3F0BDF0B5CC
:1007E000002300244D07ED0E02FA05F3CE1000F1B0
:1007F000200555F826504E07F70E0F26BE40B5438C
:10080000CF1000F1200646F82750CE1000F1200549
:1008100055F8265045EA0304CE1000F1200545F8AE
:100820002640F0BD0A048261704781617047000074
:1008300010B504460023012221460848FFF7B0FE08
:100840000648FFF709FF00BF02210448FFF774FEC6
:100850000028F9D00148FFF76BFE10BD00200140D1
:100860002DE9F04107460C460025002608E03846F1
:10087000FFF7DEFF0544052001F0FEFE701CC6B246
:10088000A642F4DBB5FBF4F080B2BDE8F08100BF16
:10089000FEE7000010B504460E4884712C200D4977
:1008A00008813C2048812A2088812B20C88134B9C6
:1008B0004FF4A07008804FF4F070488006E04FF4C9
:1008C000F070044908804FF4A0704880022000F0C6
:1008D00017FB10BD3C0100202DE9F0410446002625
:1008E0002548007C30B9244800882349498800FB0A
:1008F00001F514E0204800881F49097C891E4843FF
:100900001D49097C90FBF1F51B4840881A49097C78
:10091000891E48431849097C90FBF1F04543164A6B
:10092000918A508A00F014FC00F08CFD00201349DD
:100930000860271204F0FF08002615E0F8B2FFF760
:10094000CDFE00200E49086001200E49C1F8840246
:1009500008F0FF00FFF7C2FE0020094908600120EF
:100960000849C1F88402761CAE42E7D3012003494E
:100970000860BDE8F08100003C0100208082404218
:10098000840240420000404270B504460D461646BF
:100990001849087B00F01AFD201200F037FDE0B284
:1009A00000F034FD1349C98A081200F02FFD1149E7
:1009B000887D00F02BFD0F49887B00F007FD281291
:1009C00000F024FDE8B200F021FD0A49098B08126D
:1009D00000F01CFD0749087E00F018FD0549087A63
:1009E00000F0F4FC301200F011FDF0B200F00EFD4A
:1009F00070BD00003C0100200EB50121072000F071
:100A000075FD01208DF8080000208DF80A000320F4
:100A10008DF8090000208DF80B0040F21370019052
:100A200001A9A648FFF793FE40F23940019001A9C1
:100A3000A348FFF78CFE8220019001A9A148FFF78F
:100A400086FE13219D48FFF7F0FE4FF480619C481D
:100A5000FFF7E8FE02219B48FFF7E7FE00F02EFAC1
:100A6000322001F009FED32000F0B0FC322001F06A
:100A700003FE00F099F99449888000F095F99249B5
:100A8000888000F091F990498880084680884FF668
:100A9000FF7101EA00208C49888000F085F98A49BD
:100AA00089880843884988800846818887A0FFF79D
:100AB000FFFB042000F08AFC00F076F9009000F0C3
:100AC00073F900909DF8001084A0FFF7F1FB00F08F
:100AD0006BF900909DF8001086A0FFF7E9FB00F08D
:100AE00063F900909DF800108AA0FFF7E1FB0C204D
:100AF00000F06CFC00F058F9009000F055F90090FF
:100B00009DF8001089A0FFF7D3FB3A2000F05EFCAF
:100B1000552000F07BFC0C2000F058FC00F044F95C
:100B2000009000F041F900909DF800108BA0FFF7B5
:100B3000BFFB6548808849F28641884200D00EBDDF
:100B4000F22000F043FC182000F060FCA32000F02D
:100B50005DFC122000F05AFC022000F057FCB2208D
:100B600000F054FC122000F051FCFF2000F04EFC7D
:100B7000102000F04BFC002000F048FCF82000F0B2
:100B800025FC212000F042FC042000F03FFCF9206D
:100B900000F01CFC002000F039FC082000F036FCBE
:100BA000362000F013FC082000F030FCB42000F0E8
:100BB0000DFC002000F02AFCC12000F007FC4120C1
:100BC00000F024FCC52000F001FC002000F01EFC19
:100BD000532000F01BFCE02000F0F8FB0F2000F099
:100BE00015FC1B2000F012FC182000F00FFC0B205D
:100BF00000F00CFC0E2000F009FC092000F006FCBF
:100C0000472000F003FC942000F000FC352000F0A9
:100C1000FDFB0A2000F0FAFB132000F0F7FB052093
:100C200000F0F4FB082000F0F1FB032000F0EEFBE5
:100C3000002000F0EBFBE12000F0C8FB0F2000F0EB
:100C4000E5FB3A2000F0E2FB372000F0DFFB0B2051
:100C500000F0DCFB0C2000F0D9FB052000F0D6FBF7
:100C60004A2000F0D3FB242000F0D0FB392000F014
:100C7000CDFB072000F0CAFB102000F0C7FB0420CA
:100C800000F0C4FB272000F0C1FB252000F0BEFBD4
:100C9000002000F0BBFB112000F098FB782001F051
:100CA000EBFC292000F092FB0120FFF7F3FD374811
:100CB0000088FFF711FE00BF41E70000000002407E
:100CC00000040240000802403C010020204C434444
:100CD0002049443A25780D0A00000000204D616E3D
:100CE0007566616374757265722049443A25780DA2
:100CF0000A000000204D6F64756C652F6472697680
:100D000065722076657273696F6E2049443A257862
:100D10000D0A0000204D6F64756C652F6472697652
:100D200065722049443A25780D0A000050697865BB
:100D30006C20666F726D617420616E642043505543
:100D400020666F726D61742049443A25782062658F
:100D5000666F7265207365740D0A000050697865CE
:100D60006C20666F726D617420616E642043505513
:100D700020666F726D61742049443A25782061665F
:100D8000746572207365740D0A0000003000002045
:100D900010B50246012000E050430B1EA1F10104F2
:100DA000E1B2F9D110BD000010B500243748006849
:100DB00020F47C1035490860354800683549084002
:100DC000334908603448006820F4404032490860E4
:100DD0000020324908603249C1F88002012001F048
:100DE00071FC00BF2E48D0F82002C0012D49D1F877
:100DF000281240EA81102B49D1F8101240EA411024
:100E00002849D1F8141240EA01102649D1F80C12F1
:100E100040EAC1002249D1F8281240EA8100224963
:100E2000D1F81C1240EA4100204909680843C0B2C9
:100E3000044601201D495C3108601A49C1F880024E
:100E4000124800681A4908401049086008460068BE
:100E5000184908430D4908600D4800680D490840CD
:100E60000B490860084600681349084308490860B0
:100E70000948006820F440400749086008460068B7
:100E800040F480400860204610BD00000000024091
:100E9000000402403FF0CFFF000802408082404241
:100EA0000000404200804042000041422402404293
:100EB000F3FCC0FF040115004005100010B5002030
:100EC0000C49086001200C49C1F8840201F0D4FBF0
:100ED00000200A4908600A2001F0CEFB01200649E3
:100EE000C1F88402782001F0C7FB012001490860A5
:100EF00010BD000080824042000041428402414215
:100F00002DE9F0410546002400279048807901280A
:100F100018D1082D15D2DFE805F00406080A0C0EDA
:100F2000101206250DE007250BE0042509E0052534
:100F300007E0012505E0002503E0032501E0022587
:100F400000BF00BF082D1CD2DFE805F00406090C25
:100F50000F12151800BF14E044F0800411E044F0B3
:100F600040040EE044F0C0040BE044F0200408E02C
:100F700044F0600405E044F0A00402E044F0E00422
:100F800000BF00BF7148808849F28641884202D183
:100F9000362744F00804F8B200F018FAE0B200F086
:100FA00035FA04F0200068B168480088674949882C
:100FB000884214DA654806884088644908800846F3
:100FC00046800CE06148008860494988884206DD17
:100FD0005E48068840885D490880084646800020B3
:100FE0005A4908740846007C002876D008460088D4
:100FF000097C90FBF1F05549488208464088097CFD
:1010000090FBF1F05149888208460088097C491E0E
:1010100048434E49097C90FBF1F04C49C882084690
:101020004088097C491E48434849097C90FBF1F0FF
:1010300046490883087B00F0C9F9444800884349C1
:10104000097C90FBF1F0401EC0F30728404600F0F9
:10105000DDF93E4800883D49097C90FBF1F0401ED7
:1010600000F0FF08404600F0D1F93849C98A491E0E
:10107000C1F3072000F0CAF93449897D491EC8B27E
:1010800000F0C4F93149887B00F0A0F92F4840886E
:101090002E49097C90FBF1F0401EC0F30728404622
:1010A00000F0B4F9294840882849097C90FBF1F008
:1010B000401E00F0FF08404600F0A8F92349098BC4
:1010C000491EC1F3072000F0A1F92049097E491EFD
:1010D000C8B200F09BF937E0FFE700201B494882C7
:1010E000888208460088C882084640880883087BB2
:1010F00000F06CF9002000F089F9002000F086F97A
:1011000012490988491EC1F3072000F07FF90F49F1
:101110000978491EC8B200F079F90C49887B00F0C3
:1011200055F9002000F072F9002000F06FF907492E
:101130004988491EC1F3072000F068F903498978FE
:10114000491EC8B200F062F9BDE8F0813C01002000
:1011500070B504460D461349087B00F037F920129C
:1011600000F054F9E0B200F051F90E49C98A0812B2
:1011700000F04CF90B49887D00F048F90949887B5B
:1011800000F024F9281200F041F9E8B200F03EF92D
:101190000449098B081200F039F90249087E00F071
:1011A00035F970BD3C0100202DE9F84F80460E4610
:1011B00017461C46B3462046E31704EB5373DB1077
:1011C00021464FEAE47C04EB5C7C4FEAEC0CA4EB98
:1011D000CC0CBCF1000F02D04FF0010C01E04FF03D
:1011E000000C6344224604EBD27C4FEA6C0C03FBF8
:1011F0000CF3DBB20093A7F12000C7B2002556E044
:101200000C2C07D107EB47002B4901EB800010F8AD
:10121000059013E0102C05D1284800EB071010F8BA
:1012200005900BE0182C07D107EBC700244901EB10
:10123000800010F8059001E0BDE8F88F4FF0000A3B
:101240002FE009F0800030B11E4802883146404648
:10125000FFF79AFB07E00A9828B91B480288314635
:101260004046FFF791FB4FEA49604FEA1069701C56
:1012700086B216484088B04200DCDDE7A6EB0B00E2
:10128000A0420AD15E4608F101001FFA80F80F481B
:101290000088404500DCCFE706E00AF1010000F0DD
:1012A000FF0ABAF1080FCCDB00BF681CC5B200987A
:1012B0008542A5DB00BFBFE7344C0008A8500008FA
:1012C000985600082E000020300000203C0100202D
:1012D0002DE9FF4F81B0074691461E460E9D4FF007
:1012E000000A002439E0301B401EC1B20A20FFF77B
:1012F0004FFDB9FBF0F00A21B0FBF1F201FB12083F
:10130000BAF1000F16D1701EA04213DDB8F1000F24
:101310000ED10020AB4605EBDB71491001FB0471D7
:10132000009088B22B4620220299FFF73DFF12E081
:101330004FF0010A0020AB4605EBDB71491001FBC1
:101340000471009088B208F13001CAB22B460299AC
:10135000FFF72AFF00BF601CC4B2B442C3DB05B074
:10136000BDE8F08F2DE9F84F04460D4690469946AA
:10137000DDE90A6704F0FF0A08EB04001FFA80F8B1
:1013800009EB05001FFA80F916E0444502DB5446DC
:10139000A81985B24D4500DB14E0002000903A7892
:1013A000334629462046FFF7FFFE304606EBD07154
:1013B00004EB61018CB27F1C38787E2802DC38781F
:1013C0002028E2DA00BFBDE8F88F000010B504461F
:1013D00000200A4908602046FFF780F900200849EC
:1013E000C1F89002074908600120086005490C31E6
:1013F00008600549C1F8800210BD000080824042AB
:1014000000004042840240420080404210B5044641
:101410000020084908602046FFF760F900200649CF
:10142000C1F884020120054908600549C1F880021D
:1014300010BD0000808240420000404284024042D1
:101440000080404210B50249087AFFF7BFFF10BD87
:101450003C01002000BFFEE77047000070B500218E
:1014600000230F22C4781CB3174C246804F4E064F2
:10147000C4F5E064C4F30721C1F10404E3B20A41F6
:1014800044789C40E1B28478144021430C07210E3B
:101490000E4C05786155047804F01F050124AC401A
:1014A00005786D11AD0005F1E025C5F8004109E0B2
:1014B000047804F01F050124AC40054D0678761130
:1014C00045F8264070BD00000CED00E000E400E0AF
:1014D00080E100E002490143024A116070470000C8
:1014E0000000FA050CED00E07047000029B1064A43
:1014F00012680243044B1A6004E0034A12688243F4
:10150000014B1A60704700003038024029B1064A8A
:1015100012680243044B1A6004E0034A12688243D3
:10152000014B1A60704700004038024029B1064A5A
:1015300012680243044B1A6004E0034A12688243B3
:10154000014B1A60704700004438024029B1064A36
:1015500012680243044B1A6004E0034A1268824393
:10156000014B1A6070470000243802402DE9F04119
:101570000021002300240226002502220227DFF892
:10158000A4C1DCF800C00CF00C0131B1042909D071
:1015900008290CD00C297CD148E0DFF88CC1C0F8B8
:1015A00000C089E0DFF884C1C0F800C084E0DFF843
:1015B00074C1ACF1040CDCF800C0CCF38055DFF84A
:1015C00064C1ACF1040CDCF800C00CF03F0275B152
:1015D000DFF858C1BCFBF2FCDFF84881A8F1040831
:1015E000D8F80080C8F388180CFB08F40DE0DFF889
:1015F00038C1BCFBF2FCDFF82C81A8F10408D8F854
:101600000080C8F388180CFB08F4DFF818C1ACF1AF
:10161000040CDCF800C0CCF3014C0CF1010C4FEAD7
:101620004C06B4FBF6FCC0F800C045E0DFF8F4C09F
:10163000ACF1040CDCF800C0CCF38055DFF8E4C05A
:10164000ACF1040CDCF800C00CF03F0275B1DFF81F
:10165000DCC0BCFBF2FCDFF8CC80A8F10408D8F8B1
:101660000080C8F388180CFB08F40DE0DFF8B8C060
:10167000BCFBF2FCDFF8AC80A8F10408D8F80080CD
:10168000C8F388180CFB08F4DFF898C0ACF1040C20
:1016900000E00CE0DCF800C0CCF3027C0CF1010CA3
:1016A0004FEA4C07B4FBF7FCC0F800C004E0DFF8D9
:1016B00078C0C0F800C000BF00BFDFF868C0DCF829
:1016C00000C00CF0F0010909DFF864C01CF801301B
:1016D000D0F800C02CFA03FCC0F804C0DFF844C006
:1016E000DCF800C00CF4E051890ADFF844C01CF8B3
:1016F0000130D0F804C02CFA03FCC0F808C0DFF8B1
:1017000024C0DCF800C00CF46041490BDFF820C0B5
:101710001CF80130D0F804C02CFA03FCC0F80CC04F
:10172000BDE8F081083802400024F40000127A007D
:101730001400002010B5012002490860FF2000F0CD
:1017400031F910BD9882404270B505464FF6FF74DE
:1017500001E0601E84B2FF2000F024F9A84201D00D
:10176000002CF6D10CB9FF2070BD0020FCE7000072
:10177000F8B501205E490860002504E0FF2000F074
:1017800011F9681C85B20A2DF8DB142600BF9522DA
:101790000021084600F04BF90446012C04D0301E0D
:1017A000A6F101018EB2F2D1002052490870012C3D
:1017B0004AD187224FF4D571082000F038F901286A
:1017C00047D1002506E0FF2000F0ECF80DF80500F9
:1017D000681C85B2042DF6DB9DF80200012879D142
:1017E0009DF80300AA2875D14FF6FE7600BF0122AE
:1017F0000021372000F01BF901229107292000F079
:1018000016F9044624B1301EA6F101018EB2EED1C4
:10181000002E5FD0012200213A2000F008F90028B4
:1018200058D1002506E0FF2000F0BCF80DF80500B7
:10183000681C85B2042DF6DB9DF8000000F0400026
:1018400018B106202B49087044E00420294908708B
:1018500040E001220021372000F0E9F801220021B8
:10186000292000F0E4F80446012C17DC022021496D
:1018700008704FF6FE7600BF01220021372000F0ED
:10188000D6F801220021292000F0D1F80446BCB18D
:10189000301EA6F101018EB2EED111E001201549F2
:1018A00008704FF6FE7600BF01220021104600F0BE
:1018B000BEF8044624B1301EA6F101018EB2F3D168
:1018C0002EB101225102102000F0B1F810B1002019
:1018D00008490870FFF72EFF00F06AF80548007805
:1018E00008B10020F8BD0CB12046FBE7AA20F9E7BB
:1018F000988240423C0000202DE9F04106460F4608
:10190000154619480078062800D07F02012D0CD119
:1019100001223946112000F08AF80446FCB9690218
:10192000304600F023F8044619E00122394612201F
:1019300000F07DF8044600BF4FF40071304600F01F
:1019400015F8044606F50076681EC0B2051E01D0E3
:10195000002CF1D0012200210C2000F068F8FFF7E4
:10196000E9FE2046BDE8F0813C00002070B5044649
:101970000D46FE20FFF7E8FE08B1012070BD04E02F
:10198000FF2000F057F92070641C281EA5F101010A
:101990008DB2F5D1FF2000F005F8FF2000F002F82D
:1019A0000020EBE710B50446204600F043F910BDD7
:1019B00010B5002000F068F910BD000010B500203F
:1019C0000549086000F06FF808B9002010BDFFF766
:1019D000B1FE0120FAE700009882404270B5064649
:1019E0000D4600F060F808B1012070BD2846FFF7F1
:1019F000D9FFFD2D19D0002404E0305D00F01AF964
:101A0000601C84B2B4F5007FF7DBFF20FFF7CAFF4C
:101A1000FF20FFF7C7FFFF20FFF7C4FF044604F0D5
:101A20001F00052801D00220DFE70020DDE72DE9B7
:101A3000F04105460C4617464FF00008FFF77AFEC6
:101A4000FFF7BCFF10B1FF20BDE8F08145F040007A
:101A5000FFF7A8FF200EFFF7A5FFC4F30740FFF72D
:101A6000A1FFC4F30720FFF79DFFE0B2FFF79AFF45
:101A70003846FFF797FF0C2D02D1FF20FFF792FFAA
:101A80004FF01F0800BFFF20FFF78CFF064606F04F
:101A9000800030B1B8F10000A8F1010101F0FF08A9
:101AA000F1D13046D0E710B5002400BFFF20FFF78A
:101AB00079FFFF2801D1002010BD641C6FF07F402A
:101AC0008442F3D30120F7E72DE9F04106460F46A3
:101AD000154620480078062800D07F02012D0CD141
:101AE000012239461820FFF7A2FF04466CBBFE21F5
:101AF0003046FFF773FF044627E0164800780128B8
:101B000009D0012200213720FFF791FF0122294649
:101B10001720FFF78CFF012239461920FFF787FFB6
:101B2000044694B900BFFC213046FFF757FF044636
:101B300006F50076681EC0B2051E01D0002CF2D05A
:101B4000FD210020FFF74AFF0446FFF7F3FD204682
:101B5000BDE8F0813C00002000B587B001210320E2
:101B6000FFF7C4FC01210803FFF7E0FC40200590CB
:101B700001208DF8180000208DF81A008DF819004A
:101B80008DF81B0005A92848FEF7E1FD40212648F5
:101B9000FEF74BFEE020059002208DF81800002093
:101BA0008DF81A0003208DF8190000208DF81B0015
:101BB000052211461D48FEF712FE052206211B488C
:101BC000FEF70DFE052207211848FEF708FE05A9BD
:101BD0001648FEF7BCFD0020ADF800004FF48270FF
:101BE000ADF802000020ADF80400ADF80600ADF835
:101BF00008004FF40070ADF80A000820ADF80C00A2
:101C00000020ADF80E000A20ADF810006946084823
:101C100000F068F80121064800F04AF8FF2000F0C3
:101C200009F807B000BD00000004024000000240B7
:101C30000030014070B50546002405E0601CC4B2C8
:101C4000C82C01DD002070BD02210E4800F03CF8D8
:101C50000028F3D029460B4800F042F8002405E0A4
:101C6000601CC4B2C82C01DD0020ECE7012105484E
:101C700000F02AF80028F3D0024800F02EF8C0B295
:101C8000E1E700000030014010B504460748008835
:101C90004FF6C77108400549088008460088204370
:101CA00008800121014800F003F810BD0030014018
:101CB00021B1028842F04002028004E002884FF61F
:101CC000BF731A40028070470246002013890B4000
:101CD0000BB1012000E00020704701468889704761
:101CE0008181704710B50022028802F441520B88AE
:101CF0004C8823438C882343CC8823430C8923437B
:101D00004C8923438C892343CC8923431A43028083
:101D1000838B4FF2FF74234083830B8A038210BDB1
:101D2000704700000CB50020019000904148006809
:101D300040F480303F49086000BF3E48006800F42E
:101D4000003000900198401C0190009818B901984B
:101D5000B0F5A04FF1D13748006800F4003010B161
:101D60000120009001E0002000900098012860D13F
:101D700030484030006840F080502E4940310860C3
:101D80002D48006840F440402B490860294808303D
:101D900000682849083108600846006840F400409F
:101DA00008600846006840F4A05008602348091FF6
:101DB0000860081F006840F08070091F086000BFBD
:101DC0001C48006800F000700028F9D01A4800682C
:101DD00040F480301849086000BF1748406800F49C
:101DE00080300028F9D01448006840F400301249CF
:101DF000086000BF1048406800F400300028F9D0A7
:101E000040F205700E4908600A480830006820F06A
:101E100003000849083108600846006840F00200E5
:101E2000086000BF03480830006800F00C00082874
:101E3000F8D10CBD0038024000700040085A4077CD
:101E4000003C0240042808D14FF0E021096941F02C
:101E500004014FF0E022116107E04FF0E021096931
:101E600021F004014FF0E02211617047704700003B
:101E700010B51548006840F4700013490860134815
:101E8000006840F001001149086000200F49083146
:101E900008600E4800680E4908400C4908600D486B
:101EA000091D0860081F006820F48020091F0860D1
:101EB000002006490C310860FFF734FF4FF0006046
:101EC00001498039086010BD88ED00E0003802400B
:101ED000FFFFF6FE1030002410B50121880700F046
:101EE00010F840B10121880700F008F80248007896
:101EF000401C0149087010BD34000020CA43028212
:101F0000704730B50246002000230024158A05EAF8
:101F10000103958905EA010413B10CB1012000E029
:101F2000002030BD10B540F225511D4800F057F893
:101F300010B31B4800F00CF9C4B21A48008800F432
:101F40000040C8B91748008800F4804060B10A2CEE
:101F500003D000201349088020E01248008840F494
:101F600000401049088019E00D2C06D10D4800886A
:101F700040F480400B49088010E00A480088C0F314
:101F80000D0009490C5407480088401C0549088089
:101F900008460088C72801DD0020088010BD000029
:101FA000004400402C0000207400002021B18289F0
:101FB00042F40052828104E082894DF6FF731A4098
:101FC0008281704702460020B1F5007F00D100BF3A
:101FD00013880B400BB1012000E00020704770B562
:101FE0000246002400230025002040F66A16B14274
:101FF00000D100BFC1F3421501F01F03012606FA0C
:1020000003F3012D02D19689334006E0022D02D15F
:10201000168A334001E0968A33400C12012606FAF4
:1020200004F41688344013B10CB1012000E0002004
:1020300070BDF0B50346002400260025002040F6C0
:102040006A17B94200D100BF1846C1F3421401F02B
:102050001F06012707FA06F5012C01D10C3004E018
:10206000022C01D1103000E014301AB107682F4360
:10207000076002E00768AF430760F0BD2DE9FF4746
:1020800005460E460024A14600BFA046B08900B117
:1020900000BF2C8A24F44054F08804432C82AC897D
:1020A00041F20C608443B088318908437189084348
:1020B0000443AC81AC8A24F44074B0890443AC82FC
:1020C0006846FFF753FA2048854202D01F488542F0
:1020D00002D1DDF80C9001E0DDF80890A88900F449
:1020E000004040B109EBC90000EB0910316849001C
:1020F000B0FBF1F707E009EBC90000EB091031680C
:102100008900B0FBF1F76420B7FBF0F0040120096F
:10211000642101FB1078A88900F4004040B132200E
:1021200000EBC800B0FBF1F000F00700044308E04A
:10213000322000EB08106421B0FBF1F000F00F003A
:1021400004432C81BDE8FF870010014000140140CA
:1021500001468888C0F308007047C1F308028280F6
:10216000704700BFFEE700BF7047000070B504462F
:102170000D4600202071401EE0622946204602F0F4
:102180001BFB08B1032070BD94F82E1294F82F02A7
:1021900041EA00204AF65521884201D00220F2E7A8
:1021A00094F86900010694F8680041EA004194F847
:1021B000670041EA002094F86610084320F07F4051
:1021C0000D49884201D10020DDE794F88500010621
:1021D00094F8840041EA004194F8830041EA002029
:1021E00094F88210084320F07F400349884201D1CF
:1021F0000020C8E70120C6E746415400024600E03F
:10220000521C107810B110788842F9D110787047BC
:1022100070B503460D46586A021D680A1E68B678F6
:10222000B0FBF6F400BF02CA09B9002070BD8C42B1
:1022300000D202E0641A121DF5E700BF10682044C6
:10224000F4E70246891E5069801E884201D80020AA
:1022500070479378906A01FB0300F9E72DE9F04796
:1022600005460C46207820F04000401E00EB80011F
:1022700001EBC00600274FF0010800BF1A48C05DFF
:10228000205C1949C95D2144497840EA0129B8F127
:10229000000F10D0484601F0F5F98046FF2E07D216
:1022A0003146761C35F8110001F0ECF9404508D0B4
:1022B0000020BDE8F0874FF6FF70814501D0002077
:1022C000F7E7781C07460D28D8D3207800F04000A7
:1022D00038B1B8F1000F04D035F8160008B100206D
:1022E000E7E70120E5E70000F46300082DE9F04787
:1022F00004468946B9F1000F06D1E76817B1606955
:10230000B84215D8012713E04946204601F09CFC4D
:102310000646022E02D20120BDE8F087701C08B9E3
:102320003046F9E76069B04201D93046F4E74F46DC
:102330003D4600BF6D1C6069A84204D80225BD421D
:1023400001D90020E8E72946204601F07DFC064639
:1023500006B909E0701C08B1012E01D13046DBE757
:10236000BD42E7D10020D7E700BF6FF07042294699
:10237000204602F070FA8046B8F1000F08D1B9F19A
:10238000000F05D02A464946204602F064FA8046EE
:10239000B8F1000F0BD1E5602069401C78B12069CD
:1023A000401E2061607940F00100607107E0B8F1E3
:1023B000010F02D14FF0FF3000E001200546284612
:1023C000AAE700002DE9F34F83B081460498006826
:1023D000019002E00198401C0190019800782F289C
:1023E000F8D0019800785C28F4D0D9F81CA000251A
:1023F0002F4600BF38467F1C01990C5C202C03DB64
:102400002F2C01D05C2C00D132E0FF2D03D306200D
:1024100005B0BDE8F08FE4B2812C13DBE0B2FE28FA
:1024200010DC38467F1C01990E5C06EB042084B258
:10243000402E01DB7E2E05DD802E01DBFE2E01DD30
:102440000620E5E70121204601F0D2F804460CB948
:102450000620DDE7802C06DA214671A0FFF7CEFECC
:1024600008B10620D4E728466D1C2AF81040C1E7C1
:1024700000BF0198C11904980160202C01DA0420E2
:1024800000E00020804608E0681E3AF81040202C4A
:1024900002D02E2C00D002E06D1E002DF4D100BF22
:1024A0000DB90620B4E700202AF815000B222021E0
:1024B000D9F8180002F076F9002700E07F1C3AF8FE
:1024C00017002028FAD03AF817002E28F6D00FB1BE
:1024D00048F0030800E06D1E25B1681E3AF81000B0
:1024E0002E28F8D10020064602904FF0080B00BFBE
:1024F00038467F1C3AF8104004B963E0202C03D022
:102500002E2C04D1AF4202D048F00308F0E7029825
:10251000584501D2AF4214D1BBF10B0F02D148F0A4
:1025200003084FE0AF4201D048F00308AF4200D9A2
:1025300048E02F46082002904FF00B0BB006060E25
:10254000D6E7802C09DB204601F09CF800210090A2
:1025500001F04EF8044648F00208FF2C11DDABF103
:1025600001000299884204D848F00308CDF808B069
:10257000BEE72212D9F818300298411C02911A5471
:1025800019E024B1214629A0FFF738FE18B15F24D5
:1025900048F003080FE0412C04DB5A2C02DC46F023
:1025A000020608E0612C06DB7A2C04DC46F001060A
:1025B000A4F1200084B2D9F818300298411C02918D
:1025C0001C5495E700BFD9F818000078E52803D11E
:1025D0000520D9F818100870BBF1080F01D1B0061A
:1025E000060E06F00C000C2803D006F003000328AA
:1025F00001D148F0020808F0020058B906F00300C3
:10260000012801D148F0100806F00C00042801D17F
:1026100048F00808D9F8180080F80B800020F7E689
:10262000222A3A3C3E3F7C7F000000002B2C3B3DA1
:102630005B5D000010B56FF00400FFF703FC0A4873
:1026400000680A49B0FBF1F00949087008460078B3
:1026500000EB4001C1EBC0104FF6FF7101EAC00072
:102660000449088010BD00000000002000127A001C
:1026700024000020260000200146114A12884A4307
:102680004FF0E0235A6100229A611A46126942F023
:1026900001021A6100BF4FF0E022106900F0010250
:1026A0001AB100F48032002AF5D04FF0E02212690E
:1026B00022F001024FF0E0231A6100229A61704774
:1026C000260000200146114A12784A434FF0E023C9
:1026D0005A6100229A611A46126942F001021A6197
:1026E00000BF4FF0E022106900F001021AB100F4BF
:1026F0008032002AF5D04FF0E022126922F0010268
:102700004FF0E0231A6100229A61704724000020F4
:102710002DE9F04104460E460021204600F0B7F9AD
:102720000546EDB9002700BF2169206802F044F892
:10273000054605B113E060690078E52802D06069BC
:10274000007820B9781C0746B04201D107E0002785
:102750000121204600F07FF80546002DE4D000BF9F
:10276000042D00D107252846BDE8F0812DE9F0476A
:1027700004460021204600F08AF9074617B1384682
:10278000BDE8F0874FF0FF09CA464FF6FF7020847E
:1027900000BF2169206802F00FF8074607B157E033
:1027A00065692E780EB9042752E0E87A00F03F08F8
:1027B000E52E05D008F0080040B1B8F10F0F05D0A4
:1027C0004FF0FF094FF6FF7020843AE0B8F10F0F89
:1027D0001CD1E06978B306F0400030B195F80DA047
:1027E00026F04006B146E08820844E450AD1687B39
:1027F000504507D12946E069FFF730FD10B1A9F136
:10280000010000E0FF2000F0FF091AE0B9F1000F1D
:1028100005D1284602F0FEF8504500D118E0A06925
:10282000C07A00F0010038B90B222846A16901F0F6
:102830000BFF08B90CE004E04FF0FF094FF6FF7002
:1028400020840021204600F006F80746002FA0D083
:1028500000BF384694E72DE9F04104468846E088F9
:10286000461CB0B208B1206910B90420BDE8F0815F
:1028700006F00F0000286BD12069401C2061E06841
:1028800028B920680089B04262D80420EEE72068A9
:102890008078401E00EA1610002859D1E1682068AF
:1028A00001F0D2F90546012D01D80220DEE7681CAF
:1028B00008B90120DAE720684069A84242D8B8F197
:1028C000000F01D10420D1E7E1682068FFF70EFD79
:1028D00005460DB90720C9E7012D01D10220C5E742
:1028E000681C08B90120C1E7206802F007F908B1A7
:1028F0000120BBE7216801F130004FF40072002194
:1029000001F050FF29462068FFF79BFC2168C86250
:1029100000270EE0012021680871206802F0EEF81F
:1029200008B10120A2E72068C06A401C2168C86283
:102930007F1C20688078B842ECD82068C06AC01B31
:102940002168C862E56029462068FFF77AFC2061AB
:10295000E6802068303006F00F0100EB4110606126
:10296000002083E72DE9FE4F0446D4F81880D4F800
:102970001C900C224146684601F079FE00BF9DF88C
:102980000B0000F0010020B3002088F80B00E0618C
:1029900001260CE033464A466946404601F0EEF80F
:1029A0002046FFF7E3FE054605B102E0761C642EE3
:1029B000F0D300BF642E02D10720BDE8FE8F042DA6
:1029C00001D02846F9E79DF80B0088F80B00C4F801
:1029D0001C909DF80B0000F0020060B1002600E0A2
:1029E000761C39F816000028FAD106F119000D21DD
:1029F000B0FBF1F700E0012739462046FFF788FEDB
:102A0000054645BB781E071E25D0E088C11B204621
:102A100000F03DF80546F5B9A06901F0FBFF8246DC
:102A200000BF2169206801F0C7FE054605B111E02D
:102A3000FAB253466169E06901F00AF801202168A1
:102A4000087100212046FFF706FF054615B9781EDC
:102A5000071EE6D100BFC5B92169206801F0ACFEB0
:102A6000054695B920220021606901F09BFE0B22EA
:102A7000D4E9050101F0FBFDA069C07A00F018005F
:102A800061690873012021680871284695E72DE9DE
:102A9000F04104460E46E680A568012D03D020686B
:102AA0004069A84202D80220BDE8F0812DB9206813
:102AB0000078032801D12068456A45B9206800895B
:102AC000B04201D80220EFE72068476A1EE0206884
:102AD00080784FEA001812E02946206801F0B4F827
:102AE0000546681C08B90120DEE7022D03D32068E3
:102AF0004069A84201D80220D6E7A6EB0806464561
:102B0000EAD229462068FFF79CFB0746E5600FB92B
:102B10000220C9E707EB161020612068303006F06C
:102B20000F0100EB411060610020BDE770B5054664
:102B30000024FEF71DFE04460CB1012070BD0020EC
:102B4000FCE710B5034611B1022907D101E00020CE
:102B500006E04FF400741460002001E0042000BF80
:102B600000BF10BD2DE9F04781460D4616461C46B4
:102B700000274FF00A0814B90420BDE8F087E2B23C
:102B800031462846FEF7B8FE074607E0FEF7F0FD9F
:102B9000E2B231462846FEF7AFFE074637B1B8F13C
:102BA0000000A8F1010101F0FF08EFD10FB90020EA
:102BB000E3E70120E1E70146002070472DE9F047F7
:102BC00081460D4616461C4600274FF00A0814B9E8
:102BD0000420BDE8F087E2B231462846FEF774FFD4
:102BE000074607E0FEF7C4FDE2B231462846FEF78D
:102BF0006BFF074637B1B8F10000A8F1010101F001
:102C0000FF08EFD10FB90020E3E70120E1E72DE94C
:102C1000FC4707460C46154600200090804681463A
:102C200001AA6946384600F065F806468EB9019853
:102C30004069801E0199897800FB01F9019880782C
:102C4000009900FB01F84FEA590020604FEA580054
:102C500028603046BDE8FC8710B500240DE04FF435
:102C60000C7001F0D1FD174941F82400084650F8D6
:102C7000240000B903E0601CC4B2012CEFDB00BFEC
:102C80004FF40A7001F0C0FD0F4908604FF40A705C
:102C900001F0BAFD0D4908604FF4007001F0B4FD79
:102CA0000B490860012C0AD10748006838B1074871
:102CB000006820B10846006808B1002010BD01205E
:102CC000FCE700005C0000206000002064000020A1
:102CD0007000002070B50546284600F03BFB044616
:102CE00034B9284601F086FF04460CB9002028605C
:102CF000204670BD2DE9F74F82B08A46002202A916
:102D0000049800F0DBFC0190049804680198002806
:102D10006DD1D4E90410801E814203D82069CAF81D
:102D2000000064E094F800B00026BBF1010F1CD154
:102D3000022700BF3946204600F086FF804608F192
:102D4000010010B9012001900EE0B8F1010F02D18D
:102D50000220019008E0B8F1000F00D1761C781C29
:102D6000074661698842E5D33AE06769206A0090C6
:102D70004FF00009002500BFB9F1000F0ED10098F7
:102D8000421C01462046009201F016FD0190019878
:102D900000B124E004F130054FF40079BBF1020FDB
:102DA00009D12878697840EA012000B9761CAD1C69
:102DB000A9F1020910E0E8780006A97840EA01408C
:102DC000697840EA01202978084320F0704000B972
:102DD000761C2D1DA9F10409781E071ECCD100BF59
:102DE0002661607940F001006071CAF800600198C6
:102DF00005B0BDE8F08F2DE9F14F8CB000F09DFFDC
:102E0000064601220CA903A800F058FC0546002D37
:102E10007BD14FF4007000F029FC8046B8F1000F20
:102E200003D111200DB0BDE8F08FCDF82880CDF88A
:102E300024D003A80C9900F04BFE054605B90825DF
:102E400000BF042D7AD100210398FFF74FFA0746FF
:102E5000002507B90725012F00D10225781C00B9EC
:102E600001251DB9039801F049FE0546002D5BD1EF
:102E700039460398FFF7E5F98246039800F13004DC
:102E80004FF400720021204601F08CFC0B2220211F
:102E9000204601F087FC2E2020701020E072A675DD
:102EA000310AE175310C2176310E617639462046C2
:102EB00001F0A8FD2022214604F1200001F0D7FBFB
:102EC0002E2084F82100DDF814B003980078032840
:102ED00004D10398406A584500D1AB46594604F1E5
:102EE000200001F08FFD039890F8029018E00398FD
:102EF000C0F82CA00AF1010A012003990871039877
:102F000001F0FCFD05460DB10DE030E04FF400721C
:102F10000021204601F046FCA9F1010000F0FF0964
:102F2000B9F1000FE3D100BF1DB903A8FFF71AFDE7
:102F3000054625B13946039801F02EFD14E0089CA2
:102F40001020E072A675310AE175310C2176310E40
:102F500061763946204601F055FD0120039908713C
:102F6000039801F067FD0546404600F085FB2846C2
:102F700058E70000F7B582B016460398019001A803
:102F800000F065FF0546002D02DA0B2005B0F0BD0C
:102F90000E4850F825400CB100202070029810B166
:102FA0000020029908700949029841F8250002980A
:102FB00008B1012E01D00020E8E7002203A902A8F1
:102FC00000F07CFB07463846E0E700005400002094
:102FD0002DE9F7478DB0054616461DB9092010B0FA
:102FE000BDE8F0870020286006F01F0626F00102E9
:102FF0000EA904A800F062FB0746002F73D14FF41E
:10300000007000F033FB8146B9F1000F01D11120AF
:10301000E5E7CDF82C9001A80A9004A80E9900F0DD
:1030200057FD0746099C0FB904B9062706F01C0096
:10303000002851D04FB1042F03D104A8FFF792FC10
:10304000074646F00806099C09E0E07A00F0110006
:1030500008B1072703E006F0040000B10827002F9D
:103060004AD106F00800002846D000F066FE8046EF
:1030700084F80E804FEA1821E1734FEA1841217459
:103080004FEA186161740020E072207700216177B7
:10309000A177E1772146049800F0FDFE82460021E9
:1030A000204601F0AFFC012004990871BAF1000F2D
:1030B00022D00498D0F82C805146049801F06CFC82
:1030C0000746CFB9AAF101000499C86041460498A7
:1030D00001F072FB07460FE077B9E07A00F01000CC
:1030E00010B1042708E031E006F0020020B1E07AD8
:1030F00000F0010000B1072747B906F0080008B149
:1031000046F020060498C06AE8612C62484600F048
:10311000B3FADFB9AE710020E8712146049800F0DF
:10312000BAFE2861E07F0106A07F41EA0041607F8E
:1031300041EA0020217F0843E8600020A860A861E0
:103140006862049828602868C088A880384646E7E6
:103150002DE9FF4F83B0044615469A46DDF810B0BE
:103160000020CAF80000204601F044FD02900298B9
:1031700018B1029807B0BDE8F08FE07908B1E079A6
:10318000F8E7A07900F0010008B90720F2E7D4E9D8
:103190000210401A00900098854200D9009DAAE0D4
:1031A0002089C0F30800002876D120688078401E6E
:1031B000A16800EA512000F0FF09B9F1000F1FD10A
:1031C000A06810B9206901900CE0606A28B120461F
:1031D000A168FFF71DF8019004E06169206800F024
:1031E00033FD01900198022802D20220E071C1E76C
:1031F0000198401C10B90120E071BBE701986061A3
:1032000061692068FFF71DF8064616B90220E071D3
:10321000B0E74E444FEA5528B8F1000F29D009EB2A
:10322000080021688978884203D920688078A0EB5B
:10323000090821684878434632465946FFF792FC10
:1032400010B10120E07195E7A07900F0400068B16D
:10325000A069801B404509D2A169891B0BEB412065
:103260004FF4007204F1280101F001FA4FEA4827F7
:1032700037E0A069B04220D0A07900F0400080B1D2
:1032800021684878012304F12801A269FFF796FC20
:1032900018B10120E0716DE710E0A07920F0400046
:1032A000A071216848780123324604F12801FFF714
:1032B00059FC10B10120E0715CE7A6612089C0F3E0
:1032C0000800C0F50077AF4200D92F462089C0F32F
:1032D000080204F1280011183A46584601F0C7F9CF
:1032E00000BFBB44A0683844A060DAF8000038444E
:1032F000CAF80000ED1B002D7FF452AF002039E723
:1033000073B58CB00E4600220CA903A800F0D6F9C4
:103310000546EDB94FF4007000F0A8F9044614B961
:1033200011200EB070BD0A94CDF824D003A80C99DA
:1033300000F0CEFB054645B9089828B12EB13146BC
:1033400003A800F0FCFC00E00625204600F094F9FC
:103350002846E6E72DE9F0410446204601F04AFC04
:103360000746002F4CD1A07900F02000002847D05C
:10337000A07900F0400078B121684878012304F179
:103380002801A269FFF71AFC10B10120BDE8F08105
:10339000A07920F04000A071E169206801F00CFAEA
:1033A0000746002F2CD1256AE87A40F02000E87209
:1033B000207B2877A089010A6977E068010CA9774A
:1033C000E068010EE9772846216901F01BFB00F057
:1033D000B4FC0646AE75310AE975310C2976310E1A
:1033E00069760020A8740021E974A07920F02000FB
:1033F000A071012021680871206801F01BFB0746BD
:103400003846C3E72DE9FF4F83B0044615469B4677
:10341000049801900020CBF80000204601F0EAFB60
:103420000290029818B1029807B0BDE8F08FE079D9
:1034300008B1E079F8E7A07900F0020008B90720A8
:10344000F2E7A0682844A168884200D20025BEE0C7
:103450002089C0F3080000287DD120688078401EB4
:10346000A16800EA512000F0FF0ABAF1000F26D14E
:10347000A06838B9276997B900212068FEF736FFA0
:1034800007460CE0606A28B12046A168FEF7C0FE3E
:10349000074604E061692068FEF728FF074607B980
:1034A00098E0012F02D10220E071BDE7781C10B92D
:1034B0000120E071B8E76761206900B92761A07950
:1034C00000F0400078B121684878012304F1280118
:1034D000A269FFF773FB10B10120E071A4E7A079A6
:1034E00020F04000A07161692068FEF7AAFE064640
:1034F00016B90220E07197E756444FEA5529B9F111
:10350000000F2CD00AEB090021688978884203D982
:1035100020688078A0EB0A09216848784B4632463B
:103520000199FFF74BFB10B10120E0717CE7A06926
:10353000801B48450ED2A069801B019A02EB4021F6
:103540004FF4007204F1280001F091F8A07920F006
:103550004000A07100E016E04FEA49282AE0A06987
:10356000B0420FD0D4E9020188420BD221684878DA
:103570000123324604F12801FFF7F4FA10B10120CB
:10358000E07151E7A6612089C0F30800C0F500781A
:10359000A84500D9A8462189C1F3080204F12801F1
:1035A00050184246019901F062F8A07940F04000BD
:1035B000A07100BF019840440190A0684044A06001
:1035C000DBF800004044CBF80000A5EB0805002D17
:1035D0007FF43EAF00BFD4E90201884201D9A06860
:1035E000E060A07940F02000A07100201CE70000FE
:1035F0002DE9F04102460F46802A01DA10462FE0FD
:103600001FB1184B45F2205602E0174B45F22056E9
:103610000025102416E0A6EB050C0CEBDC7805EB7E
:1036200068014FEA410C33F81CC0944500D10BE00F
:103630004FEA410C33F81CC0944501DA0D4600E016
:103640000E46641E002CE6D100BF34B14FF0010CD1
:103650000CEB410C33F81CC001E04FF0000C60464D
:10366000BDE8F081B2B801082E64000810B5044628
:10367000204601F0C9F810BD10B50446204601F0FF
:10368000B5F810BD0246002100E0491C094830F899
:10369000110020B1074830F811009042F5D10548DB
:1036A00030F8110018B1044830F811007047104686
:1036B000FCE70000360D0308160F03082DE9F74F4D
:1036C0008AB000210A9801600B9800F0C0FB0990B5
:1036D0000998002803DA0B200DB0BDE8F08FD84917
:1036E000099851F820400CB90C20F5E70A980460BD
:1036F000207878B16078FFF75EFA814609F0010022
:1037000040B90C9820B109F0040008B10A20E3E7A1
:103710000020E1E700202070099860706078FFF7D2
:1037200005FA814609F0010008B10320D4E70C989E
:1037300020B109F0040008B10A20CDE7002739467E
:103740002046FEF713FD0546012D01D09DBB32E05A
:1037500000261AE004F5F77000EB061898F804004C
:1037600070B198F80B00010698F80A0041EA004190
:1037700098F8090041EA002098F80810084300E092
:10378000002002A941F82600761C042EE2D3002670
:1037900006B1761E00BF02A850F8267027B1394640
:1037A0002046FEF7E3FC00E0022005461DB1701C38
:1037B00006460428EFD3032D01D101208CE70DB17B
:1037C0000D2089E73B20015D94F83C0041EA002090
:1037D000B0F5007F01D00D207EE74620015D94F812
:1037E000470041EA002ABAF1000F0ED194F85700C1
:1037F000010694F8560041EA004194F8550041EA68
:10380000002094F8541040EA010AC4F818A040209F
:10381000005DE070E078012804D0E078022801D053
:103820000D2059E7E0780AFB00FA3D20005DA0700A
:10383000A07818B1A078411E084008B10D204BE7D0
:103840004120015D94F8420041EA00202081207A65
:1038500000F00F0008B10D203EE74320015D94F811
:10386000440041EA00200890089870B994F8530089
:10387000010694F8520041EA004194F8510041EAEF
:10388000002094F85010084308903E20015D94F801
:103890003F0041EA00200190019808B90D201BE784
:1038A00001985044218900EB11100790DDE90701D0
:1038B000814201D20D200FE7DDE90710401AA178FF
:1038C000B0FBF1FBBBF1000F01D10D2004E7012596
:1038D00040F6F670834500D302254FF6F670834517
:1038E00000D303250BF102006061E76101983844C1
:1038F000206207983844A062032D16D1208908B1B0
:103900000D20E9E694F85F00010694F85E0041EAB4
:10391000004194F85D0041EA002094F85C100843EF
:10392000606260698000069014E0208908B90D206B
:10393000D2E6206A50446062022D02D160694000E4
:1039400007E0207D00F00100616901EB410100EB1F
:1039500051000690A169069800F2FF10B1EB502FBC
:1039600001D20D20B8E64FF0FF302061E0608020EA
:103970006071032D5AD194F8601094F8610041EA07
:103980000020012852D1791C204600F015FFE8BB29
:103990000020607194F82E1294F82F0241EA002062
:1039A0004AF65521884241D13320005D010632207C
:1039B000005D41EA00413120005D41EA002094F8B9
:1039C000301008431F49884230D194F8170201068D
:1039D00094F8160241EA004194F8150241EA0020E9
:1039E00094F814120843184988421FD194F81B0216
:1039F000010694F81A0241EA004194F8190241EADA
:103A0000002094F818120843206100E00EE094F8BA
:103A10001F02010694F81E0241EA004194F81D02BB
:103A200041EA002094F81C120843E0602570074822
:103A30000088401C80B205490880E08000204BE6E9
:103A400054000020525261417272416158000020BE
:103A5000F0B504461D464D730F27CF7200270F7334
:103A60008F76BC4681F81BC0571E07EB870C0CEB0A
:103A7000C706002738463B4600BF4FF6FF77B842DF
:103A800003D03746761C34F81700DFF840C01CF826
:103A900003C001F80C000712DFF830C01CF803C0A7
:103AA0008C448CF8017008B94FF6FF705F1C3B46E0
:103AB0000D2FE2D34FF6FF77B84202D034F81670DC
:103AC0000FB942F040020A70F0BD0000F463000834
:103AD0002DE9F3410446019800782F2803D001987E
:103AE00000785C2802D10198401C01900020A06061
:103AF00001980078202807D200212046FEF7C7FF52
:103B000005460020606128E000BF01A92046FEF7BD
:103B100059FC054605B11FE02046FEF727FE054685
:103B2000A069C67A3DB1042D04D100BF06F004009F
:103B300000B9052510E006F0040000B10CE067694B
:103B4000F87A00F0100008B9052505E0394620682C
:103B500000F0A1F9A060D8E700BF2846BDE8FC81CD
:103B600000BF054A128802F04002002AF9D0C2B212
:103B7000014B1B1D1A807047004400402DE9FF4F88
:103B800083B0074691461E460B223846049900F042
:103B90006EFD052E19D9B04612E039F802BB00259A
:103BA0000CE0584668F35F0080464FEA6B0B08F460
:103BB000803010B1234888EA00086D1C102DF0D326
:103BC000B9F800000028E8D14646072500BF06F0F6
:103BD0000F0000F1300ABAF1390F03DD0AF10700D6
:103BE00000F0FF0A28466D1E01A901F800A0360961
:103BF000002EECD17E20485500240BE0385D812852
:103C000007DB385DFE2804DC681EA04200D106E018
:103C1000641C641CAC4202D2385D2028EED100BF87
:103C200000BF082D04D228466D1C01A9095C00E0E4
:103C300020212046641C3954082CF2D307B0BDE87B
:103C4000F08F0000211001002DE9F04705460C46D9
:103C5000022C02D36869A04202D84FF0010969E042
:103C60004FF0FF392878012804D002282ED00328ED
:103C70005CD13FE0274607EB5707286A00EB572146
:103C8000284600F099FD00B153E038467F1CC0F390
:103C9000080105F1300010F80180286A00EB572177
:103CA000284600F089FD00B143E0C7F3080105F1A3
:103CB0003000405C48EA002804F0010010B14FEAEF
:103CC000181001E0C8F30B00814632E0286A00EBCF
:103CD0001421284600F070FD00B12AE040F2FF10E8
:103CE00000EA440105F130000E183078717840EA9E
:103CF00001291EE0286A00EBD411284600F05CFD83
:103D000000B116E040F2FF1000EA840105F1300036
:103D10000E18F0780006B17840EA0140717840EA68
:103D200001203178084320F0704902E04FF001098A
:103D300000BF00BF4846BDE8F087002070472DE96E
:103D4000F05F80460D4605F10907D8F810000028FD
:103D500043D0D8F81440002626E03046761C14F8EC
:103D60000090B9F1200F00D11EE0B9F1050F01D18B
:103D70004FF0E509092E02D12E2007F8010BB9F109
:103D8000410F0EDBB9F15A0F0BDC207B092E01D35A
:103D9000102100E00821084018B109F1200000F0CE
:103DA000FF0907F8019B00BF0B2ED6D3E07A2872DB
:103DB000E07F0106A07F41EA0041607F41EA0020E8
:103DC000217F08432860217E607E41EA0020A88090
:103DD000A17DE07D41EA0020E88000203870A869DC
:103DE00098B30026AF69D8F8100060B3E86950B303
:103DF000B8F820004FF6FF71884224D0D8F81CB0E4
:103E00001BE000215046FFF7F3FB8246BAF1000F9A
:103E100001D1002616E0BAF1FF0F04DD4FEA2A2295
:103E20003046761C3A54E869401EB04201D800265C
:103E300008E03046761C07F800A03BF8021BB1F101
:103E4000000ADED100BF0020B855BDE8F09F70B574
:103E500002464FF0FF301568DDB1116800E0491CE3
:103E60000D78202D02D30D783A2DF8D10D783A2D0A
:103E70000ED1146814F8015BA5F130030A2B06D2A9
:103E80008C4204D11BB918464D1C2946156070BDE3
:103E9000002000BFFBE710B502468C7ECB7E44EAD3
:103EA00003201378032B05D10C7D4B7D44EA0323BB
:103EB00040EA034010BD000086B000260027FEF750
:103EC000B9FB4FF4A060FDF705FB4FF4E13000F0C3
:103ED0003FFEFCF7C7FBFCF78FFDFDF73DFE00F052
:103EE000F7FBFEF7B9FEFE4901220868FDA1FFF7C6
:103EF00041F804469CB1FCA018210B46C822CDE92C
:103F0000001014211E20FDF72DFA1820052322464B
:103F1000142100909620FDF7DBF900BFFEE7F5A025
:103F200018210B46C822CDE9001014211E20FDF7F0
:103F300019FA19E0F3A018210B46C822CDE90010A8
:103F400032211E20FDF70EFAC820FEF795FBF3A0E4
:103F500018210B46C822CDE9001032211E20FDF7A2
:103F600001FAC820FEF788FB03AA04A9F1A0FEF716
:103F70004EFE0028DED1F0A018210B46C822CDE964
:103F8000001032211E20FDF7EDF9EEA018210B469E
:103F90004FF49672CDE9001050211E20FDF7E2F992
:103FA000EEA018210B464FF49672CDE900106E2159
:103FB0001E20FDF7D7F9182000900498820A0523E7
:103FC0005021C620FDF784F9182000900398820A3A
:103FD00005236E21C620FDF77BF9E6A010210B46D4
:103FE000C822CDE900108C211E20FDF7BBF9E5A009
:103FF00010210B464FF49672CDE90010A0211E202F
:10400000FDF7B0F9E6A010210B464FF49672CDE90A
:104010000010C8211E20FDF7A5F9E8A010210B46CD
:104020004FF48272CDE900104FF48C711E20FDF721
:1040300099F9E949E9A0FFF763F988B1E7A0FEF72C
:10404000DAFE044664B1E9A010210B464FF49672E3
:10405000CDE90010F0211E20FDF784F900BFFEE736
:10406000DD49E9A0FFF74CF938B10622E6A1ED4899
:104070000068FEF7ADFF044606E00222E2A1E9482F
:104080000068FEF7A5FF044664B1E7A010210B46C7
:104090004FF49672CDE90010F0211E20FDF762F971
:1040A00000BFFEE7E84B0F22E8A1DE480068FFF7FB
:1040B000A9F9E54800680F280CD0E8A010210B46AC
:1040C0004FF49672CDE90010F0211E20FDF74AF959
:1040D00000BFFEE7D3480068FEF7FCFD79E20A2046
:1040E00096FBF0F100FB116000287DD1E1480068EB
:1040F000E1490840DF490860E048006820F44010CA
:10410000DE490860DB480068DD490843D94908609A
:10411000DA48006840F48010D84908600020D94986
:1041200008600120D849C1F8A0020420FCF780FBF8
:1041300082460120FCF77CFB8146A9EB0A0040F295
:10414000FF31081A1FFA80F8B8F1C80F7ADBB8F50A
:104150007A7F77DCC7480068CC490840C5490860C9
:1041600008460068CA490843C24908600120C94995
:1041700008600020C449C1F8A002BE48006840F4AD
:104180004070BC490860BD48006820F44010BB493D
:10419000086005210420FCF763FB8246B5480068EF
:1041A00020F44070B34908600846006840F480700D
:1041B0000860B248006820F44010B0490860084622
:1041C000006840F4801008600120AE4908600020BB
:1041D000AD49C1F89002A7480068AC490840A5491C
:1041E00008600846006800E04FE040F00C000860FE
:1041F00005210120FCF734FB81469E480068A34955
:1042000008409C49086008460068A149084399494C
:10421000086001209F49086000209B49C1F8A00266
:104220001020032352464FF48C710090F620FDF7C6
:104230004FF8102003234A464FF48C710090881EDB
:10424000FDF746F88B4800689349084089490860A3
:104250000846006891490843864908608748006815
:104260008F49084085490860084600688D49084321
:10427000824908608C48006820F440408A49086000
:104280000846006840F4804008608848008800F4D0
:10429000004018B385480088C0F30D00059084489D
:1042A00010210B464FF49672CDE90010C8211E2054
:1042B000FDF758F800250DE07D48415D7D48FDF78C
:1042C0004CFF00BF40217B48FDF77CFE0128F9D15F
:1042D000681C85B2BDF814008542EDE0F2E00000F4
:1042E0005C000020303A00004D6F756E74206572DE
:1042F0007221000050726F6772616D207374617279
:104300007400000053442043617264204661746667
:1043100073204572726F72210000000052652D6992
:104320006E697469616C697A696E6721202020204A
:1043300000000000300000004641544653204F4B1F
:1043400021000000534420546F74616C2053697A3B
:10435000653A20202020204D4200000053442020B8
:10436000467265652053697A653A20202020204DE9
:10437000420000005352414D20555345443A2020FD
:1043800020250000546865206D65737361676520A2
:10439000796F752073656E742069733A00000000B0
:1043A000546865206D65737361676520796F75204A
:1043B00073746F7265642069733A0000596F757287
:1043C00020746F756368206C6F636174696F6E2011
:1043D00058592069733A0000D8B30020303A2F743E
:1043E0006573745F666F6C6465720000466F6C6421
:1043F0006572206372656174696F6E206661696CB5
:104400007572652100000000303A2F746573745F87
:10441000666F6C6465722F68656C6C6F2E7478744F
:10442000000000006000002046696C652063726532
:104430006174696F6E2F7772697465206661696C4B
:1044400075726521000000006C00002048656C6CEE
:104450006F2C20576F726C64210D0A0046696C65E1
:104460002077726974696E67206661696C75726520
:104470002100000000000240F3FCFCFF00040240A9
:104480000C030100A882404200004042F3FFFCFF01
:104490000400010084024042F3FCC0FF0401150047
:1044A0003FF0CFFF40051000000802402C00002024
:1044B0007400002000440040FFF6FEAE0020454995
:1044C000088083E0701C86B2642096FBF0F100FB4C
:1044D000116000287AD157B94FF4006000F094F9C8
:1044E00007460A223CA1384600F09EF903E0384610
:1044F00000F07CF9002700F03DF9834610200323EB
:104500005A468C2100906E20FCF7E2FE35A0102167
:104510000B464FF49672CDE90010DC211E20FCF70B
:1045200021FF102003464FF49672DC21CDE90007ED
:104530001E20FCF717FF0122AFF234112D4800684E
:10454000FEF746FD044664B12BA010210B464FF444
:104550009672CDE90010F0211E20FCF703FF00BF8A
:10456000FEE72B4B0F222B48016822480068FEF71C
:10457000EFFD0446264800680F280CD026A0102125
:104580000B464FF49672CDE90010F0211E20FCF787
:10459000E9FE00BFFEE717480068FEF79BFB24A07A
:1045A00010210B464FF48272CDE90010F0211E203D
:1045B000FCF7D8FE17480068102128234FF48272B8
:1045C000CDE9001011461E20FCF7CCFE0A20FEF7B4
:1045D00053F884E52C0000204D656D20616C6C6FF4
:1045E00063210000202020202020202020202020C7
:1045F0002020000060000020526561642066696C24
:1046000065206F70656E206661696C75726521004A
:10461000680000207000002046696C6520726561AA
:1046200064696E67206661696C75726521000000BF
:104630005468652066696C6520636F6E74656E747E
:104640002069733A00000000F0B503461C460D4691
:10465000002000BF161EA2F1010207D014F8017B52
:1046600015F801CBA7EB0C06301EF3D0F0BD70B5EA
:1046700003460C4603E014F8015B03F8015B151ECA
:10468000A2F10102F7D170BD70B505460F48007C5C
:1046900020B90E4908688047012070BDB5F5284F44
:1046A00011D269090948C06830F81120002406E0D9
:1046B0000020064BDB680E1923F81600641C944298
:1046C000F6DB0020E9E70220E7E7000040000020D9
:1046D00000B509494FF42862C868002100F0B1F81C
:1046E00005494FF428428868002100F0AAF801200B
:1046F0000149087400BD0000400000202DE9F04190
:1047000006460024A0461A48007C10B918490868DB
:1047100080471EB94FF0FF30BDE8F081C6F34F155A
:1047200006F01F0008B1681C85B240F23F541AE041
:104730000F48C06830F8140020B908F101001FFAD2
:1047400080F801E04FF00008A8450BD1002705E0F4
:104750000748C068E11920F811507F1CAF42F7D319
:104760006001D9E7641E002CE2DA4FF0FF30D3E796
:10477000400000200022002106E00948C06830F80F
:10478000110000B1521C491CB1F5A86FF5D364208B
:1047900050434FF4A863B0FBF3F0C0B27047000081
:1047A0004000002030B5034601E003F8011B141E51
:1047B000A2F10102F9D130BD70B504460D460026C4
:1047C000E06AA84210D0204600F098F906465EB98B
:1047D000607801232A4604F13001FEF7C3F910B1D5
:1047E0004FF0FF350126E562304670BD70B50446D6
:1047F00004B970BD03488068251A2846FFF744FFB6
:1048000000BFF6E74000002070B505462846FFF7D8
:1048100075FF0446601C08B9002070BD014880681F
:104820002044FAE74000002070B503460C4603E040
:1048300014F8015B03F8015B151EA2F10102F7D128
:1048400070BD30B5034601E003F8011B141EA2F150
:104850000102F9D130BD2DE9F04705460E46174655
:10486000022E02D36869B04202D84FF0020890E0ED
:104870002878012804D0022844D003287DD159E0AB
:10488000B14609EB5909286A00EB59212846FFF780
:1048900093FF8046B8F1000F00D079E0484609F157
:1048A0000109C0F3080105F130000C1806F0010001
:1048B00020B1F9B2207861F31F1000E03846207073
:1048C00001202871286A00EB59212846FFF774FF60
:1048D0008046B8F1000F00D05AE0C9F3080105F195
:1048E00030000C1806F0010010B1C7F3071005E006
:1048F000207800F0F000C7F3032108432070012066
:10490000287145E0286A00EB16212846FFF754FF7E
:104910008046B8F1000F00D03AE040F2FF1000EA04
:10492000460105F130000C182770380A607001202C
:1049300028712DE0286A00EBD6112846FFF73CFFCE
:104940008046B8F1000F00D022E040F2FF1000EAEC
:10495000860105F130000C18E0780006A17840EAE5
:104960000140617840EA01202178084300F070405E
:1049700007432770380A607000E006E0380CA0702A
:10498000380EE0700120287102E04FF0020800BFED
:1049900000BF4046BDE8F0872DE9F04104460E46D1
:1049A000022E02D36069B04201D8022727E0002717
:1049B00021E031462046FFF747F9054605B91DE0DD
:1049C000012D01D1022719E0681C08B9012715E063
:1049D000002231462046FFF73EFF074607B10DE0B3
:1049E0002069401C30B12069401C2061607940F092
:1049F000010060712E466069B042DAD800BF3846C7
:104A0000BDE8F08181760B0AC3760A0C02750B0EA5
:104A10004375704730B5014600200B2200BF43109C
:104A200003EBC01411F8015B6319D8B2531E1A1EB0
:104A3000F5D130BD70B50446204600F05FF805465C
:104A4000002D59D1207803284FD1607901284CD10D
:104A50004202002104F13000FFF7A4FE552184F842
:104A60002E12AA2184F82F12522084F830005221ED
:104A7000312001556121322001554121332001555A
:104A8000722184F8141284F81512412184F8161248
:104A9000612184F81712217C84F81812208A010AF7
:104AA00084F819122069010C84F81A122069010E89
:104AB00084F81B12217B84F81C12A089010A84F857
:104AC0001D12E068010C84F81E12E068010E84F8E3
:104AD0001F12E069401CE0626078012304F130019C
:104AE000E26AFEF76BF800206071607800221146E0
:104AF000FEF727F800B10125284670BD2DE9F041E9
:104B0000044600272079F8B1E56A607801232A4637
:104B100004F13001FEF752F808B1012714E000203B
:104B20002071206A281AA16988420DD2E67809E02E
:104B3000A0690544607801232A4604F13001FEF79C
:104B40003DF8761E022EF3D23846BDE8F081000013
:104B500010B588B0044601210846FCF7C7FC0121C6
:104B60004804FCF7D3FC0C20069002208DF81C00B2
:104B70008DF81D0000208DF81E00072202211B4821
:104B8000FBF72DFE072203211848FBF728FE06A994
:104B90001648FBF7DCFD26208DF8040003208DF875
:104BA00005008DF8060001208DF8070001A8FCF72C
:104BB00055FC02940020ADF80C00ADF80E00ADF8E5
:104BC0001000ADF814000C20ADF8120002A908483E
:104BD000FDF754FA012240F225510548FDF729FA64
:104BE00001210348FDF7E2F908B010BD00000240C2
:104BF0000044004070B505462C464CB1206838B1E1
:104C00002068007820B12068C088A188884201D03F
:104C1000092070BD21684878FDF7CDFF00F0010044
:104C200008B10320F5E70020F3E74FF04070E1EE14
:104C3000100A7047000000000000000000000000A3
:104C4000000000003F4000000000000000003000B5
:104C5000400030004000000009000BC03D000BC0C8
:104C60003D00090018C024407FE022403180000050
:104C7000180024C01B000D803240018003801C40BE
:104C800027401C800740004010006000000000002A
:104C9000000000000000000000001F8020404020B5
:104CA0000000402020401F80000000000900060096
:104CB0001F80060009000000040004003F8004007B
:104CC0000400000000100060000000000000000070
:104CD0000400040004000400040000000000004080
:104CE0000000000000000000002001C006003800A5
:104CF000400000001F802040204020401F80000016
:104D0000000010403FC000400000000018C02140DB
:104D100022402440184000001080204024402440BD
:104D20001B80000002000D0011003FC00140000088
:104D30003C80244024402440238000001F802440E5
:104D400024403440038000003000200027C0380099
:104D5000200000001B802440244024401B800000D1
:104D60001C0022C0224022401F80000000000000E2
:104D70000840000000000000000000000460000087
:104D800000000000000004000A00110020804040E4
:104D90000900090009000900090000000000404066
:104DA000208011000A000400180020002340240085
:104DB000180000001F802040274029401F400000AD
:104DC000004007C039000F0001C0004020403FC034
:104DD000244024401B8000001F80204020402040B1
:104DE0003080000020403FC0204020401F80000055
:104DF00020403FC024402E4030C0000020403FC033
:104E000024402E00300000000F001080204022407F
:104E10003380020020403FC0040004003FC0204017
:104E2000204020403FC02040204000000060202063
:104E300020203FC02000200020403FC024400B0025
:104E400030C0204020403FC020400040004000C013
:104E50003FC03C0003C03C003FC0000020403FC0BA
:104E60000C4023003FC020001F80204020402040F5
:104E70001F80000020403FC0244024001800000094
:104E80001F802140214020E01FA0000020403FC0A3
:104E90002440260019C0004018C02440244022406D
:104EA00031800000300020403FC020403000000032
:104EB00020003F80004000403F80200020003E0056
:104EC00001C0070038002000380007C03C0007C0C0
:104ED00038000000204039C0060039C020400000E2
:104EE0002000384007C0384020000000304021C07A
:104EF0002640384020C00000000000007FE0402035
:104F000040200000000070000C0003800040000002
:104F10000000402040207FE0000000000000200052
:104F200040002000000000000010001000100010E1
:104F30000010001000000000400000000000000011
:104F4000000002800540054003C0004020003FC033
:104F5000044004400380000000000380044004403B
:104F60000640000000000380044024403FC0004091
:104F7000000003800540054003400000000004409D
:104F80001FC0244024402000000002E005500550CE
:104F90000650042020403FC00440040003C00040ED
:104FA0000000044027C00040000000000010001076
:104FB000041027E00000000020403FC0014007002F
:104FC00004C00440204020403FC00040004000009A
:104FD00007C0040007C0040003C00000044007C06D
:104FE0000440040003C0004000000380044004406B
:104FF00003800000041007F0045004400380000008
:10500000000003800440045007F00010044007C073
:105010000240040004000000000006400540054076
:1050200004C00000000004001F8004400040000095
:10503000040007800040044007C00040040007004F
:1050400004C0018006000400060001C0070001C082
:1050500006000000044006C0010006C00440000035
:105060000410071004E00180060004000000044062
:1050700005C00640044000000000000004007BE082
:1050800040200000000000000000FFF000000000D1
:10509000000040207BE00400000000004000800091
:1050A0004000200020004000000000000000000040
:1050B00000000000000000000000000000001FCC05
:1050C000000C00000000000000000800300060003C
:1050D0000800300060000000022003FC1E200220B7
:1050E00003FC1E200220000000000E1811043FFFE8
:1050F00010840C78000000000F0010840F3800C0EE
:10510000077818840078000000780F8410C41124F8
:105110000E9800E400840008080068007000000099
:10512000000000000000000000000000000007E098
:105130001818200440020000000040022004181843
:1051400007E00000000000000240024001800FF074
:1051500001800240024000000080008000800FF8C3
:1051600000800080008000000001000D000E0000A3
:1051700000000000000000000000008000800080AF
:1051800000800080008000800000000C000C000007
:105190000000000000000000000000060018006091
:1051A0000180060018002000000007F00808100425
:1051B0001004080807F000000000080408041FFCA1
:1051C000000400040000000000000E0C1014102465
:1051D000104411840E0C000000000C18100411047F
:1051E000110412880C700000000000E00320042469
:1051F00008241FFC0024000000001F9810841104E4
:105200001104108810700000000007F008881104D5
:10521000110418880070000000001C00100010FC31
:1052200013001C001000000000000E381144108410
:10523000108411440E38000000000700088C104450
:105240001044088807F00000000000000000030C74
:10525000030C000000000000000000000001010637
:10526000000000000000000000000080014002205B
:10527000041008081004000002200220022002206E
:105280000220022002200000000010040808041080
:10529000022001400080000000000E001200100CEF
:1052A000106C10800F00000003E00C1813E41424AD
:1052B00017C4082807D000000004003C03C41C40A9
:1052C000074000E4001C000410041FFC110411043A
:1052D00011040E880070000003E00C181004100484
:1052E000100410081C10000010041FFC100410040F
:1052F0001004080807F0000010041FFC110411043A
:1053000017C410040818000010041FFC1104110039
:1053100017C010000800000003E00C18100410046F
:1053200010441C780040000010041FFC1084008012
:10533000008010841FFC10040000100410041FFCE7
:10534000100410040000000000030001100110010F
:105350001FFE10001000000010041FFC1104038049
:105360001464181C1004000010041FFC1004000436
:1053700000040004000C000010041FFC1F0000FCCF
:105380001F001FFC1004000010041FFC0C0403008D
:1053900000E010181FFC100007F0080810041004AB
:1053A0001004080807F0000010041FFC108410808F
:1053B000108010800F00000007F00818102410243F
:1053C000101C080A07F2000010041FFC1104110051
:1053D00011C011300E0C000400000E1C11041084CA
:1053E000108410441C3800001800100010041FFC2A
:1053F000100410001800000010001FF81004000432
:10540000000410041FF8100010001E0011E0001C22
:10541000007013801C0010001FC0103C00E01F0033
:1054200000E0103C1FC000001004180C163401C02E
:1054300001C01634180C100410001C00130400FCEA
:1054400013041C00100000000804101C10641084D9
:1054500013041C04101800000000000000007FFE70
:105460004002400240020000000030000C000380B7
:105470000060001C000300000000400240024002E7
:105480007FFE00000000000000000000200040003F
:105490004000400020000000000100010001000168
:1054A0000001000100010001000040004000200058
:1054B00000000000000000000000009801240144EA
:1054C0000144014400FC000410001FFC008801049A
:1054D00001040088007000000000007000880104D2
:1054E000010401040088000000000070008801042D
:1054F000010411081FFC0004000000F801440144ED
:105500000144014400C800000000010401040FFC34
:105510001104110411001800000000D6012901290E
:10552000012901C90106000010041FFC00840100CC
:105530000100010400FC000400000104190419FC2E
:10554000000400040000000000000003000101014D
:10555000190119FE0000000010041FFC0024004087
:1055600001B4010C010400000000100410041FFC31
:105570000004000400000000010401FC010401001B
:1055800001FC0104010000FC010401FC0084010095
:105590000100010400FC0004000000F80104010403
:1055A0000104010400F80000010101FF008501046D
:1055B00001040088007000000000007000880104F1
:1055C0000104010501FF00010104010401FC008444
:1055D0000104010001800000000000CC012401242E
:1055E000012401240198000000000100010007F8D7
:1055F0000104010400000000010001F8000400049F
:105600000004010801FC0004010001800170000C8D
:10561000001001600180010001F0010C003001C0A8
:105620000030010C01F0010000000104018C007445
:105630000170018C01040000010101810171000E63
:10564000001801600180010000000184010C013498
:1056500001440184010C0000000000000000000073
:1056600001003EFC4002400200000000000000007B
:10567000FFFF0000000000000000400240023EFC6E
:1056800001000000000000000000600080008000B9
:10569000400040002000200000000000000000004A
:1056A00000000000000000000000000000000000FA
:1056B00000000000000000000000000000000000EA
:1056C00000000000000000000000000F80380FFE06
:1056D000380F8038000000000000000000000000CB
:1056E0000000000000000100000600000C0000386F
:1056F00000003100000600000C00003800003000FF
:10570000000000000000000061800067F807F980D9
:105710000061800061800061800061800067F8079F
:10572000F98000618000000000000000000001C05E
:10573000E003E0F00630080418081FFFFE040E081E
:105740000787F00381E000000000000001F0000680
:105750000C00040408060C7001F9C0000E00003BA8
:10576000E000EC18070808040C180003E000000033
:105770000001E00007F003F818041C0804170807EC
:10578000E1D003C0E00023B0003C08002008000086
:105790001000000000000001000031000032000095
:1057A0001C000000000000000000000000000000DD
:1057B00000000000000000000000000000000000E9
:1057C00000000000000000007F0001FFC00780F023
:1057D0000C0018100004200002000000000000204F
:1057E00000021000040C00180780F001FFC0007FC9
:1057F00000000000000000000000000000000000A9
:10580000000000004200006600006600003C00004E
:10581000180003FFC0001800003C0000660000668E
:10582000000042000000000008000008000008001E
:1058300000080000080001FFC00008000008000088
:10584000080000080000080000000000000100003F
:105850003100003200001C000000000000000000C9
:105860000000000000000000000000000000000038
:1058700008000008000008000008000008000008F8
:1058800000000800000800000800000800000000F8
:105890000000000000000000380000380000380060
:1058A00000000000000000000000000000000000F8
:1058B0000000000000000000000600001C00007056
:1058C000000180000E0000380000C0000700001C2E
:1058D0000000300000000000000000007F8001FF99
:1058E000E003807006001804000804000806001891
:1058F00003807001FFE0007F8000000000000000D6
:10590000000001000801000801000803FFF807FF7C
:10591000F800000800000800000800000000000077
:1059200000000001C03802C05804009804011804A7
:105930000218040418061C1803F81801E0F8000007
:105940000000000000000001C0E003C0F0040008F7
:1059500004080804080806180803F41801E7F00012
:1059600001E0000000000000000000000300000D46
:105970000000110000610000810803010807FFF822
:105980000FFFF800010800010800000000000000FF
:1059900000E007FCD00608080610080610080610EC
:1059A00008061838060FF00607C0000000000000C7
:1059B000000000003F8001FFE0038430020818046B
:1059C0001008041008041008071810030FF000074F
:1059D000C000000000000000000003C0000700003D
:1059E0000600000600F80607F806180006E00007A3
:1059F000000006000000000000000001E1E003F7E5
:105A0000F0063410041808041808040C08040C08E4
:105A100006161803F3F001C1E000000000000000CA
:105A2000F80003FC300306380402080402080402EC
:105A3000080404100308F001FFC0007F000000000C
:105A40000000000000000000000000000000000056
:105A5000703800703800703800000000000000004E
:105A60000000000000000000000000000000000036
:105A700000000000301A00301C0000000000000090
:105A8000000000000000000000000000000000080E
:105A9000000014000022000041000080800100404E
:105AA00002002004001008000800000000000000B0
:105AB0002100002100002100002100002100002120
:105AC0000000210000210000210000210000000052
:105AD000000000000000080008040010020020017F
